:020000040800F2
:100000001855002059020008894600083D3F0008A5
:1000100085460008D1050008816D00080000000039
:1000200000000000000000000000000099460008E9
:100030000908000800000000974600089B460008D9
:1000400073020008730200087302000873020008BC
:1000500073020008730200080B080008730200080E
:10006000730200081108000817080008730200084E
:100070001B07000827070008730200083307000861
:10008000730200087302000873020008730200087C
:10009000D3050008DF050008730200081D080008EA
:1000A000730200087302000873020008730200085C
:1000B0007302000873020008594700087302000821
:1000C000730200087302000873020008730200083C
:1000D000730200085B5200087302000867520008B0
:1000E000730200087302000873020008730200081C
:1000F000730200087302000873020008730200080C
:1001000073020008730200086547000873020008C4
:1001100073020008730200087302000873020008EB
:10012000730200083F0700084B0700085707000844
:1001300073020008730200087302000873020008CB
:10014000EB050008F7050008730200088B4600085D
:10015000630700086F0700087B0700087352000858
:10016000730200087302000873020008730200089B
:100170007302000873020008730200080000000008
:10018000730200087302000800F002F800F054F84F
:1001900014A696E8000CB244B344DA4501D100F04D
:1001A0004BF8BAE80F000FA696E83000A5EB04055F
:1001B00004EB0607AAEB0704A7F101074FEA1515A0
:1001C0004FEA3414A4F10104AC4201D300F034F836
:1001D00013F0010F18BFFB1A43F0010300F001F800
:1001E000DBE71847F4A3000014A40000103A24BF72
:1001F00078C878C1FAD8520724BF30C830C144BF8C
:1002000004680C6070470000704700000023002461
:1002100000250026103A28BF78C1FBD8520728BF16
:1002200030C148BF0B6070471FB50AF028F800F0D6
:100230006FF91FBD10B510BD00F095F91146FFF71D
:10024000F3FF09F029FB00F0B3F903B4FFF7F2FF65
:1002500003BC00F0B7F9000009488047094800478F
:10026000FEE7FEE7FEE7FEE7FEE7FEE7FEE7FEE766
:10027000FEE7FEE704480549054A064B70470000C3
:10028000474700088901000818370020185500204A
:10029000184600201846002053EA020C00F069803E
:1002A0002DE9F04B4FF00006002B1FBFB3FA83F58A
:1002B00003FA05F424FA05F65E4012BF1643B2FABB
:1002C00082F502FA05F4C5F120051EBF22FA05FCED
:1002D00044EA0C04203556EA044C4FEA144418BF93
:1002E000641C4FF000084FF00009904271EB030CC2
:1002F00039D3002919BFB1FA81F701FA07F6B0FA2C
:1003000080F700FA07F6C7F120071EBF20FA07FCA6
:1003100046EA0C062037B6FBF4FCA7EB0507103FB6
:1003200007F01F0BCBF120062CFA06F60CFA0BFB9C
:1003300044BFB3460026202FA4BF5E464FF0000BFB
:100340005BEA060C08BF4FF0010B19EB0B0948EBF9
:100350000608ABFB027C06FB02CC0BFB03CCC01BEC
:1003600071EB0C01C1E70B46024641464846BDE829
:10037000F08B13B5084318BF4FF0FF300146AFF3C1
:100380000080BDE81C407047032A40F2308010F026
:10039000030C00F0158011F8013BBCF1020F624420
:1003A00098BF11F801CB00F8013B38BF11F8013BB1
:1003B000A2F1040298BF00F801CB38BF00F8013B5E
:1003C00011F0030300F02580083AC0F0088051F8CE
:1003D000043B083A51F804CBA0E80810F5E7121DD9
:1003E0005CBF51F8043B40F8043BAFF30080D207F8
:1003F00024BF11F8013B11F801CB48BF11F8012BC4
:1004000024BF00F8013B00F801CB48BF00F8012BE6
:10041000704710B5203AC0F00B80B1E81850A0E842
:100420001850B1E81850A0E81850203ABFF4F5AFC2
:100430005FEA027C24BFB1E81850A0E8185044BF1E
:1004400018C918C0BDE810405FEA827C24BF51F88B
:10045000043B40F8043B08BF7047D20728BF31F87F
:10046000023B48BF11F8012B28BF20F8023B48BFD0
:1004700000F8012B70474FF000020429C0F01280F1
:1004800010F0030C00F01B80CCF1040CBCF1020F47
:1004900018BF00F8012BA8BF20F8022BA1EB0C011C
:1004A00000F00DB85FEAC17C24BF00F8012B00F812
:1004B000012B48BF00F8012B70474FF0000200B538
:1004C000134694469646203922BFA0E80C50A0E877
:1004D0000C50B1F12001BFF4F7AF090728BFA0E825
:1004E0000C5048BF0CC05DF804EB890028BF40F8F1
:1004F000042B08BF704748BF20F8022B11F0804F33
:1005000018BF00F8012B7047704770477047000014
:1005100008487CB57844009007487844009C05461C
:10052000019004E02046016808448047241DAC4245
:10053000F8D17CBDE0A00000E2A0000010B500F002
:100540000DF8006810BD10B5044600F007F804600F
:1005500010BD000000487047F800002000487047B8
:10056000F800002070477546FFF7F4FFAE4605001F
:100570006946534620F00700854618B020B5FFF7BE
:1005800079FEBDE820404FF000064FF000074FF025
:1005900000084FF0000BAC46ACE8C009ACE8C0095D
:1005A000ACE8C009ACE8C00921F007018D467047EE
:1005B00010B50446AFF300802046BDE81040FFF7B9
:1005C00044BE000001491820ABBEFEE72600020031
:1005D000FEE742F64030C2F2000000F081BA42F677
:1005E0004030C2F2000000F07BBA42F66830C2F23E
:1005F000000000F075BA42F66830C2F2000000F068
:100600006FBA10B50446006846F60002C4F2000254
:10061000904213D046F20042C4F20002904219D137
:1006200040F27010C2F20000046081622046002196
:100630000022002307F0FDFA0C2106E040F2BC1076
:10064000C2F2000081627021046020460022002373
:1006500007F0EFFA204600F09BFC2046022100F054
:10066000E4F820461021BDE8104000F0DEB800207C
:1006700070470020704710B542F66404C2F20004CF
:1006800041F2F451C2F200012046002204F0A9FF19
:1006900040F6F451C2F20001204604F095FF00201C
:1006A00010BD70B542F664060546C2F200060C465F
:1006B0003046294604F088FF304604F060FF40F2DF
:1006C00014262268C2F2000606F130002946FFF720
:1006D0005BFE2168726E2846A6F8601090470020E5
:1006E00070BD0020704742F66402C2F20002D2F8E8
:1006F000BC22D2F814320BB10120704710B542F67B
:100700006404C2F200040A460146204604F069FF70
:100710002046BDE8104004F0DFBF42F6D050C2F2E0
:10072000000000F0BBBC42F69030C2F2000000F0C6
:10073000B5BC42F6F030C2F2000000F0AFBC42F6A9
:100740003060C2F2000000F0A9BC42F65040C2F294
:10075000000000F0A3BC42F6B040C2F2000000F07E
:100760009DBC42F61050C2F2000000F097BC42F669
:100770009060C2F2000000F091BC42F67050C2F2EC
:10078000000000F08BBC10B54EF6FC5CCEF2000C05
:10079000DCF8002044F24023C0F20F0342F08072E4
:1007A000584344F6D353CCF8002041F20002C1F282
:1007B0006203CEF200024FF0000CA0FB033EC2F831
:1007C00004C04DF683611368C4F21B31A0FB011411
:1007D00043F00101116040F2F011C2F20001086023
:1007E00040F2F4114FEA9E10C2F20001086040F29C
:1007F000F811A00CC2F20001086040F2FC10C2F235
:100800000000C0F800C010BD7047012000F013BE0A
:10081000082000F010BE102000F00DBE202000F0D7
:100820000ABE000072B600BFFEE790F82020013A31
:10083000012A04D8006800F11402002004E000F14D
:10084000240201204FF4802113681943116070477E
:1008500010B590F820E0D0F800C0AEF1010EBEF166
:10086000010FDCF808E010D81EF0E05F13D0CEF3E3
:10087000016E012000FA0EF018608B688BB1486899
:10088000CC6844EAC00003430FE000F124010120DA
:100890004FF4802223E000F1240101204FF40012E4
:1008A0001DE00868CB6843EA40530CEB0E10C0F81B
:1008B00080310B69C0F88431097D012905D100F52B
:1008C000C2710B6843F480730B605168C0F88C11DF
:1008D000126800F5C071C0F88821002001220B6861
:1008E0001A430A6010BD90F82020013A012A30D83E
:1008F000B0B546F20060C4F20000026842F00102A6
:100900000260026822F47C520260D1F814E0CC69E3
:100910004A6A0368012C43EA022202600EF01F02B9
:100920004FF0010303FA02F2C3696FEA020C23EAF3
:100930000203C36113D02CBBC36803EA0C03C3607A
:10094000CB688C8844EA034300EBCE0423640B4657
:1009500011E0416A41F48021416201207047C3687F
:100960001343C3600B688C8844EA034300EBCE0456
:10097000236401F10C038C681B8843EA044300EBF9
:10098000CE04636443688D6943EA0204D1F810E041
:10099000096A002D08BF03EA0C0444604369BEF1F4
:1009A000000F43EA020408BF03EA0C040129446172
:1009B00002D1C1691143C161016821F001010160E7
:1009C0000020B0BD704710B590F82040013C012CCC
:1009D00077D8D0F800C000290CBFDCF80C40DCF858
:1009E0001040A40773D00CEB011CDCF8B0410CF5EF
:1009F000D87E14F004049460DCF8B04119BFE40818
:100A00005460640D1460DEF800400CF5DA7E04F0EA
:100A10000204D460DCF8B44124075ABFDEF8004079
:100A200004F00F0408241461DEF800400029C4F328
:100A300007249461DEF800404FEA14445461DCF866
:100A4000B8211A70026802EB0112D2F8B8214FEAFD
:100A500012225A70026802EB0112D2F8B8214FEA52
:100A600012429A70026802EB0112D2F8B8214FEAE2
:100A70001262DA70026802EB0112D2F8BC211A711C
:100A8000026802EB0112D2F8BC214FEA12225A711D
:100A9000026802EB0112D2F8BC214FEA12429A71AD
:100AA000026802EB0112D2F8BC214FEA1262DA713D
:100AB00000680CBF00F10C0100F1100100202022A1
:100AC0000AE000F1240101204FF4802204E000F14B
:100AD000240101204FF400120B681A430A6010BD74
:100AE0002DE9F04F81B0044600684669D0F80490C3
:100AF0008768D0F80CB0D0F810A0D0F81880F107B3
:100B000001D1002549E0F9070ED00121BA07816023
:100B100007D478071DD4380721D4204600F064FAA2
:100B200002E0204600F061FA0025F8051CD5206897
:100B30004FF48071BA05816007D478050CD438056C
:100B400010D4204600F052FA0EE0204600F04FFA92
:100B50000AE04FF40065E8E705F5005504E04FF4BE
:100B60008055E2E705F58045F80316D520684FF477
:100B70008031BA03816007D4780309D438030AD4DA
:100B8000204600F035FA08E0204600F032FA04E092
:100B900005F5004501E005F58035300707D51BF068
:100BA000100004D0206845F400751021C160700762
:100BB00008D51BF0080005D020680821C160204638
:100BC00000F096F9B00706D52068C068800702D00B
:100BD000204600F08EF9700607D51AF0100004D0F8
:100BE000206845F4806510210161B00608D51AF02F
:100BF000080005D0206808210161204600F09FF917
:100C0000F00606D520680069800702D0204600F073
:100C100097F9B00308D519F0100005D0206810210D
:100C20004160204600F0B2F9F00308D519F0080041
:100C300005D0206808214160204600F0DBF930042F
:100C400040D55FEA49703AD506F4807008EA102072
:100C500028435FEA8871014648BF41F00201B205AE
:100C600058BF01465FEA48700D4648BF45F004058D
:100C7000700558BF0D46300521D518F070001ED004
:100C800010380009052815D8DFE800F00306090C24
:100C90000F1245F008050DE045F010050AE045F09B
:100CA000200507E045F0400504E045F0800501E03F
:100CB00045F480752068816921F0700181612068A8
:100CC000042141604DB1606A40EA0501204661623D
:100CD00001B0BDE8F04FFFF775BE01B0BDE8F08F81
:100CE000D0B1B0B5044690F8200010B9204600F00D
:100CF0006FF82068016841F00101016000F078FCA4
:100D0000054600BF20684168C90707D100F070FCA4
:100D1000401B0B28F6D312E001207047016821F038
:100D20000201016000F064FC054600BF20684168D4
:100D300089070BD500F05CFC401B0B28F6D3606ADA
:100D4000052140F40030606201203EE0217E02680F
:100D5000012922F0800208BF80320260617E0268B1
:100D6000012922F0400208BF40320260A17E0268E1
:100D7000012922F0200208BF20320260E17E0268D1
:100D8000012922F0100218BF10320260217F026890
:100D9000012922F0080208BF08320260617F026860
:100DA000012922F0040208BF04320260D4E901C222
:100DB000D4E9033561691A432A431143ACF10102B6
:100DC0001143C16100200121606284F82010B0BD90
:100DD000B0B586B0044601A81421FFF76EFB206869
:100DE00046F60001C4F20001884231D046F20041CB
:100DF000C4F20001884279D140F20421C2F200011C
:100E00000A6843F63000C4F20200531C0B6052B96A
:100E100000210091016941F000710161016901F057
:100E2000007100910099002100910168152441F0A2
:100E3000080101600068142500F008000090009887
:100E400040F20040C4F2020000F50060032131E0EE
:100E500043F630000021C4F202000091026942F022
:100E600080620261026902F080620092009A40F2A0
:100E70000422C2F2000213685D1C15604BB9009198
:100E8000026942F000720261026902F0007200928F
:100E9000009A00910168412441F00201016000685C
:100EA000402500F002000090009840F200406021D0
:100EB000C4F2020001910221029100210391032159
:100EC00004910921059101A900F0C0FA28460021EA
:100ED000002200F050FD284600F03DFD2046002194
:100EE000002200F048FD204600F035FD06B0B0BD00
:100EF0007047B0B5016846F60002C4F200029142A4
:100F00000BD046F20042C4F20002914218BFB0BDBD
:100F100040F27015C2F2000503E040F2BC15C2F2C7
:100F200000052C1D05F1200300212246FFF74BFD93
:100F300005F1280001682046BDE8B0400847704729
:100F4000B0B5016846F60002C4F2000291420BD02F
:100F500046F20042C4F20002914218BFB0BD40F216
:100F60007015C2F2000503E040F2BC15C2F20005A4
:100F70002C1D05F1200301212246FFF724FD05F178
:100F8000280001682046BDE8B040084770470000CF
:100F9000B0B5044690F8200001281CD1022084F846
:100FA00020002068016821F00101016000F020FBB1
:100FB000054600BF20684068C00712D000F018FB4B
:100FC000401B0B28F6D3606A40F4003060620520B5
:100FD00084F8200003E0606A40F400206062012091
:100FE000B0BD00206062B0BD704770477047704769
:100FF000704770477047000070B5866D044600F07A
:10100000F7FA94F83510022925D105462068216C9D
:10101000026822F016020260426922F080024261F8
:1010200009B9A16C19B1016821F0080101600168DA
:1010300021F00101016000BF20680068C0070ED0E8
:1010400000F0D6FA401B0628F6D320206065032066
:1010500084F835000CE080206065012008E0E06D38
:101060003F2101FA00F0B060012084F83500002033
:10107000002184F8341070BD90F83510022909D190
:10108000052180F835100068016821F00101016038
:10109000002070478021416501207047F0B581B084
:1010A00004460020009040F22000C2F200000268D6
:1010B000D4E9166048F2B51337680821C1F64E33FB
:1010C00081403942A2FB03250CD0226813685B07DC
:1010D00008D5136823F004031360B160616D41F01B
:1010E0000101616501218140394208D022685269BD
:1010F000120604D5B160616D41F002016165042101
:101100008140394208D022681268920704D5B16044
:10111000616D41F00401616510218140394217D0B1
:1011200020680268120713D5B16002680168520393
:1011300006D4C90506D4016821F00801016001E068
:10114000080301D4216C00E0A16C09B12046884756
:10115000E16D202000FA01F23A423CD02068036899
:10116000DB0638D5B26094F835300268052B1AD109
:1011700022F016020260426922F080024261226C73
:101180000AB9A26C1AB1026822F0080202603F207C
:101190008840B060012084F83500216D002084F87B
:1011A0003400B9BB3BE0016852030CD4C9050ED42E
:1011B000016821F010010160012084F83500002051
:1011C00084F8340003E0080301D4616C00E0E16BB3
:1011D00009B120468847606D08B3606DC00717D01D
:1011E000052084F835002068A90A026822F001026F
:1011F000026000BF009A01328A42009202D802685F
:10120000D207F7D1012084F83500002084F834009B
:10121000E16C21B1204601B0BDE8F040084701B0C3
:10122000F0BD00002DE9F041044600F0E1F9C4B141
:101230000546022084F835000020216884F8340037
:10124000086820F00100086021680868C0070BD01A
:1012500000F0CEF9401B0528F6D9032520230320F2
:1012600064E00120BDE8F081086848F23F02CFF257
:101270001002D4E9013500EA020C04F10C0898E8E8
:10128000C10143EA0C032B431843D4E9072E304332
:1012900038431043626A40EA0E00042A40EA080319
:1012A0001CD1206BD4E90A2E40EA0E0018430860D6
:1012B0004869BEF1000F20F0030040EA020040F050
:1012C000040C11D0B8F5005F35D0B8F1000F42D151
:1012D000022A43D0012A38D0002A3EE00B60486938
:1012E00020F0070040EA020C01F0F8004AF6AB22B9
:1012F0001038CAF6AA22A0FB02231A094AF2D053D8
:10130000C1F814C0C0F600039A5C40F2FF335F28B6
:101310004FF03F0021EA030100FA02F088BF0431D8
:10132000C4E916128860002301250020636584F853
:101330003550BDE8F081032AD6D80125402301208D
:10134000DFE802F0020C0203F0E7AEF1C070B0FA81
:1013500080F0400904E0032A04D3C5D1CEF3006035
:101360000028C1D0012540230120DFE790F834C0D8
:10137000BCF1010F04BF0220704770B54FF0010CA3
:1013800080F834C0D0F858E090F835C0BCF1010FB7
:1013900037D14FF0020C80F835C04FF0000CC0F888
:1013A00054C0D0F800C08468056CC06DDCF80060E3
:1013B000402C26F48026CCF80060CCF804300B4694
:1013C00004BF13460A463F2101FA00F0CCF808306A
:1013D000CCF80C20CEF80800DCF8000040F0160035
:1013E000CCF800002DB1DCF8000040F00800CCF88B
:1013F0000000DCF8000040F00100CCF80000002004
:1014000070BD002180F83410022070BDB0B50446D4
:1014100000F0EEF8054640F2F200C2F2000000785B
:10142000611C18BF044400BF00F0E2F8401BA0425A
:10143000FAD3B0BD704743F61441C4F201010A6803
:10144000024214BF08607047FFF7F4BF2DE9F04F68
:1014500082B000F13E4707F1FF77860546EA9727FD
:1014600041F60046C4F20206082243F6004EB0429E
:1014700008BF0722C4F2010E072F38BF3A460026E4
:1014800000274FF0000800920D68012202FA08F4CC
:1014900015EA040900F09B80D1F804B003220BF098
:1014A000030CACF10105BA40012D6FEA020A0FD816
:1014B0008268CD6802EA0A02BD402A43826042681F
:1014C000A243CBF3001404FA08F42243426005E07F
:1014D000BCF1030F02D14FF0030C1EE0C2688C6810
:1014E00002EA0A02BC402243BCF1020FC26014D1DE
:1014F0006FF0030202EA58020244D2F820C006F05C
:101500001C040F230D69A3402CEA0303A5402B43C1
:101510001362D1F804B00BF0030C02680CFA07F365
:1015200002EA0A021A431BF4403F02604FD0002235
:1015300043F644030192C4F202031A684FF6084CC2
:1015400042F480421A601A68CFF6FF7C02F48042AF
:101550000192019A28F00302724452F80C3006F00E
:101560000C050F24AC40A343009C04FA05F52B4363
:1015700042F80C30DEF808204B6842EA090543F6D1
:101580000C4CDC0258BF22EA0905CEF80850C4F220
:10159000010CDCF800209C0242EA090558BF22EA4F
:1015A0000905CCF80050DEF804209C0342EA090546
:1015B00058BF22EA0905CEF80450DEF80020DB030C
:1015C00042EA090558BF22EA0905CEF8005008F1A1
:1015D00001080237B8F1100F06F104067FF454AF8A
:1015E00002B0BDE8F08F002A08BF0904816170478E
:1015F00043F21070C2F200000068704780B3F0B58B
:1016000081B0044690F83D0028B9002084F83C00E1
:10161000204600F0A1F8242084F83D0020680168ED
:1016200021F001010160016841F40041016001689D
:1016300021F40041016001F0D0F8636848F2A16C28
:10164000C0F2010C40F60011C0F23D0163453CBF01
:1016500048F28041C0F21E01884203D2012079E0A5
:10166000012070474DF68361C4F21B31A0FB0112CB
:101670002168970CD1F804E04FF496762EF03F05E0
:1016800045EA92454D60774348F638160D6AC0F238
:101690004106A7FB067625F03F07634538BF960C49
:1016A000721C3A430A62CA6948F2A0664CF6FF7798
:1016B000C0F20106B34222EA07020AD801385B00F1
:1016C000B0FBF3F001306FF31F30042898BF042003
:1016D00019E0A768013857B119277B43B0FBF3F035
:1016E00001306FF31F3068B100F5804007E003EB75
:1016F0004303B0FBF3F001306FF31F3010B100F57E
:10170000004000E001201043C8610868D4E90723C5
:1017100020F0C000104318430860886848F2FF3288
:1017200004F10C0790438CCF18431043A6698860DE
:10173000C86820F0FF0038433043C860086840F0B4
:101740000100086000202021206484F83D102063FF
:1017500084F83E0001B0F0BD2DE9F04F87B004469B
:10176000006845F60046C4F20006B04240F08480AE
:10177000002143F630070291C4F20207386802AD37
:1017800040F00400386038684FF0120A00F004009E
:1017900002900298029138684FF0010B40F001006E
:1017A000386038684FF0030800F00100029002989A
:1017B0004FF4007002904FF0040906F5D630294628
:1017C000CDF80CA0CDF810B0CDF81480CDF818905D
:1017D000FFF73CFE4FF4807002A981E8010CCDF8C0
:1017E000189046F2400906F5D2302946CDF814800B
:1017F0004FF00008C4F20209FFF728FECDF804807C
:10180000386942F6903540F4000038613869C2F218
:10181000000500F40000019001984FF0C0674FF4FC
:10182000806605F114001421C5E90097C5E9028816
:101830002E61FEF742FE2846FFF7F4FC08B1FEF7E2
:10184000F1FFA563AC6342F6F03509F13000C2F256
:1018500000054021C5E90007C5E9021805F114009B
:1018600014212E61FEF729FE2846FFF7DBFC08B1A4
:10187000FEF7D8FF6563AC6307B0BDE8F08F40F2B8
:10188000F20043F21071C2F20000C2F200010078CF
:101890000A6810440860704780B543F60040C4F2FF
:1018A0000200016841F400710160016841F4806147
:1018B0000160016841F480710160032000F086F846
:1018C0000F2000F004F800F02AF8002080BDB0B529
:1018D00040F2F202C2F2000240F220011278C2F29B
:1018E00000014FF47A730968B3FBF2F20446B1FBCE
:1018F000F2F1084601F06FFA0F2C4FF001050CD8F9
:1019000058B94FF0FF3021460022002500F033F88F
:1019100040F2F400C2F2000004602846B0BD82B07C
:10192000002043F640010190C4F202014A6842F4EB
:1019300080424A604A6802F480420192019A009013
:10194000086840F080500860086800F080500090FF
:10195000009802B0704700280CD400F01F0101224B
:1019600002FA01F11C2202EAD0004EF20012CEF27D
:1019700000028150704710B54EF60C5CCEF2000CA0
:10198000DCF80030C3F3022E8EF00704042C28BFCD
:101990000424BEF103034FF0FF3E0EFA04F438BFF7
:1019A0000023A14399400EFA03F39A43114300F038
:1019B0000F0200F160430901043A03F564436244F5
:1019C000002848BF02F10C03197010BD4EF60C51EF
:1019D000CEF200010A684FF6FF031A4060F30A22B4
:1019E00042F0806040F0FD70086070477047026808
:1019F0000020516270470000B0B5D0F800E0DEF87A
:101A00002400C9B1DEF82830B1F1010C00EB13431A
:101A10000BD05FFA8CF10EF58270002450F8045B55
:101A200001348C4203EB1543F8D343EA02400EEB3A
:101A30008C01C1F8040103E040EA0240CEF828001E
:101A40000020B0BDD0F8E00404F07DB801EBC10285
:101A5000D0F8E03400EB8200026A184603F0E1BFE0
:101A600001EBC102D0F8E03400EB8200D0F8602234
:101A7000184604F02EB8D0F8E00404F066B810B5AB
:101A8000044648B2B0F1FF3F01F00F0000EBC00187
:101A900004EB810205DD02F51571002382F8553251
:101AA00003E0012302F11401537594F894240870A3
:101AB000012A04BF022010BD2068012284F894246A
:101AC00004F00BFD002084F8940410BDB0B5027939
:101AD000044601F00F00904201D9012526E049B2E9
:101AE000B1F1FF3F09DD00EBC00104EB810202F51B
:101AF0001571002382F8553207E000EBC00104EBBA
:101B00008102012302F11401537594F894240025F5
:101B1000012A8D70087001D1022507E0206801229A
:101B200084F8942404F035FE84F894542846B0BD1B
:101B300001F00F0101EBC10100EB8100D0F8680258
:101B4000704770B5064648B2B0F1FF3F01F00F0094
:101B500000EBC00107DD06EB810404F515710025DB
:101B600084F8555206E006EB810C01240CF11401B7
:101B70008CF815404D7808708A600B7105B1488368
:101B8000022B04BF0020487196F89404012804BF7A
:101B9000022070BD3068012286F8942404F0E5FB31
:101BA000002086F8940470BD10B501F00F0404EB1A
:101BB000C40100EB810E4FF0000CCEF868C28EF825
:101BC00055C290F806C0CEF86022CEF86432BCF15F
:101BD000010F8EF8544208BFCEF8702200680EF54F
:101BE0001571624604F01CFE002010BDB0B504461D
:101BF000007901F00F05854284BF0120B0BD48B2D5
:101C0000B0F1FF3F09DD01EBC10004EB800000F5FE
:101C10001571002280F8552207E005EBC50004EBA2
:101C20008000012200F11401427594F8940401220D
:101C300001288A700D7004BF0220B0BD206884F8AE
:101C4000942404F0CEFD2DB92068A17904F29C42C1
:101C500004F072FD002084F89404B0BD80B501F05A
:101C60000F0C0CEBCC0100EB810E714601F814CF88
:101C70004FF0000CC1F814C04FF0010C81F801C006
:101C800090F806C0CA60BCF1010F0B6108BFCEF826
:101C900030200068624604F0C3FD002080BD0000D3
:101CA0002DE9F04F89B0D0F800A00646504604F068
:101CB00037FF10B109B0BDE8F08F306804F05CFF69
:101CC0000028F7D0DAF80808C0F30D213068C6F80C
:101CD000D41404F051FF01463068890703D54169E7
:101CE00001F0020141610AF50061049104F044FF32
:101CF00001463068C90608963BD5816921F010017C
:101D00008161DAF82040C4F34340062804F00F054F
:101D100019D0022828D147F6F07014EA000823D021
:101D200005EBC50006EB8007D7F860124FEA1814E0
:101D30005046224604F024FFD7F8600200EB18104A
:101D4000C7F8600207E006F29C415046082204F002
:101D500017FFC4F30A1405EBC50006EB8000D0F8AA
:101D600068122144C0F868123068816941F010019E
:101D7000816104F001FF000340F1E78008980068EA
:101D800004F0D9FE002800F0E080064608984FF4E1
:101D9000306400F29C4100F51D784FF0000B079174
:101DA000F00700F0C68008985FFA8BF90068494692
:101DB00004F0DAFE0746C00760D00AEB04000121F8
:101DC0008160089D28682118036C8A68AD79012D0F
:101DD00027D1150733D495064DD412F0280F4DD1D5
:101DE00043F20B05C4F65475AB4202D312F4004221
:101DF0002ED1D8F800200969BBF1000F6FF3DF4145
:101E0000A2EB010148F80C1C30D1089BD3F86422E6
:101E1000002A00F09880D3F860020844C3F86002FA
:101E200024E043F20B05C4F65475FF35AB4212D1E2
:101E300010040DD4900644BF2020886016E043F2C1
:101E40000B00C4F65470834218D312F4004015D02E
:101E50004FF4004010E0BBF1000F07D10899D1F812
:101E6000641219B90021079A04F066FC08984946E3
:101E7000FFF7F6FD02E02020886000BF38072BD571
:101E80000AEB040008218160089843F20B02006805
:101E9000C4F65472056C20448168954209D311F44C
:101EA000004106D04FF400418160089800F0A8FB83
:101EB00008E0089800F0A4FB43F20B00C4F654704D
:101EC000854209D308988079012805D10898079A96
:101ED0000068012104F030FCF80642BF0AEB040060
:101EE00010218160B80717D5DAF81400000604D570
:101EF0000499486840F48060486018F81D0C012877
:101F000006D1002008F81D0C0898494600F09AFAFE
:101F10000AEB040002218160B80642BF0AEB04000C
:101F200020218160B80442BF0AEB04004FF4005145
:101F300081600BF1010B760804F1200408F12408FC
:101F40007FF42EAF01E001218DE7DDF820B0CDF860
:101F50000CA0DBF8000004F00FFE400340F1D48039
:101F6000DBF8000004F0E0FD002800F0CD808246A0
:101F70000398012700F510660BF29C4000250190A4
:101F8000029600BF5FEACA7000F0B880DBF800007C
:101F9000E9B2079104F0D6FD0446C00726D0049AA2
:101FA00005F00F00516B07FA00F021EA00005063C2
:101FB00006EB451087609BF80600012812D105EB5F
:101FC000C5000BEB8000D0E90712114401624DB946
:101FD000DBF8240030B9DBF80000019A012104F09D
:101FE000ABFB00BF07995846FFF730FD200742BF03
:101FF00006EB451008218160E00642BF06EB451064
:1020000010218160600642BF06EB451040218160CF
:10201000A00715D50398294604F052FD05EBC5002D
:102020000BEB800010F8171F012905D1002101706A
:102030000799584600F002FA06EB4510022181602C
:1020400020065BD505EBC5000BEB8002914659F8E5
:10205000241FC84658F8040F81424FD3DBF80060B4
:1020600093465BF81C7F0B1ABB4238BF1F4606968F
:1020700006EB4513D3F818C907F1030E1FFA8CF7C6
:10208000B7EB9E0F28D303F5106102F120070591ED
:10209000D9F8001081421FD9DBF80040089A081ACD
:1020A000A0423968967938BF0446DDE90602A3B23A
:1020B000009604F051FE3868D8F8001020443860CB
:1020C00008190599C8F800008969E21C89B2B1EBCA
:1020D000920FDDD2D9F80010DDF820B0029E012762
:1020E00081420BD8069A05F00F00D2F8341807FA8F
:1020F00000F021EA0000C2F8340800BF5FEA5A0A83
:1021000005F101057FF43EAFDBF8000004F034FD7B
:10211000002804D4DBF80000DDE903891EE0DDF8C7
:102120001090D9F8040020F00100C9F804009BF8D1
:10213000CC04012807D100208BF8CC04584600219C
:10214000FFF754FC02E0584600F03FFADBF80000CD
:10215000DDF80C80416901F00041416104F00CFDA3
:10216000000502D4DBF800000CE0D9F80800C00735
:1021700002D0584600F06AFADBF80000416901F429
:102180000061416104F0F8FCC00402D4DBF80000F7
:102190005CE0D9F80400102120F00100C9F8040027
:1021A000DBF8000004F08CFC9BF80400D8B108F5C3
:1021B00010614FF67F3200BF8A600B68013823F44C
:1021C00000130B60C1F80822D1F8003223F4001389
:1021D000C1F80032D1F8003243F00063C1F8003298
:1021E00001F12001E8D1D9F81C0040F00110C9F834
:1021F0001C009BF80F0040B1D9F8840040F00B00A0
:10220000C9F8840009F1440008E0D9F8140042F24A
:102210002B010843C9F8140009F1100001680BF202
:102220009C4241F00B010160D9F8000020F4FE60EF
:10223000C9F80000DBF800009BF8061004F07CFAF7
:10224000DBF80000416901F48051416104F094FC25
:102250000146DBF8000089041AD504F0C6F8DBF863
:10226000000004F050FCDBF800408BF8070000F0A1
:10227000AEFA9BF807200146204604F0E4FC5846DD
:1022800000F090F9DBF80000416901F40051416170
:1022900004F072FC000702D4DBF8000008E05846A6
:1022A00000F097F9DBF80000416901F00801416195
:1022B00004F062FC000628D5D8F8180020F0800051
:1022C000C8F818009BF8040002281ED3012440F22D
:1022D0007B2500BF1BF80510012911D104F00F0068
:1022E00000EBC0000BEB80022006DBF8000002F1DF
:1022F000140158BF02F5157104F072FB9BF804003D
:102300000134844205F12405E4D3DBF8000004F035
:1023100033FCC00202D4DBF800002CE09BF8040080
:10232000022822D308F512640BF13C05012601278F
:102330002946226815F8243B012B11D1B2F1FF3F49
:102340000EDC07F00F0000EBC00001F8016C0BEB96
:102350008001DBF80000143104F042FB9BF804001C
:102360000137874204F12004E2D3DBF80000416921
:1023700001F48011416104F0FFFB800202D4DBF81C
:10238000000037E09BF8041002292DD308F53260D5
:1023900001390BF51F7201231746066812F8245BFA
:1023A000012D16D1B6F1FF3F13DCDBF8D45406F44F
:1023B000803605F00105AE420BD107F8013CD8F894
:1023C000187047F08007C8F81870D8F814703F06E6
:1023D00004D5013900F12000DED105E0D9F8040070
:1023E00040F40070C9F80400DBF80000416901F412
:1023F0000011416104F0C0FB400002D4DBF8000092
:1024000008E05846FFF71EFBDBF80000416901F0C9
:102410008041416104F0B0FB40077FF54BACDBF835
:1024200000004468610704D55846FFF724FBDBF839
:102430000000416821434160FFF73CBCD0F8E00454
:1024400003F0DCBBD0F8E00403F0EDBBB0B582B024
:1024500000285AD00446056890F8950428B9002051
:1024600084F89404204600F05DF80320B5F1A04FF5
:1024700084F8950404BF0020A071206804F055F989
:1024800094E80F00257C009503F0BFFFD0BB2068C7
:10249000002104F095FBA8BB94F804C0BCF1000F28
:1024A00029D00CEBCC00810000224FF0010E00255A
:1024B000002000BF631924351875D885A94200F1A2
:1024C000010083F815E01A76C3E907225A62F1D1B8
:1024D000BCF1000F0FD004F515710022002000BFE1
:1024E000087001304A700A71C1E902220A6184450C
:1024F00001F12401F4D194E80F00257C009504F04B
:102500004DF830B1022084F895040125284602B028
:10251000B0BD00250120657484F89504206804F09E
:102520002EF8F3E70068B0F1A04F18BF7047B0B5C0
:1025300086B0002543F630040195C4F202042068F9
:1025400001A940F001002060206800F00100019026
:1025500001984FF4C05001900220CDE902050320FC
:1025600004900A2005900020C4F20200FEF76EFFDE
:102570006068002140F08000606000956069002282
:1025800040F480406061606900F4804000900098F1
:102590004320FFF7F0F94320FFF7DDF906B0BDE86F
:1025A000B040704710B5C179044621B1022901D06D
:1025B000FEF738F90121D4F8E00403F0B7FBD4F8B2
:1025C000E004BDE8104003F068BBD0F8E00403F07D
:1025D00094BBD0F8E00403F09ABB10B5044690F821
:1025E0009404012804BF022010BD012084F8940443
:1025F0006174206804F016FB002084F8940410BD78
:10260000D0F8E02400F29C41104603F0A4BB10B5C2
:10261000044690F89404012804BF022010BD2068ED
:10262000012184F89414C168490606D5617B01290B
:1026300003D1816B41F48031816304F015FA206885
:1026400003F08EFF002084F8940410BD10B50446FA
:10265000D0F8E00403F0D1FB2068D0F8001E41F070
:102660000101C0F8001EE07A38B14EF61050CEF2EB
:102670000000016841F00601016010BD002872D021
:102680002DE9F04143F60008C4F202080446D8F8E8
:1026900000040D4600F00700884207D288F8005475
:1026A000D8F8000400F00700A84266D1206881072E
:1026B00017D5410705D5D8F8081041F4E051C8F8FE
:1026C0000810010705D5D8F8081041F46041C8F892
:1026D0000810D8F80810A26821F0F0011143C8F8DA
:1026E0000810C00741D1D8F8000400F00700A84244
:1026F00007D988F80054D8F8000400F00700A84271
:102700003BD12068410707D5D8F80810E26821F4CA
:10271000E0511143C8F80810000708D5D8F80800A0
:10272000216920F4604040EAC100C8F8080000F0C8
:102730007AF8D8F808104AF2B822C1F30311C0F6AB
:102740000002515C40F2200220FA01F140F2F40054
:10275000C2F200000068C2F200021160FFF7B7F891
:102760000020BDE8F081012070476068811E0229C9
:1027700006D2D8F80010890108D40120BDE8F08104
:1027800001281FD1D8F800108903F6D5D8F8081011
:1027900021F003010843C8F80800FEF729FF0646A8
:1027A00041F28837D8F80800616800F00C00B0EBFF
:1027B000810F98D0FEF71CFF801BB842F2D903208E
:1027C000BDE8F081D8F800108907D6D5DEE740F2E1
:1027D0002000C2F200000068704740F2200043F67B
:1027E0000801C2F20000C4F20201006809684AF25E
:1027F000C822C1F38221C0F60002515CC840704774
:1028000040F2200043F60801C2F20000C4F20201C7
:10281000006809684AF2C822C1F34231C0F60002DA
:10282000515CC840704710B543F60404C4F202047A
:10283000606800F00C0008280AD0042819BF42F292
:102840000040C0F2F40047F64000C0F27D1010BD19
:10285000206821682368490247F64001C0F27D11D3
:1028600000F03F02C3F388105CBF42F20041C0F2A7
:10287000F401A1FB00010023FDF70EFD21680222F7
:10288000C1F3014102EB4101B0FBF1F010BD0000CA
:1028900000286BD02DE9F04182B00446007843F661
:1028A0000006C007C4F202060CD0B06800F00C00AD
:1028B000042840F09A803068800303D560680028BF
:1028C00000F0AD80207880071BD5B06810F00C0FA9
:1028D00009D0B06800F00C00082840F0A2807068B1
:1028E000400200F19E803068800703D5E06801282F
:1028F00040F095803068216920F0F80040EAC1007E
:1029000030602078000733D42078400747D4A56989
:1029100055B3B06800F00C00082840F0B580012DD8
:102920007DD07068E16900F480028A4277D1216A23
:1029300000F03F028A4272D147F6C071626A0140DC
:10294000B1EB821F6BD1A16A4FF6FF73C9039943A4
:1029500000F44032A1F580318A4260D1E16A00F092
:102960007060B0EB016F5AD10020F3E00120704796
:102970006069002840F20000C4F2472074D00121B1
:10298000C0F8801EFEF734FE054600BF706F80075A
:10299000BAD4FEF72DFE401B0228F7D9D9E0306CDF
:1029A0005FEAC0080AD400200190306C40F08050EB
:1029B0003064306C00F080500190019847F20007BD
:1029C000C4F200073868C00540D4386840F480700D
:1029D0003860FEF70DFE05463868C00536D4FEF7B0
:1029E00007FE401B0228F7D9B3E0B06800F00C00E6
:1029F000082803D1706840023FF55DAF6068B0F50C
:102A0000803F07D0B0F5A02F40F08D80306840F4B3
:102A100080203060306840F4803030608DE00120EC
:102A200098E0E068002851D00020C4F2472001213E
:102A30000160FEF7DDFD0546306880073FF55AAFBF
:102A4000FEF7D6FD401B0228F6D982E0A0680128D7
:102A500005D005284ED1306F40F004003067306F4C
:102A600040F0010030674FE00021C0F8801EFEF703
:102A7000BFFD0546706F80077FF546AFFEF7B8FDD6
:102A8000401B0228F6D964E00027C4F24727002043
:102A90003866FEF7ADFD022D05460BD1306880018A
:102AA0005BD5FEF7A5FD401B02284FF00300F5D9CA
:102AB00050E000BF306880017FF556AFFEF798FD0B
:102AC000401B02284FF00300F4D943E00020C4F279
:102AD000472000210160FEF78BFD05463068800726
:102AE0007FF50FAFFEF784FD401B02284FF0030077
:102AF000F4D92FE0316F002821F001013167316FE7
:102B000021F00401316749D0FEF772FD054641F21C
:102B1000883700BF306F800751D4FEF769FD401B36
:102B2000B842F7D915E03168002821F480313160CE
:102B3000316821F4802131604AD0FEF759FD054605
:102B4000306880033FF5BEAEFEF752FD401B64289F
:102B5000F6D9032002B0BDE8F08104F11C052FCDA9
:102B6000084340EA8210D9034FF6FF729143A1F562
:102B7000803140EA05600843706001203866FEF746
:102B800037FD0446306880013FF5EEAEFEF730FDBC
:102B9000001B02284FF00300F4D9DBE7FEF728FD05
:102BA000054641F2883700BF306F800707D5FEF732
:102BB0001FFD401BB8424FF00300F5D9CAE7B8F13A
:102BC000000F3FF5A4AE306C20F0805030649EE6DC
:102BD000FEF70EFD054600BF306880037FF572AE3C
:102BE000FEF706FD401B64284FF00300F4D9B1E75F
:102BF00070B538B10446406A30B10020206104F15C
:102C0000140007E001264BE06068B0F5827F03D036
:102C100004F11C00002101600026A66294F8510016
:102C200020B9204684F8506000F03CF8022084F877
:102C3000510094E80F0001F48271056802F4044227
:102C400025F040050560114403F400622369114436
:102C500003F002026369114403F00102A369E5690C
:102C6000114403F40072114405F03802256A11443E
:102C700005F08002A56A114305F40052114301607A
:102C8000626A042101EA134102F01002114441601A
:102C9000C16921F40061C1610120666584F85100B9
:102CA000304670BD2DE9F04F85B00446006843F210
:102CB0000007C4F20107B84240F08A80002643F6BC
:102CC00030000096C4F2020041696D4641F4805123
:102CD000416141694FF0020A01F48051009100996D
:102CE000009601684FF0010B41F00201016001689C
:102CF0004FF0030901F0020100910099009601686C
:102D00004FF0050841F0010101600068294600F01C
:102D10000100009000981820009007F55440CDF86D
:102D200004A0CDF808B0CDF80C90CDF81080FEF7D7
:102D30008DFB80208DE8010CCDE9039846F24048D8
:102D400007F550402946C4F20208FEF77FFB42F621
:102D50005045C2F200054FF4403005F120014FF01C
:102D6000C06B4FF4806A042781E881022846C5E9D8
:102D7000008BC5E90266C5E904A6C5E90666C5E992
:102D80000B66FEF74FFA08B1FDF74CFDE564AC6346
:102D900042F6B04508F11800C2F200054021C5E92D
:102DA000000B05F1080080E842044FF4003005F103
:102DB000200181E881022846C5E90566EE61C5E982
:102DC0000B66FEF72FFA08B1FDF72CFDA564AC6386
:102DD00005B0BDE8F08F411E0020B0EB116F1CBFA5
:102DE000012070474EF21002CEF2000251604EF602
:102DF0002351CEF20001F0230B7007219060116087
:102E000070477047704790F83C20012A01D1022199
:102E10001FE0B0B501F108053CCDD1E900CE23F4A7
:102E20007C5322F470521A432EF4F0431A432CF4CC
:102E3000E0431A4324F4C0431A432A43C96922F4E5
:102E40008042036811435964002180F83C10BDE8BA
:102E5000B0400846704790F83C20012A4FF002022B
:102E600050D010B580F83D200268D2F804E0D2F8C6
:102E700008C00C682EF07003234341F2FF74C4F2C3
:102E80000004A24253600BDC40F2FF73C4F2000363
:102E90009A4213DCB2F1804F27D040F2004315E094
:102EA00040F2FF33C4F201039A4212DC41F6000300
:102EB000C4F200039A4218D0002312E040F6000347
:102EC000C4F200039A4210D040F60043C4F200035B
:102ED00009E044F20003C4F201039A4205D040F233
:102EE0000043C4F201039A4204D149682CF08003E4
:102EF000194391600121002280F83D1080F83C20A8
:102F0000BDE810401046704740B310B5044690F835
:102F10003D0028B9002084F83C00204600F020F84D
:102F2000022084F83D002068211D01F021FC0120D1
:102F300084F8460084F83E0084F83F0084F840009E
:102F400084F8410084F8420084F8430084F8440087
:102F500084F8450084F83D00002010BD0120704732
:102F600080B582B0006840F6FF31C4F200018842AB
:102F70001EDD40F60041C4F2000188423AD044F21E
:102F80000041C4F2010188424ED00021C4F2010187
:102F9000884266D10020019043F64000C4F202004E
:102FA000416841F001014160406800F0010056E0D5
:102FB00040F20041C4F20001884243D040F60001D3
:102FC000C4F2000188424CD10020019043F6400039
:102FD000C4F202000168002241F0040101600068AF
:102FE000012100F00400019001981E20FEF7C3FCAF
:102FF0001E2014E00020019043F64000C4F20200BD
:103000000168002241F0080101600068012100F020
:103010000800019001983220FEF7ADFC322002B08A
:10302000BDE88040FEF797BC0020019043F64000C9
:10303000C4F20200416841F400314160406800F48C
:1030400000300CE00020019043F64000C4F2020082
:10305000016841F002010160006800F00200019087
:10306000019802B080BD90F83D1001291CBF0120DD
:103070007047022180F83D10006841F2FF72C1687C
:10308000C4F20002904241F00101C1600BDC40F249
:10309000FF71C4F20001884213DCB0F1804F27D0E9
:1030A00040F2004115E040F2FF31C4F201018842D4
:1030B00012DC41F60001C4F20001884218D0002160
:1030C00012E040F60001C4F20001884210D040F640
:1030D0000041C4F2000109E044F20001C4F2010120
:1030E000884205D040F20041C4F20101884204D177
:1030F000816801F00701062903D0016841F0010150
:1031000001600020704790F83C20012A4FF0020235
:1031100000F0C38080B580F83D20D0F800C04FF6A5
:103120007772DCF8083023EA0202CCF808200B683A
:103130004F2B28DC1F2B44DD202B45D0302B43D0D8
:10314000402B40F0AC80D1F804E0C968DCF82030B6
:10315000DCF8202022F00102CCF82020DCF8182036
:1031600022F0F00242EA011123F00A0242EA0E02C2
:10317000CCF81810CCF82020DCF8081041F04701FA
:1031800021F030017EE06F2B26DDB3F5005F47D0E4
:10319000B3F5805F78D0702B40F08180D1E901E3F6
:1031A000C968DCF8082043EA0E0322F47F4243EAB0
:1031B00001211143CCF80810DCF8081041F0770128
:1031C00060E00BB1102B6AD1DCF8081021F070011F
:1031D000194341F0070155E0502B34D0602B5ED1EC
:1031E000D1F804E0C968DCF82030DCF8202022F0B7
:1031F0001002CCF82020DCF8182022F4704242EAB9
:10320000013123F0A00242EA0E12CCF81810CCF8DB
:103210002020DCF8081041F0670121F0100131E0B6
:10322000D1E901E3C968DCF8082043EA0E0322F47F
:103230007F4243EA01211143CCF80810DCF8081062
:1032400041F480411EE0D1F804E0C968DCF8203088
:10325000DCF8202022F00102CCF82020DCF8182035
:1032600022F0F00242EA011123F00A0242EA0E02C1
:10327000CCF81810CCF82020DCF8081041F05701E9
:1032800021F02001CCF808100022012180F83D1027
:10329000002180F83C10BDE88040104670470122B4
:1032A000F3E7704770B504460068C5680669B10762
:1032B00016D515F0020113D06FF002010161012152
:1032C00021778069800703D02046FFF7EAFF05E0F9
:1032D000204600F0D7F8204600F04FF90020207774
:1032E000700718D515F0040015D020686FF00401A0
:1032F000016102212177806910F4407F03D02046CC
:10330000FFF7CFFF05E0204600F0BCF8204600F0B4
:1033100034F900202077300717D515F0080014D0B5
:1033200020686FF00801016104212177C0698007DE
:1033300003D02046FFF7B5FF05E0204600F0A2F8D5
:10334000204600F01AF900202077F00618D515F075
:10335000100015D020686FF010010161082121775D
:10336000C06910F4407F03D02046FFF79AFF05E0C4
:10337000204600F087F8204600F0FFF80020207774
:10338000F00718BF15F0010006D020686FF00101AA
:103390000161204600F0F2F8300609D515F08000F2
:1033A00006D020686FF0800101612046FFF729FDFB
:1033B000700609D515F0400006D020686FF0400176
:1033C0000161204600F094F9B00658BF70BD15F0B9
:1033D000200008D021686FF0200220460A61BDE875
:1033E0007040FFF70FBD70BD10B586B0044601A850
:1033F0001421FDF762F8206844F20041C4F2010193
:1034000088421BD00021C4F20101884238D100213A
:1034100043F630000091C4F2020002684FF40053FA
:1034200042F0100202600068012200F010000090DB
:10343000009841F20000C4F2020017E00020009062
:1034400043F63000C4F202000168032241F020017B
:1034500001600068022100F020000090009841F215
:103460000000C4F2020000F58060402301930223B3
:1034700002930023CDE9033101A90592FDF7E6FF90
:1034800006B010BD70470000B0B5044690F83C008F
:10349000012804BF0220B0BD0D464FEAB201012051
:1034A000032984F83C0037D8DFE801F0020A122231
:1034B0002068294601F0F5FA206850F8181F0EE040
:1034C0002068294601F01EFB206850F8181F16E0FE
:1034D0002068294601F04AFB206850F81C1F41F083
:1034E00008010160016821F00401016029690FE011
:1034F0002068294601F06DFB206850F81C1F41F43C
:1035000000610160016821F480610160296909029C
:103510000268114301600020002184F83C10B0BD16
:1035200040B310B5044690F83D0028B9002084F857
:103530003C00204600F020F8022084F83D0020687E
:10354000211D01F015F9012084F8460084F83E00A1
:1035500084F83F0084F8400084F8410084F8420079
:1035600084F8430084F8440084F8450084F83D0062
:10357000002010BD0120704770477047006841F679
:10358000FF31C4F2000188421DDC40F6FF31C4F275
:103590000001884234DD41F2FF31C4F2000188426B
:1035A00058DC40F60041C4F20001884275D041F277
:1035B0000001C4F20001884240F0998040F2D0201E
:1035C000C2F2000090E040F2FF31C4F201018842F3
:1035D0002ADD44F2FF31C4F2010188424BDC40F2A3
:1035E0000041C4F2010188425CD044F20001C4F2FF
:1035F000010188427BD140F2E820C2F2000073E072
:10360000B0F1804F53D040F20041C4F20001884233
:1036100052D040F60001C4F20001884267D140F266
:10362000C020C2F200005FE041F60041C4F2000198
:10363000884246D042F20001C4F20001884245D0DF
:103640000021C4F20101884251D140F2A820C2F207
:10365000000049E041F20041C4F2000188423AD042
:1036600041F60001C4F20001884240D140F29020AE
:10367000C2F2000038E044F20041C4F20101884285
:103680002ED044F60001C4F20101884218BF7047F1
:1036900040F28820C2F2000026E040F2C820C2F2C8
:1036A000000021E040F2E020C2F200001CE040F205
:1036B000B020C2F2000017E040F2B820C2F20000D1
:1036C00012E040F29820C2F200000DE040F2A0208B
:1036D000C2F2000008E040F2D820C2F2000003E08D
:1036E00040F28020C2F200000430006800477047BA
:1036F0007047000070B582B0044690F84200202860
:1037000020D14FF00105F1B1EAB100262046256332
:10371000666301F019FD206B012814D10196206821
:103720000168019140680190019800BF206850E84D
:10373000030F216840F0100041E80302002AF5D190
:10374000002500E00225284602B070BD70B5044691
:10375000006844F6FF72C4F20002904217DC44F2A3
:103760000042C4F20002904228D044F60002C4F2A3
:10377000000290422CD044F60042C4F20002904273
:1037800018BF70BD40F2A062C2F2000229E045F20B
:103790000002C4F20002904215D041F20002C4F2CD
:1037A0000102904219D041F20042C4F2010290425B
:1037B0002AD140F6C002C2F2000212E040F280427A
:1037C000C2F200020DE040F2B072C2F2000208E064
:1037D00040F29052C2F2000203E040F27032C2F2B4
:1037E000000202F5867002F18405036802F5827614
:1037F00002F584722846118098473288204629466F
:10380000BDE87040FFF776BF70BD7047B0B582B0BD
:10381000044600680168C368426901F02F05202D45
:1038200003F0200506D12DB1204602B0BDE8B0401E
:1038300001F0B6BB5FEA017C1EBF02F0010E03F48B
:10384000907212EB0E026ED1226BCD0643D5012A87
:1038500041D113F010023ED0002101910168019185
:103860004168019101994069400600F1B980A08D3D
:10387000E18DE28D002A00F01581884200F012816E
:10388000401A00BF216851E8031F226821F490719B
:1038900042E80313002BF5D1216851E8051F226887
:1038A00021F0010142E80513002BF5D1202184F815
:1038B00042100021216300BF216851E8031F2268E4
:1038C00021F0100142E80313002BF5D1022281B24E
:1038D00020466263CAE00A0640F1CD8013F0800200
:1038E00000F0C98094F84110212940F0DB80A168E4
:1038F000B1F5805F03D12169002900F0DB80216AE6
:103900004A1C226209784160E18C01390A04E18491
:1039100040F0C880C16821F08001C160C16841F0F9
:103920004001C160BEE0CA0718BF13F4807203D023
:10393000626C42F0010262644A0706D5BEF1000FD4
:1039400003D0626C42F0020262648A0706D5BEF1BF
:10395000000F03D0626C42F004026264BCF1000FFD
:1039600006D55EEA050203D0626C42F0080262648A
:10397000626C002A00F09680890604D51DB12046AD
:1039800001F00EFB20684069616C00F0400001F01E
:103990000801401800F08180204601F083FA206879
:1039A0004069400640F18080206850E8050F21689A
:1039B00020F0400041E80502002AF5D1E06B002824
:1039C00072D044F65751C0F600010165FDF754FB73
:1039D000002867D0E06B016D02B0BDE8B040084739
:1039E000E06B016849688AB2002A5BD0A38D9A42D5
:1039F00058D2E185C069B0F5807F30D0206850E8AA
:103A0000030F216820F4807041E80302002AF5D1F9
:103A1000206850E8050F216820F0010041E8050208
:103A2000002AF5D1206850E8050F216820F04000F9
:103A300041E80502002AF5D1202084F84200002048
:103A4000206300BF206850E8030F216820F01000B9
:103A500041E80302002AF5D1E06BFDF7CDFA022020
:103A60006063A08DE18D401A81B2204602B0BDE8AE
:103A7000B040FFF76BBE490614D513F0400111D0DA
:103A8000C16821F04001C1602021204684F8411026
:103A900002B0BDE8B04000F04FBA2046FFF7B5FED7
:103AA0000020606402B0B0BD204602B0BDE8B04066
:103AB000FFF7ABBE216A31F8022B6FF35F22426041
:103AC000216221E758B310B5044690F8410028B9A7
:103AD000002084F84000204600F023F8242084F8D9
:103AE00041002068C16821F40051C160204601F006
:103AF000B6FA2068016921F490410161416921F021
:103B00002A014161C16841F40051C16000202021B7
:103B1000606484F8411084F84210606310BD012095
:103B200070472DE9F04F87B0044602A81421FCF736
:103B3000C4FC206844F60001C4F20001884200F091
:103B40009A8041F20041C4F20101884200F0E8800D
:103B500041F20001C4F20101884240F05581002782
:103B600043F630000197C4F202004169002541F09C
:103B7000100141614169C4F2020501F01001019197
:103B800001990197016802AE41F0020101600168EC
:103B900046F2284801F0020101910199019701685C
:103BA0004FF0020A41F00101016000684FF0030983
:103BB00000F0010001900198802002904FF0070B67
:103BC00005F580603146C4F20208CDE903A7CDF8BF
:103BD0001490CDF818B0FDF739FC4FF40070CDE922
:103BE000020A04A880E8800A28463146FDF72EFC28
:103BF00042F6105508F16000C2F200054FF0006671
:103C000085E8C1004FF4403005F120024FF4806A8E
:103C1000042182E803022846C5E9037AC5E905774D
:103C2000EF61C5E90B77FDF7FDFA08B1FCF7FAFD86
:103C3000E563AC6342F6705508F19000C2F20005EE
:103C40004021C5E9000605F1080080E882044FF430
:103C50008030C5E908072846C5E90577EF61FDF71B
:103C6000E1FA08B1FCF7DEFDA563AC632520002175
:103C700000222524C3E0002643F630000196C4F25A
:103C800002000169032741F480210161016901F407
:103C90008021019101990196016841F004010160C0
:103CA000006802A900F00400019001984FF4406000
:103CB00002900220CDE90306072006900020C4F2FE
:103CC000020000F500600597FDF7C0FB46F22840B2
:103CD000C4F2020042F6D055A0F58060C2F20005A1
:103CE0004FF480624FF0006185E84300C5E903624C
:103CF0004FF4803005F12002042183C22846C5E933
:103D00000566EE61C5E90B66FDF78CFA08B1FCF7B4
:103D100089FDE563AC6327200021002227246EE0A3
:103D2000002643F630000196C4F20200416946F2D3
:103D3000284841F0200141614169032701F0200139
:103D40000191019901960168C4F2020841F0400115
:103D50000160006802A900F04000019001984FF452
:103D6000844002900220CDE903060820069000203E
:103D7000C4F2020000F5C0500597FDF767FB42F65C
:103D80003065C2F200054FF4003005F120024FF01B
:103D9000206A4FF48069042183C22846C5E9008A5D
:103DA000C5E90266C5E90496C5E90666C5E90B667C
:103DB000FDF738FA08B1FCF735FDE563AC6342F670
:103DC000906508F17800C2F200054021C5E9000ABB
:103DD00005F1080080E842024FF48030C5E908068A
:103DE0002846C5E90566EE61FDF71CFA08B1FCF747
:103DF00019FDA563AC634720052100224724FDF788
:103E0000BAFD2046FDF7A7FD07B0BDE8F08F70476B
:103E1000704700002DE9F041044690F84100202849
:103E20001CBF0220BDE8F0810D4600294FF00100C3
:103E30003DD01746DAB3002060642120984684F80C
:103E40004100FDF7D5FBA784E784A1680746B1F5DB
:103E5000805F01D1206910B12E46002500E00026C8
:103E6000E08CC0B1204680213A46434601F0B8F9C3
:103E7000F8B92EB116F8010B2168486007E000BFC1
:103E800035F8020B21686FF35F2048600026E08C54
:103E90000138E084E4E7204640213A46434601F0F9
:103EA0009FF9202184F84110002818BF0320BDE8A5
:103EB000F081202084F841000320BDE8F08100005B
:103EC000B0B5044690F8410020281CBF0220B0BDC8
:103ED0004FF0010079B313466AB34FF0000C212074
:103EE0002162A384E384C4F844C084F84100A06B39
:103EF00044F6616E44F69F652268C0F6000EC0F677
:103F00000005C0E90FE544F66555C0F6000504322A
:103F1000C0E9135CFDF72AFA20686FF040010160E8
:103F2000206850E8050F216840F0800041E8050254
:103F3000002AF5D10020B0BD70477047FEE710B5EC
:103F400042F6403046F20041C2F20000C4F20001E5
:103F500040F2001403220023C0F2010480E80E00A6
:103F600000F10C014FF4C02C4FF4A00E81E8085072
:103F700084618383FCF7B4FE18B1BDE81040FCF700
:103F800051BC10BD10B542F6683046F60001C2F2D1
:103F90000000C4F2000140F2001403220023C0F22A
:103FA000010480E80E0000F10C014FF4802C4FF466
:103FB000E00E81E8085084618383FCF791FE18B11C
:103FC000BDE81040FCF72EBC10BD80B582B00020CB
:103FD00043F630010190C4F202010A6842F4001273
:103FE0000A600A6802F400120192019A00900868BF
:103FF000002240F4800008600868002100F480007E
:10400000009000980C20FDF7B6FC0C20FDF7A3FCF7
:104010000D2000210022FDF7AEFC0D20FDF79BFCDA
:104020000F2000210022FDF7A6FC0F20FDF793FCD6
:10403000392005210022FDF79EFC3920FDF78BFC7D
:104040003A2005210022FDF796FC3A20FDF783FC7B
:104050003B2000210022FDF78EFC3B20FDF77BFC7E
:10406000442000210022FDF786FC4420FDF773FC6C
:10407000452000210022FDF77EFC4520FDF76BFC6A
:10408000462000210022FDF776FC462002B0BDE864
:104090008040FDF760BC2DE9F04786B0002143F673
:1040A000300005910091C4F20200026840F200085D
:1040B00042F0020202600268C4F2020802F0020248
:1040C0000092009A0091026808F5C05742F0400241
:1040D00002600268402602F040020092009A0091BD
:1040E0000268012442F001020260026802F001024B
:1040F0000092009A0091026842F008020260026891
:1041000002F008020092009A0091026842F0040254
:104110000260026802F004020092009A00910268B4
:1041200042F080020260026802F080020092009A6F
:104130000091026842F020020260026802F0200250
:104140000092009A00910168012241F01001016083
:104150000068402100F01000009000983846FDF7FC
:1041600042FA4046102101224FF01009FDF73BFAB8
:1041700008F58065284601210122FDF734FACDE9D2
:10418000016401AE38463146CDE90344FDF75EF9DE
:10419000092001904FF4041A38463146CDE902A4B3
:1041A000FDF754F9022740463146CDE901940394C6
:1041B0000497FDF74BF93020CDE9010A08F50060BE
:1041C00031460394FDF742F928463146CDE90144D2
:1041D000CDE90347FDF73AF9062002210022FDF759
:1041E000CAFB0620FDF7B7FB092001210022FDF7DD
:1041F000C2FB0920FDF7AFFB0A2001210022FDF7D9
:10420000BAFB0A20FDF7A7FB172001210022FDF7CA
:10421000B2FB1720FDF79FFB06B0BDE8F08780B525
:1042200042F6F06045F60041C2F20000C4F200011F
:1042300041F6802200234FF4804CC0F2060280E851
:104240000E00C0E9033CC0E90533C0E90733FDF7C0
:10425000D5F918B1BDE88040FCF7E4BA80BDB0B52F
:1042600043F2284043F20001C2F20000C4F201010F
:104270004FF48272002380E80E0000F10C014FF031
:10428000020C4FF0010E4FF40074382581E80850FD
:104290000A21C0E90645C0E90833C0E90A31FEF742
:1042A000A7FC18B1BDE8B040FCF7BCBAB0BD80B502
:1042B00088B043F2C84044F200420021C2F200003C
:1042C000C4F2010241F28733CDE90611CDE90411B0
:1042D000C0E90021C0E9021301618161FEF714FE0B
:1042E00008B1FCF79FFA43F2C840C2F20000FFF7A2
:1042F00017F908B1FCF796FA602001900020CDE98B
:104300000200059043F2C840C2F2000001A9002259
:10431000FFF7BAF808B1FCF785FA43F2C840C2F2D9
:104320000000FFF761F808B080BDB0B596B009ACE9
:10433000002520461C211595CDE91355CDE91055D2
:10434000FCF7BBF801A82021FCF7B7F843F2804046
:104350000021C2F20000C4F2010141F28733A7221A
:1043600080E82600C0E90335C0E90555FEF7CCFD1D
:1043700008B1FCF757FA4FF48050129043F2804096
:10438000C2F2000012A9FEF7BEFE08B1FCF74AFA1D
:1043900043F28040C2F20000FFF7C2F808B1FCF718
:1043A00041FA0020CDE9100043F28040C2F2000043
:1043B00010A9FEF750FD08B1FCF734FA602009900F
:1043C000201D1821FCF779F843F28040C2F200006A
:1043D00021460822FFF758F808B1FCF723FA01AC90
:1043E00020461421FCF769F84FF400500690002095
:1043F000089043F28040C2F200002146FEF703FD20
:1044000008B1FCF70FFA43F28040C2F20000FEF759
:10441000EBFF16B0B0BD80B586B043F2105040F24D
:1044200000420021C2F20000C4F20002532340F215
:10443000E73C0591CDE90311CDE90011C0E9002366
:10444000C0E9021C01618161FEF75EFD08B1FCF765
:10445000E9F94FF48050029043F21050C2F200008C
:1044600002A9FEF750FE08B1FCF7DCF943F2105048
:10447000C2F200006946FEF7EEFC08B1FCF7D2F983
:1044800006B080BD80B586B043F2585040F60002B9
:104490000021C2F20000C4F20002532340F2E73CC4
:1044A0000591CDE90311CDE90011C0E90023C0E970
:1044B000021C01618161FEF727FD08B1FCF7B2F92A
:1044C0004FF48050029043F25850C2F2000002A90B
:1044D000FEF719FE08B1FCF7A5F943F25850C2F2F5
:1044E00000006946FEF7B7FC08B1FCF79BF906B07F
:1044F00080BD80B586B043F2A05040F60042002156
:10450000C2F20000C4F20002532340F2E73C0591DE
:10451000CDE90311CDE90011C0E90023C0E9021C77
:1045200001618161FEF7F0FC08B1FCF77BF94FF403
:104530008050029043F2A050C2F2000002A9FEF7A0
:10454000E2FD08B1FCF76EF943F2A050C2F20000A0
:104550006946FEF780FC08B1FCF764F906B080BD3F
:1045600080B543F2E85041F20001C2F20000C4F20B
:10457000010100234FF00C0C4FF4E13280E80E00F3
:10458000C0E90333C0E905C3C361FFF79BFA18B163
:10459000BDE88040FCF746B980BD10B543F23060FD
:1045A00044F6000C48F2A062C2F20000C4F2000C13
:1045B000C0F201024FF4805300214FF4806E0424B6
:1045C000C0E900C2C0E90231C0E904E4C0E9061153
:1045D000FFF778FA18B1BDE81040FCF723B910BD19
:1045E00080B543F2786041F20041C2F20000C4F2AB
:1045F000010100234FF00C0C4FF4E13280E80E0073
:10460000C0E90333C0E905C3C361FFF75BFA18B122
:10461000BDE88040FCF706B980BD80B542F6640075
:1046200040F20001C2F20000C2F20001002201F0DB
:10463000C3F908B1FCF7F6F842F6640040F2240131
:10464000C2F20000C2F2000101F001FC08B1FCF767
:10465000E9F842F6640040F2C001C2F20000C2F282
:10466000000100F0A5FF08B1FCF7DCF842F6640099
:10467000C2F2000001F012FC18B1BDE88040FCF766
:10468000D1B880BDFEE70000FEE742F64470C2F2FA
:104690000000FDF705BB70477047FDF7F0B800005C
:1046A000B0B592B0002401A81421CDE90A44CDE9A7
:1046B0000844FBF702FF43F640000094C4F20200F6
:1046C0000168022541F080510160006800F08050CF
:1046D0000090009847F200000094C4F200000168C6
:1046E00041F480410160006800F48040009000982F
:1046F000012006904FF4803007904FF480000D9019
:1047000019200E904FF4A870CDE90F0507201190E5
:1047100006A80C95FEF7BCF808B172B6FEE70F20AC
:10472000CDE901054FF4A05004904FF4805005905E
:1047300001A805210394FDF7A1FF10B172B600BFD7
:10474000FEE712B0B0BD4EF68850CEF20000016810
:1047500041F470010160704743F25850C2F200000A
:10476000FEF7A0BD43F2A050C2F20000FEF79ABDD2
:1047700010B540F6FF3E0368C4F2000E40F2004C54
:104780007045C4F2010C0DDCB0F1804F17D040F23F
:104790000042C4F20002904211D040F60002C4F27E
:1047A00000020AE040F60042C4F20002904206D045
:1047B000604504D00022C4F20102904203D14A684D
:1047C00023F07003134341F6FF72C4F200029042DB
:1047D0000DDC70451FDCB0F1804F3FD040F200424D
:1047E000C4F20002904239D040F6000221E043F6C4
:1047F000FF72C4F2010290421EDC42F20002C4F2D7
:10480000000290422AD00022C4F20102904225D038
:10481000604523D026E040F60042C4F200029042F8
:104820001CD041F60002C4F20002904216D041F6BC
:104830000042C4F200020FE044F20002C4F201029E
:1048400090420BD044F60002C4F20102904205D01F
:1048500044F20042C4F20102904203D1CA6823F438
:104860004073134323F080024B69D1F800E08C6859
:104870001A430260C46240F48062C0F828E06245D6
:1048800004BF09690163012141610169C90708BFCA
:1048900010BD016921F00101016110BDB0B588B002
:1048A00041F63860C2F2000001780131CAB20A2A2A
:1048B000017014D1002101706620CDE902010820A9
:1048C000069042F6683040F2E812CDE90411C2F2D7
:1048D0000000C2F2000202A901ABFBF7B9FF4FF4DE
:1048E0000070029042F6403040F260120024082529
:1048F000C2F20000C2F2000202A901ABCDE90344FA
:1049000005940695FBF7A4FF8820CDE9020442F642
:10491000683040F2B412C2F20000C2F2000202A9F2
:1049200001ABCDE904440695FBF792FF08B0B0BD9A
:10493000026841F6FF33C4F200039A421DDC40F6E0
:10494000FF33C4F200039A4234DD41F2FF33C4F274
:1049500000039A4258DC40F60043C4F200039A4236
:1049600075D041F20003C4F200039A4240F09880EF
:1049700040F2D022C2F2000290E040F2FF33C4F2D3
:1049800001039A422ADD44F2FF33C4F201039A4242
:104990004BDC40F20043C4F201039A425CD044F283
:1049A0000003C4F201039A427AD140F2E822C2F233
:1049B000000273E0B2F1804F53D040F20043C4F2E2
:1049C00000039A4252D040F60003C4F200039A4218
:1049D00066D140F2C022C2F200025FE041F600431D
:1049E000C4F200039A4246D042F20003C4F200032C
:1049F0009A4245D00023C4F201039A4250D140F2BA
:104A0000A822C2F2000249E041F20043C4F20003CE
:104A10009A423AD041F60003C4F200039A423FD1D1
:104A200040F29022C2F2000238E044F20043C4F2A5
:104A300001039A422ED044F60003C4F201039A42C5
:104A400018BF704740F28822C2F2000226E040F20E
:104A5000C822C2F2000221E040F2E022C2F20002CB
:104A60001CE040F2B022C2F2000217E040F2B8228D
:104A7000C2F2000212E040F29822C2F200020DE0FF
:104A800040F2A022C2F2000208E040F2D822C2F2B4
:104A9000000203E040F28022C2F20002C2E90001FB
:104AA000704770B5026A036A40F2004423F00103C4
:104AB0000362D0F804E0D0F818C08B6822F0020539
:104AC00040F48062C4F20104A24243EA050305D126
:104AD000CD6823F00C0325F004052B430D68A2429A
:104AE00006D1D1E905262EF44074224342EA060E8F
:104AF0002CF073022A43C0F804E0826149684163E4
:104B0000036270BD70B5026A036A40F2004423F08C
:104B100010030362D0F804E0D0F818C08B6822F0CC
:104B2000200540F48062C4F20104A24245EA031366
:104B300007D1CD686FF0400623F0C00306EA0515E3
:104B40002B430D68A24206D1D1E905242EF440661C
:104B5000224346EA820E2CF4E64242EA0522C0F8DD
:104B600004E0826149688163036270BD70B5026AC6
:104B7000036A40F2004423F480730362D0F804E037
:104B8000D0F81CC08B6822F4007540F48062C4F237
:104B90000104A24245EA032307D1CD6840F2FF4653
:104BA0002D0223F44063B5432B430D68A24206D186
:104BB000D1E905242EF44056224346EA021E2CF089
:104BC00073022A43C0F804E0C2614968C16303620A
:104BD00070BD70B5D0F820C0026A40F2004622F4E1
:104BE000805202624268C3690C68D1F808E040F460
:104BF0008065C4F20106B54204D14D6922F48042B9
:104C000042EA851223F4E64343EA04234260C36187
:104C10002CF40056496846EA0E320164026270BD07
:104C200040F27030C2F20000011D43F2E850C2F2BF
:104C300000000A22FFF744B9B0F86210023189B2CD
:104C4000FBF751BDB0B5A820FBF79DFD42F6403003
:104C500047F69D41C2F20000C0F60001FBF7D1FC0F
:104C600042F6683047F6C941C2F20000C0F60001C2
:104C7000FBF7C7FC43F2786047F6C131C2F200008F
:104C8000C0F60001802200F035F943F25854C2F218
:104C9000000447F69941C0F600012046FFF748FEA0
:104CA00043F2A055C2F2000547F60731C0F60001F5
:104CB0002846FFF73DFE41F650609FED070AC2F21D
:104CC000000003F019FC2046FEF7CDF92846BDE8A8
:104CD000B040FEF7C8B900BF0000000041F65060C8
:104CE000C2F2000090F8091240F2082290F87139DF
:104CF000C2F200021170937090F87219D0F87839EE
:104D0000517190F874199360D0F81934D17090F8FB
:104D1000731900EE103AD0F81534BDEEC00A1171C7
:104D200010EE101A00EE103ABDEEC00A917110EEAE
:104D3000101AD17190F8751990F854090129507022
:104D400018BF02F025BD40F21C00C2F200000A218B
:104D5000017002F01DBD806B0021C185C184FEF78A
:104D600054BD000010B5846B2068416994F841205F
:104D7000212A13D111F0800110D00020E08400BF5F
:104D8000206850E8030F216820F0C00041E80302CA
:104D9000002AF5D1202084F841002068406994F869
:104DA0004210222907D110F0400004D00020E085F5
:104DB000204600F077F8606C40F0100120466164F6
:104DC000BDE81040FEF721BD0168806B0968C90588
:104DD00030D40021C18500BF016851E8031F02687B
:104DE00021F4807142E80313002BF5D1016851E8EA
:104DF000051F026821F0010142E80513002BF5D1DF
:104E0000016851E8051F026821F0400142E80513DE
:104E1000002BF5D1202180F84210016B012909D126
:104E2000016851E8031F026821F0100142E80313F2
:104E3000002BF5D100214163016B012918BFFEF75A
:104E4000E6BF818DFEF782BC806B01214163016B5F
:104E5000012918BFFEF7DCBF818D4908FEF776BC3B
:104E60000168806B0968C90548BFFFF765B8002174
:104E7000C18400BF016851E8051F026821F080016C
:104E800042E80513002BF5D1016851E8031F0268C1
:104E900041F0400142E80313002BF5D17047806BCD
:104EA000FFF74BB8016851E8031F026821F49071C5
:104EB00042E80313002BF5D1016851E8051F026891
:104EC00021F0010142E80513002BF5D1016B012906
:104ED0000AD100BF016851E8031F026821F01001E8
:104EE00042E80313002BF5D1202180F84210002165
:104EF00001637047D0F800C044F6FF73C4F20003AA
:104F00009C4517DC44F20043C4F200039C4528D0C2
:104F100044F60003C4F200039C452CD044F6004341
:104F2000C4F200039C4518BF704740F2A063C2F270
:104F3000000329E045F20003C4F200039C4515D0AC
:104F400041F20003C4F201039C4519D041F2004331
:104F5000C4F201039C4521D140F6C003C2F2000314
:104F600012E040F28043C2F200030DE040F2B07361
:104F7000C2F2000308E040F29053C2F2000303E0E3
:104F800040F27033C2F2000303F1840CC3F80C1139
:104F900061461860A3F80421FEF7ACBB704700001F
:104FA00090F84210222918BF704783680246B3F573
:104FB000805F0CD152F8281F52F8183C8BB9026858
:104FC00052686FF35F2221F8022B81620FE052F8E2
:104FD000281F0BB9036923B103685B6803F07F03E3
:104FE00001E003685B680B70116801311160C18DCD
:104FF00001390A04C18500D070470168CA6822F0EF
:105000002002CA60CA6822F48072CA604A6922F02B
:1050100001024A61202180F8421000214163026BA5
:10502000012A18BFFEF7F3BE81B00163016851E8A1
:10503000031F026821F0100142E80313002BF5D191
:1050400001680A68D20606D5002200920A6800921A
:10505000496800910099818D01B0FEF777BB10B5CA
:1050600004460068D4E902C22369016921F4405171
:1050700011430161626943EA0C01E3691143C268AB
:10508000194349F20C639A431143C1604169A26913
:1050900021F4407141F20043114340F48062C4F2B4
:1050A00001039A42416102D1FDF7AAFB01E0FDF73D
:1050B00094FBE16963681922B1F5004FA0FB02017E
:1050C00020D15A00DB0FFBF7E7F848F21F51C5F279
:1050D000EB11A0FB01235A094FF69C73C0F6FF7336
:1050E00003F1805302FB0300322303EBC000A0FB5B
:1050F00001014FF4F87000EA111000EB0210C1F347
:1051000042111CE09A009B0FFBF7C6F848F21F51B2
:10511000C5F2EB11A0FB01235A094FF69C73C0F6B0
:10512000FF7302FB0300322303EB0010A0FB01011D
:10513000F02000EA511000EB0210C1F343110844C3
:105140002168886010BD000070B582B0134600264B
:105150000446816283854664222084F84200E06B25
:1051600044F6C95C44F649650A462168C0F6000C5D
:10517000C0F60005C0E90FC544F66555C0F6000548
:105180000431C0E91356FCF7F1F801962068016874
:105190000191406801900198206948B1206850E869
:1051A000030F216840F4807041E80302002AF5D122
:1051B000206850E8050F216840F0010041E8050231
:1051C000002AF5D1206850E8050F216840F0400022
:1051D00041E80502002AF5D1002002B070BD0000B0
:1051E0002DE9F04182B0804600681D4603680E46F6
:1051F0001940B1421CD017466C1C00BFA4B1FCF78B
:10520000F7F901464FF003009DB1C91BA94210D820
:10521000D8F80000C168490706D5402E04D0802E7A
:1052200002D00168090707D401683140B142E5D1D5
:10523000002002B0BDE8F0810024019401680191D2
:105240004068019001984046FFF72CFE0820C8F8FE
:10525000440088F840400120EBE743F2E850C2F2F6
:105260000000FEF7D3BA43F23060C2F20000FEF74E
:10527000CDBA43F27860C2F20000FEF7C7BA70B54B
:10528000D0F8D42200EB8202D2F8C0323BB301F056
:105290000F0E8C460EEB8E0100EB810151F8184F7A
:1052A0005CB1D0F8C8620EEBCE0506EB8506F66958
:1052B000B4FBF6F505FB16469EB10024C3F8144274
:1052C000D2F8C402D0F810E0BEF1000F10D0D3F82D
:1052D000080203F504716246F047002408E0032445
:1052E00006E000240C6061460022002300F093FDDC
:1052F000204670BDB0B50446D0F8D40204EB80005F
:10530000D0F8C05295B1204600F02FFCD4F8D4124A
:10531000C5F80C0204EB8101D1F8C412D5F80402DF
:10532000CA6805F5037190470020B0BD0320B0BDE9
:1053300070B58121044600F063FB00252046012161
:10534000258700F05DFB20468221A4F8785100F00B
:1053500057FBD4F8D402E56404EB8000D0F8C01207
:1053600089B1D0F8C40240688047D4F8D40204F56B
:10537000307656F8200000F0F2FFD4F8D40246F858
:105380002050C4F8BC52002070BD10B5D0F8D41223
:1053900000EB8100D0F8C04284B1D0F8C41259B1FA
:1053A00094F80002FF2807D08B6894F80122214668
:1053B0009847FF2084F80002002010BD032010BD94
:1053C000014640F2A0000A22C2F200000A807047A3
:1053D000F0B581B040F25C07C2F2000704463846DF
:1053E000822100F09DFA06463846012100F098FA25
:1053F00005463846812100F093FA0EB11021B171B3
:105400000DB14021A98008B140218180432140F2A3
:105410005C00C2F20000218001B0F0BDF0B581B0A7
:1054200040F25C07C2F2000704463846822100F0D1
:1054300077FA06463846012100F072FA05463846EA
:10544000812100F06DFA0EB11021B17115B14FF448
:105450000071A98010B14FF400718180432140F2A6
:105460005C00C2F20000218001B0F0BDF0B581B057
:1054700040F25C07C2F2000704463846822100F081
:105480004FFA06463846012100F04AFA05463846EA
:10549000812100F045FA0EB11021B1710DB140210A
:1054A000A98008B140218180432140F25C00C2F212
:1054B0000000218001B0F0BD2DE9F04104464FF419
:1054C000077000F04DFF00284ED04FF407710546DD
:1054D000FAF7F3FFD4F8D402402704EB8000C0F8B9
:1054E000C052207CC4F8BC52002808BF4FF400779B
:1054F0002046812102223B46022600F0A9FB4FF004
:1055000001082046012102223B46A4F8388000F021
:105510009FFB1020A4F84E0020468221032208237E
:10552000A4F8788100F094FBD4F8D4020027C5F8E1
:10553000047204EB8000D0F8C402A4F84C80006828
:105540008047C5F81472C5F81872D5F804229AB1CC
:10555000207C01210028204614BF40234FF4007313
:1055600000F08AFB002607E0D4F8D402002104EB07
:105570008000C0F8C01202263046BDE8F081D0F8A5
:10558000D41200EB8101D1F8C01279B180B590F846
:1055900010C0D1F8042240230121BCF1000F08BF44
:1055A0004FF4007300F068FB002080BD03207047BB
:1055B00000290FBF0320D0F8D42200EB8200C0F8EE
:1055C000C41218BF00207047D0F8D42200EB82002C
:1055D000D0F8C00200280EBF0320C0F8041200203B
:1055E0007047D0F8D43200EB8300D0F8C002002816
:1055F0000FBF0320C0F80812C0F810220020704727
:1056000070B582B00446D0F8D4020D4604EB800099
:10561000D0F8C0620021002E8DF80710ADF80410FC
:1056200056D0297811F0600214D0202A4CD1EA8893
:1056300002B349B2B1F1FF3F25DD6878314686F803
:1056400000022046402A28BF402286F8012200F0AE
:105650008AF837E06878092803DC08B3012831D0DC
:1056600032E00A2824D00B282ED194F89C0203287B
:1056700028D029E0D0F8C40229468368687800223F
:105680000024984725E0D0F8C40231468368687842
:105690009847EA882046072A28BF072231460FE0AC
:1056A00094F89C0203280FD101A92046022207E0AA
:1056B00094F89C02032807D10DF10701204601222E
:1056C00000F069F8002404E02046294600F040F884
:1056D0000324204602B070BDD0F8D41200EB810143
:1056E000D1F8C022A2B1D2F8141200294FF0010162
:1056F0000FD180B5C2F81412D2F81032D2F80822B5
:105700008121C36200F087FB0021BDE8804000E0FA
:1057100003210846704780B5D0F8B82252689047F8
:10572000002818BF032080BD00207047002070476C
:1057300080B513460A46002100F09EFA002080BD85
:1057400080B513460A46002100F065FB002080BDAD
:1057500010B58021044600F02EFB20460021BDE854
:10576000104000F028BB80B513460A460321C0F85C
:1057700094120021C0E9563300F07EFA002080BD6B
:1057800080B50521C0F8941200210022002300F00A
:1057900073FA002080BD80B513460A460221C0F886
:1057A00094120021C0E9063300F035FB002080BDD3
:1057B00080B50421C0F8941200210022002300F0DB
:1057C0002AFB002080BD000010B540F6D414C2F2C0
:1057D00000040A4602A0214600F0BAF8204610BD97
:1057E00043444320436F6E666967000040F2AC009B
:1057F0001222C2F200000A807047000010B540F685
:10580000D414C2F200040A4602A0214600F0A0F817
:10581000204610BD43444320496E7465726661633F
:105820006500000040F2D4000422C2F200000A80A9
:105830007047000010B540F6D414C2F200040A46C6
:1058400002A0214600F084F8204610BD53544D6953
:1058500063726F656C656374726F6E696373000069
:1058600010B540F6D414C2F200040A4602A0214644
:1058700000F06EF8204610BD53544D333220566967
:10588000727475616C20436F6D506F72740000000C
:1058900070B547F61020C1F6FF70026883684FF0BC
:1058A0001A0CD218A1F800C035D0406840F2D801D7
:1058B0004FF0000CC2F200014FF0370E002300BF82
:1058C00001EB43050EEB1276B2F1204F03F1010319
:1058D0004FEA127438BF04F130061201082BAE7083
:1058E00085F803C0ECD14FF0000C3723002200BF35
:1058F00001EB420503EB1074B0F1204F02F10102FD
:105900004FEA107638BF06F130040001042AAC7467
:1059100085F813C0ECD140F2D800C2F2000070BD8F
:10592000B0F802C003789C459CBF0020704780B54A
:1059300090F800E070444278052A03D182788A42C8
:1059400008BF80BD73449AB26245F1D3002080BD88
:1059500088B380B5037853B100F1010E4FF0000C0D
:105960001EF8013B0CF1010C002BF9D101E04FF0C6
:10597000000C5FFA8CFC022303EB4C031380032220
:105980000B704A7090F800E0BEF1000F11D00130AA
:1059900002234FF0000C00BFDAB201F802E042F03F
:1059A000010201F802C010F801EB0233BEF1000F52
:1059B000F2D1BDE88040704778B10023C0F8B8321A
:1059C000C0F8C432C0F8D03209B1C0F8B412012115
:1059D00080F89C12027000F0CCB80320704780B5AC
:1059E000D0F8C802FCF772F840F20032C100C0F2F1
:1059F000013222FA01F1032888BF0321C8B280BD19
:105A000080B5D0F8C802FCF73AF840F20032C10085
:105A1000C0F2013222FA01F1032888BF0321C8B283
:105A200080BDB0B5044689B194F89C0203284ED1DC
:105A3000D4F8B8024269002A49D00020C4F8D40240
:105A400020469047002808BF0020B0BDD4F894023B
:105A5000022836D1D4E9070188420DD9431A2046DD
:105A600011461A46E361FFF76BFE20460021002233
:105A7000002300F001F924E00FD1A16981420CD389
:105A8000D4F89802814208D2204600210022002545
:105A9000FFF756FEC4F89852E7E794F89C020328F3
:105AA00008D1D4F8B802C16821B10020C4F8D402EA
:105AB000204688472046802100F07DF92046FFF7E8
:105AC0005FFE94F8A00210B1002084F8A00200202C
:105AD000B0BD10B5044681B194F89C02032830D1C2
