:020000040800F2
:10000000E8E900208102000819940008F97E000840
:10001000159400083D090008BDF600080000000026
:10002000000000000000000000000000119F000818
:10003000190F00080000000061980008AD9F00083B
:100040009B0200089B0200089B0200089B0200081C
:100050009B0200089B0200081D0F00089B0200087D
:100060009B020008290F0008350F00089B020008BA
:10007000310C0008410C00089B020008510C0008DC
:100080009B0200089B0200089B0200089B020008DC
:1000900041090008510900089B020008410F0008AF
:1000A0009B0200089B0200089B0200089B020008BC
:1000B0009B0200089B0200088DA000089B0200081C
:1000C0009B0200089B0200089B0200089B0200089C
:1000D0009B02000855B600089B02000865B60008A0
:1000E0009B0200089B0200089B0200089B0200087C
:1000F0009B0200089B0200089B0200089B0200086C
:100100009B0200089B0200089DA000089B020008BB
:100110009B0200089B0200089B0200089B0200084B
:100120009B020008610C0008710C0008810C00089B
:100130009B0200089B0200089B0200089B0200082B
:1001400061090008710900089B0200089D940008DD
:10015000910C0008A10C0008B10C000875B600084D
:100160009B0200089B0200089B0200089B020008FB
:100170009B0200089B0200089B0200080000000090
:100180009B0200089B02000800F002F800F066F8ED
:100190000AA090E8000C82448344AAF10107DA45E2
:1001A00001D100F05BF8AFF2090EBAE80F0013F0CE
:1001B000010F18BFFB1A43F001031847BCBE010032
:1001C000DCBE01000A444FF0000C10F8013B13F0B4
:1001D000070408BF10F8014B1D1108BF10F8015BA0
:1001E000641E05D010F8016B641E01F8016BF9D193
:1001F00013F0080F1EBF10F8014BAD1C0C1B09D1EA
:100200006D1E58BF01F801CBFAD505E014F8016B5B
:1002100001F8016B6D1EF9D59142D6D370470000ED
:100220000023002400250026103A28BF78C1FBD8FF
:10023000520728BF30C148BF0B6070471FB51BF085
:100240007EFD9DE8030000F0D3F900F017F88DE87B
:100250000F0000F09FF91FBD10B510BD00F0F2FABD
:100260001146FFF7EBFF1AF055FC00F010FB03B44A
:10027000FFF7F2FF03BC00F0B3FA000000F020BA71
:100280000948804709480047FEE7FEE7FEE7FEE72A
:10029000FEE7FEE7FEE7FEE7FEE7FEE70448054966
:1002A000054A064B7047000079A000088901000844
:1002B000E8490020E8E90020E8990020E8990020BA
:1002C00070B5064600F078F9056806F10B0020F0DD
:1002D0000704B4429CBF002070BD2B466A68BAB1C7
:1002E0001068A04210D304F1080188423CBF506856
:1002F000586007D35168101941601168091B0160EB
:1003000058601460101D70BD13465268002AE7D172
:100310002146284600F058F90028DED170BD53EA86
:10032000020C00F069802DE9F04B4FF00006002B25
:100330001FBFB3FA83F503FA05F424FA05F65E400D
:1003400012BF1643B2FA82F502FA05F4C5F1200590
:100350001EBF22FA05FC44EA0C04203556EA044C80
:100360004FEA144418BF641C4FF000084FF0000916
:10037000904271EB030C39D3002919BFB1FA81F710
:1003800001FA07F6B0FA80F700FA07F6C7F120077E
:100390001EBF20FA07FC46EA0C062037B6FBF4FC29
:1003A000A7EB0507103F07F01F0BCBF120062CFA37
:1003B00006F60CFA0BFB44BFB3460026202FA4BF61
:1003C0005E464FF0000B5BEA060C08BF4FF0010BD6
:1003D00019EB0B0948EB0608ABFB027C06FB02CCD1
:1003E0000BFB03CCC01B71EB0C01C1E70B460246B3
:1003F00041464846BDE8F08B13B54FF000004FF082
:100400000001AFF30080BDE81C407047032A40F2B2
:10041000308010F0030C00F0158011F8013BBCF1A6
:10042000020F624498BF11F801CB00F8013B38BFBE
:1004300011F8013BA2F1040298BF00F801CB38BFCC
:1004400000F8013B11F0030300F02580083AC0F0EA
:10045000088051F8043B083A51F804CBA0E8081092
:10046000F5E7121D5CBF51F8043B40F8043BAFF3C5
:100470000080D20724BF11F8013B11F801CB48BF1F
:1004800011F8012B24BF00F8013B00F801CB48BF55
:1004900000F8012B704710B5203AC0F00B80B1E88E
:1004A0001850A0E81850B1E81850A0E81850203AA9
:1004B000BFF4F5AF5FEA027C24BFB1E81850A0E8B2
:1004C000185044BF18C918C0BDE810405FEA827CCC
:1004D00024BF51F8043B40F8043B08BF7047D207E3
:1004E00028BF31F8023B48BF11F8012B28BF20F884
:1004F000023B48BF00F8012B70474FF0000204296F
:10050000C0F0128010F0030C00F01B80CCF1040C42
:10051000BCF1020F18BF00F8012BA8BF20F8022B76
:10052000A1EB0C0100F00DB85FEAC17C24BF00F81C
:10053000012B00F8012B48BF00F8012B70474FF04A
:10054000000200B5134694469646203922BFA0E823
:100550000C50A0E80C50B1F12001BFF4F7AF09072F
:1005600028BFA0E80C5048BF0CC05DF804EB890020
:1005700028BF40F8042B08BF704748BF20F8022B63
:1005800011F0804F18BF00F8012B7047704770477B
:100590007047000070B5064C7C44064D7D4403E076
:1005A000206820448047241DAC42F9D170BD000072
:1005B000FCBA010010BB010000487047C8010020D0
:1005C000704770477047704738B504460A460020A8
:1005D0006946AFF30080002808BF38BD0246009985
:1005E000204600F00DF9012038BD012000F022B9AD
:1005F000F8B5AFF30080054600200C46102000BF80
:100600000646A819A0420DD9324669460020AFF32C
:100610000080070008BF00F00DF90098A04218BF45
:100620000546C419FFF7C8FF05600746F01D20F016
:1006300007004619284600F00AF8B44208BFF8BD82
:10064000A21B31463868BDE8F84000F0D9B8002157
:100650000160C0E9011070471020704770B5044672
:10066000051FFFF7A9FF0068002C14BF446870BD88
:10067000002C18BFAC423CBF20466468F8D3016828
:100680000A18AA4218BF456003D12A6805461144DA
:10069000016028684119A1421CBF6C6070BD61688F
:1006A000696021680844286070BD10B500F0A2F8A8
:1006B000006810BD10B5044600F09CF8046010BD41
:1006C0002DE9FE4F00274FF48074BA4620468DF87E
:1006D0000070FFF7F5FD5FEA000801D100F0AAF80D
:1006E0002146404600F070F8060009D04FF0010B9B
:1006F0004546C14616F8014B8FB15C2C16D01CE064
:1007000008F108004146C8F800000020C8F80400BD
:10071000D8F800402070012003B0BDE8F08F222CF3
:1007200001D0272C0FD12746BA462CE0307822285A
:1007300007D05C2805D0272803D0BC4203D100276E
:1007400021E0761C04464CB12FB9202C06D0A4F130
:100750000900042802D905F8014BCBE74D4502D129
:10076000BAF1000F0FD052464946002005F8010BA0
:100770006846AFF300809DF8000068B14D464FF029
:10078000000A0BF1010B002CB4D14FEA8B00FFF7EC
:1007900097FD040002D004E0A946F0E7002000F035
:1007A00049F800264046C4F8008005E010F8011B17
:1007B00011B9761C44F82600A842F7D32146002040
:1007C00044F826003046A7E71CB50446CDE90001F1
:1007D00069461520ABBE08B100201CBD20461CBDDB
:1007E00001491820ABBEFEE7260002000048704712
:1007F000C001002000487047C001002070477047CA
:10080000034640688C46002818BF88423CBF034618
:100810004068F8D318681844884207D00CF10300E8
:1008200020F00700001D411A521A0146081D0A60F7
:10083000FFF714BF10B500F039F8BDE8104000F024
:100840002FB870477546FFF7D1FFAE4605006946E1
:10085000534620F00700854618B020B5FFF71EFD6F
:10086000BDE820404FF000064FF000074FF00008B1
:100870004FF0000BAC46ACE8C009ACE8C009ACE8EE
:10088000C009ACE8C00921F007018D46704710B5DA
:100890000446AFF300802046BDE81040FFF7E7BCF8
:1008A000002801D0FFF79CBF7047000010B5012859
:1008B00005D0002103A000F021F8012010BD09A1FE
:1008C000F8E7000053494752544D454D3A204F75C3
:1008D00074206F662068656170206D656D6F727938
:1008E000000000003A2048656170206D656D6F72F0
:1008F0007920636F727275707465640070B5054617
:100900000C460A2000E06D1C00F011F835B1287883
:100910000028F8D102E0641C00F009F814B1207836
:100920000028F8D1BDE870400A20AFF3008008B578
:1009300069468DF800000320ABBE08BDFFE7FEE767
:1009400080B543F60460C2F2000000F01BFE80BDDB
:1009500080B543F60460C2F2000000F013FE80BDD3
:1009600080B543F62C60C2F2000000F00BFE80BDA3
:1009700080B543F62C60C2F2000000F003FE80BD9B
:1009800080B58AB00A460346099008910998006824
:1009900046F20041C4F2000188420792069316D144
:1009A000FFE7099840F27821C2F200010860089838
:1009B0008862099800210591059A059B10F094F82A
:1009C00009980C21059A059B10F08EF819E00998FA
:1009D000006846F60001C4F20001884210D1FFE72A
:1009E000099840F20431C2F2000108600898886258
:1009F0000998702100220492049B10F075F8FFE71B
:100A0000FFE7099801F036FADDF824E002210390AF
:100A1000704600F0D1FA09994FF0100E0290084686
:100A2000714600F0C9FA01900AB080BDB0B590B02F
:100A30009C4696460C4605460F90ADF83A100D922E
:100A4000ADF83230BDF83A000690002007900890CB
:100A50000990BDF832000A900F980D9A06A905ABCF
:100A6000CDF810C0CDF80CE00294019500F0D2FA58
:100A700010B0B0BD80B587B013468C4686468DF861
:100A80001B000591ADF812209DF81B00014623289C
:100A90000393CDF808C0CDF804E000911DD800996B
:100AA000DFE801F012131415161B1B1B1B1B1B1B6D
:100AB0001B1B1B1B1B1B1B1B1B1B1B1B1B1B1B1B86
:100AC0001B1B1B1B1718191A08E007E006E005E0BE
:100AD00004E003E002E001E000E0FFE7002007B0EF
:100AE00080BD00000020704780B584B043F62830F8
:100AF000C2F2000041F6A041C2F2000100220390C0
:100B000002920BF0E3F941F2A041C2F20001039A14
:100B1000019010460BF0B6F902990090084604B017
:100B200080BD000080B58AB00A460346099008914E
:100B3000099943F62830C2F2000007900692059307
:100B40000BF0A0F90799049008460BF035F90999C4
:100B5000089A126840F22043C2F2000303F1300EFB
:100B6000039070460293FFF751FC08990968029AB6
:100B7000A2F86010516E099BDDF820E0DEF800E07D
:100B80000190184600917146009B984700200AB0DA
:100B900080BD000080B586B013468C468646059021
:100BA00004918DF80F2000208DF80E009DF90E00A5
:100BB0000293CDF804C0CDF800E006B080BD00007F
:100BC00080B588B00A4603460690ADF8161000209E
:100BD0008DF8150043F62830C2F20000D0F8BC02B0
:100BE00004900498D0F8140200280392029304D0D1
:100BF000FFE701208DF81F0015E00699BDF81620CB
:100C000043F62830C2F2000001900BF05FF9019921
:100C1000009008460BF082FA8DF815009DF815003B
:100C20008DF81F00FFE79DF81F0008B080BD000091
:100C300080B544F29400C2F2000001F031FA80BDA8
:100C400080B543F65460C2F2000001F029FA80BD7D
:100C500080B543F6B460C2F2000001F021FA80BD15
:100C600080B544F2F400C2F2000001F019FA80BD30
:100C700080B543F61470C2F2000001F011FA80BD95
:100C800080B543F67470C2F2000001F009FA80BD2D
:100C900080B543F6D470C2F2000001F001FA80BDC5
:100CA00080B544F25410C2F2000001F0F9F980BDA1
:100CB00080B544F23400C2F2000001F0F1F980BDC9
:100CC00084B0014603900398007810384AF6AB22AE
:100CD000CAF6AA22A0FB020212090292029A4BF65D
:100CE0008C53C0F601039A5C039BDA65029A042ACE
:100CF0000191009007D3FFE703980168042262F393
:100D00000901816506E00398016840F2FF329143D2
:100D10008165FFE70398806D04B0704787B0014696
:100D2000069000208DF817000698806A04900698B7
:100D300080690028039122D1FFE7049803280290DC
:100D40001BD80299DFE801F0020D02180698C06A6C
:100D5000C001002804D5FFE701208DF81700FFE748
:100D60000CE00698C06AB0F1C07F04D1FFE7012013
:100D70008DF81700FFE701E000E0FFE745E0069887
:100D80008069B0F5005F25D1FFE704980328019042
:100D90001ED80199DFE801F00206021101208DF84A
:100DA000170016E00698C06AC001002804D5FFE7C6
:100DB00001208DF81700FFE70BE00698C06AB0F13C
:100DC000C07F04D1FFE701208DF81700FFE700E0A6
:100DD000FFE719E004980328009004D3FFE7009888
:100DE000032804D00EE001208DF817000BE00698D0
:100DF000C06AC001002804D5FFE701208DF8170064
:100E0000FFE700E0FFE7FFE7FFE79DF8170007B007
:100E100070470000B0B588B09C4696460C46054623
:100E2000079006910592049307980068016821F4E1
:100E300080210160049807990968486007988068D4
:100E40004028CDF80CC0CDF808E00194009509D1F8
:100E5000FFE7059807990968886006980799096867
:100E6000C86008E00698079909688860059807999E
:100E70000968C860FFE708B0B0BD000080B584B065
:100E8000014603904EF6FC50CEF20000026842F09C
:100E90008072026041F20400CEF200000022026083
:100EA00041F20000CEF20000036843F0010303604A
:100EB000039844F24023C0F20F03584340F230330A
:100EC000C2F200031860186844F6D35CC1F2620CE9
:100ED000A0FB0C0C4FEA9C1C40F2343EC2F2000E08
:100EE000CEF800C01B684DF6836CC4F21B3CA3FB1C
:100EF0000C3C4FEA9C4C40F2383EC2F2000ECEF859
:100F000000C040F24C3CC2F2000CCCF80020029130
:100F10000193009004B080BD7047000080B50120AF
:100F200001F0CAFB80BD000080B5082001F0C4FBC1
:100F300080BD000080B5102001F0BEFB80BD000028
:100F400080B5202001F0B8FB80BD000072B6FFE73D
:100F5000FEE7000080B584B047F61020C1F6FF70B0
:100F60000068039047F61420C1F6FF7000680290F5
:100F700047F61820C1F6FF700068019001980399A8
:100F8000084403900398002813D0FFE7039840F229
:100F90007011C2F200018A1C0823009111461A4602
:100FA00007F070FD029800991231042207F06AFDE3
:100FB000FFE704B080BD000086B00A4603460490F7
:100FC0000391049890F820008DF80B009DF80B0019
:100FD00001280192009305D0FFE79DF80B0002283D
:100FE0000AD1FFE70398049909684A6910434861E8
:100FF00000208DF8170008E00498416A41F4802130
:10100000416201208DF81700FFE79DF8170006B038
:1010100070470000B0B58CB09C4696460C4605461D
:101020000A900991089207930A9890F820008DF889
:1010300017000A9800688068049009988068002862
:10104000CDF80CC0CDF808E00194009501D1FFE780
:1010500000E0FFE79DF81700012806D0FFE79DF8A4
:101060001700022840F08280FFE79DF81300400738
:1010700000280CD4FFE79DF813000007002806D4D1
:10108000FFE79DF81300C006002866D5FFE7049827
:10109000C0F3016006900698012101FA00F007995B
:1010A00008600998806800280DD1FFE70998016859
:1010B000C06840EA41500A990968069A01EB02119A
:1010C000C1F880010EE0099841688268C06842EA70
:1010D000C10108430A990968069A01EB0211C1F897
:1010E0008001FFE7099800690A990968069A01EBEF
:1010F0000211C1F884010998007D01280CD1FFE795
:101100000A980068069900EB0110D0F8841141F4A8
:101110008071C0F88411FFE7089840680A9909684F
:10112000069A01EB0211C1F88C01089800680A992F
:101130000968069A01EB0211C1F888010A98006853
:10114000069900EB0110D0F8801141F00101C0F8C0
:10115000801100208DF82F0011E00A98416A41F4B7
:101160000011416201208DF82F0008E00A98416AC1
:1011700041F48021416201208DF82F00FFE79DF8A6
:101180002F000CB0B0BD000088B00A4603460690A0
:101190000591069800680390069890F820008DF855
:1011A0000B009DF80B0001280192009306D0FFE789
:1011B0009DF80B00022840F0B880FFE746F200409F
:1011C000C4F2000003900398D0F8001241F001012E
:1011D000C0F800120398D0F8001221F47C51C0F836
:1011E00000120598406A0399D1F8002242EA0020D3
:1011F000C1F800020598406900F01F00012101FAC2
:1012000000F0049004980399D1F81C2222EA00000F
:10121000C1F81C020598C06900281FD1FFE7049897
:101220000399D1F80C2222EA0000C1F80C020598BB
:101230008188C268406941EA0241039A02EBC0001A
:10124000C0F84012059801888268406941EA02416D
:10125000039A02EBC000C0F84412FFE70598C0698A
:1012600001281ED1FFE704980399D1F80C221043FE
:10127000C1F80C02059881880268406941EA024180
:10128000039A02EBC000C0F8401205988189826879
:10129000406941EA0241039A02EBC000C0F84412DF
:1012A000FFE705988069002809D1FFE704980399B2
:1012B000D1F8042222EA0000C1F8040207E00498F1
:1012C0000399D1F804221043C1F80402FFE70598FE
:1012D0000069002809D1FFE704980399D1F8142286
:1012E00022EA0000C1F8140207E004980399D1F83B
:1012F00014221043C1F81402FFE70598006A012880
:1013000008D1FFE704980399D1F81C221043C1F8D3
:101310001C02FFE70398D0F8001221F00101C0F889
:10132000001200208DF81F0008E00698416A41F481
:101330008021416201208DF81F00FFE79DF81F000A
:1013400008B0704782B001460190009102B070472A
:10135000B0B58AB09C4696460C4605460890079163
:1013600006920593089890F820008DF813009DF8D8
:1013700013000128CDF80CC0CDF808E001940095C9
:1013800006D0FFE79DF81300022840F0ED80FFE74C
:101390000798002811D1FFE708980068C06810F08E
:1013A000030F09D1FFE70898416A41F40011416237
:1013B00001208DF82700E0E010E00898006800693F
:1013C00010F0030F09D1FFE70898416A41F40011BA
:1013D000416201208DF82700CFE0FFE70898006800
:1013E000079900EB0110D0F8B00100F00400069955
:1013F00088600698806800280BD1FFE7089800688D
:10140000079900EB0110D0F8B001400D0699086073
:101410000AE008980068079900EB0110D0F8B001C5
:10142000C00806994860FFE708980068079900EB34
:101430000110D0F8B00100F002000699C8600898C9
:101440000068079900EB0110D0F8B40100F00F001C
:10145000082804D3FFE70698082101610BE00898EB
:101460000068079900EB0110D0F8B40100F00F00FC
:1014700006990861FFE708980068079900EB0110DA
:10148000D0F8B401C0F30720069988610898006875
:10149000079900EB0110D0F8B401000C06994861DF
:1014A00008980068079900EB0110D0F8B801059979
:1014B000087008980068079900EB0110D0F8B8018F
:1014C000000A0599487008980068079900EB011018
:1014D000D0F8B801000C0599887008980068079941
:1014E00000EB0110D0F8B801000E0599C8700898FB
:1014F0000068079900EB0110D0F8BC01059908714C
:1015000008980068079900EB0110D0F8BC01000AA8
:101510000599487108980068079900EB0110D0F808
:10152000BC01000C0599887108980068079900EBC8
:101530000110D0F8BC01000E0599C8710798002869
:1015400007D1FFE708980068C16841F02001C16039
:1015500006E008980068016941F020010161FFE799
:1015600000208DF8270008E00898416A41F48021A6
:10157000416201208DF82700FFE79DF827000AB09F
:10158000B0BD000080B58AB00146099000200890E7
:1015900009980068406907900998006840680690BB
:1015A000099800688068059009980068C0680490F0
:1015B00009980068006903900998006880690290A2
:1015C0009DF81C00C0070028019100F09780FFE7FC
:1015D0009DF81400C00700282BD0FFE70998006889
:1015E000012181609DF814008007002804D5FFE7E1
:1015F000099800F08FFC1BE09DF8140040070028BC
:1016000005D5FFE7089840F4006008900FE09DF8CA
:1016100014000007002805D5FFE7089840F4805023
:10162000089003E0099800F06FFCFFE7FFE7FFE791
:10163000FFE79DF81500C00700282CD0FFE70998A8
:1016400000684FF4807181609DF8150080070028C4
:1016500004D5FFE7099800F069FC1BE09DF8150030
:101660004007002805D5FFE7089840F4005008908F
:101670000FE09DF815000007002805D5FFE7089842
:1016800040F48040089003E0099800F049FCFFE72F
:10169000FFE7FFE7FFE79DF81600C00700282CD002
:1016A000FFE7099800684FF4803181609DF81600CB
:1016B0008007002804D5FFE7099800F043FC1BE0F1
:1016C0009DF816004007002805D5FFE7089840F46C
:1016D000004008900FE09DF816000007002805D58F
:1016E000FFE7089840F48030089003E0099800F084
:1016F00023FCFFE7FFE7FFE7FFE7FFE79DF81C009C
:101700000007002810D5FFE79DF81000C00600284C
:1017100009D5FFE7089840F4007008900998006820
:101720001021C160FFE7FFE79DF81C00400700287B
:101730000FD5FFE79DF810000007002808D5FFE748
:10174000099800680821C160099800F0F5FAFFE7E0
:10175000FFE79DF81C00800700280CD5FFE70998DB
:101760000068C06810F0030F04D0FFE7099800F08C
:10177000E9FAFFE7FFE79DF81C004006002810D5B6
:10178000FFE79DF80C00C006002809D5FFE7089880
:1017900040F4806008900998006810210161FFE71B
:1017A000FFE79DF81C00800600280FD5FFE79DF895
:1017B0000C000007002808D5FFE7099800680821F9
:1017C0000161099800F004FBFFE7FFE79DF81C00AA
:1017D000C00600280CD5FFE709980068006910F0E2
:1017E000030F04D0FFE7099800F0F8FAFFE7FFE7DE
:1017F0009DF81E00800700280FD5FFE79DF8180010
:10180000C006002808D5FFE709980068102141604C
:10181000099800F029FBFFE7FFE79DF81E00C007CD
:1018200000280FD0FFE79DF818000007002808D512
:10183000FFE70998006808214160099800F088FBDB
:10184000FFE7FFE79DF81D000006002840F18F80AC
:10185000FFE79DF818004007002840F18380FFE76C
:101860009DF81D00C00700280BD0FFE79DF8080079
:10187000C007002805D0FFE7089840F00100089055
:10188000FFE79DF81D00800700280BD5FFE79DF8B6
:1018900008008007002805D5FFE7089840F00200FF
:1018A0000890FFE79DF81D00400700280BD5FFE7D3
:1018B0009DF808004007002805D5FFE7089840F08C
:1018C00004000890FFE79DF81D000007002848D598
:1018D000FFE79DF8080010F0700F42D0FFE7029874
:1018E00000F0700001461028009114D0FFE7009826
:1018F000202815D0FFE70098302816D0FFE7009881
:10190000402817D0FFE70098502818D0FFE700982C
:10191000602819D01DE0089840F00800089019E0F0
:10192000089840F01000089014E0089840F020005B
:1019300008900FE0089840F0400008900AE00898EE
:1019400040F08000089005E0089840F4807008900E
:1019500000E0FFE709980068816921F0700181616A
:10196000FFE7FFE70998006804214160FFE7089856
:10197000002809D0FFE7089809994A6A104348628D
:101980000998FFF7DFFCFFE70AB080BD80B584B09F
:101990000146029002980028009104D1FFE701203F
:1019A0008DF80F00E6E0029890F82000002804D19E
:1019B000FFE7029800F0E2F8FFE70298006801688C
:1019C00041F00101016001F0B7F80190FFE70298D2
:1019D0000068406810F0010F17D1FFE701F0ACF884
:1019E000DDF804E0A0EB0E000B280DD3FFE7029812
:1019F000416A41F4003141620298052180F82010CB
:101A000001208DF80F00B5E0E1E702980068016859
:101A100021F00201016001F08FF80190FFE70298C8
:101A20000068406810F0020F17D0FFE701F084F85B
:101A3000DDF804E0A0EB0E000B280DD3FFE70298C1
:101A4000416A41F4003141620298052180F820107A
:101A500001208DF80F008DE0E1E70298007E01285B
:101A600007D1FFE702980068016841F0800101603A
:101A700006E002980068016821F080010160FFE73C
:101A80000298407E012807D1FFE7029800680168AC
:101A900041F04001016006E002980068016821F011
:101AA00040010160FFE70298807E012807D1FFE72F
:101AB00002980068016841F02001016006E0029888
:101AC0000068016821F020010160FFE70298C07EF4
:101AD000012807D1FFE702980068016821F0100192
:101AE000016006E002980068016841F010010160A1
:101AF000FFE70298007F012807D1FFE702980068FE
:101B0000016841F00801016006E002980068016880
:101B100021F008010160FFE70298407F012807D10A
:101B2000FFE702980068016841F00401016006E0E7
:101B300002980068016821F004010160FFE7029843
:101B4000016842688368D0F80CC043EA0C03D0F8FF
:101B500010C043EA0C0340691843013A1043C861BE
:101B60000298002141620298012280F820208DF81D
:101B70000F10FFE79DF80F0004B080BD80B598B04E
:101B80000146179000201690159014901390129013
:101B90001798006846F20042C4F2000290420C918D
:101BA00055D1FFE740F25030C2F200000168013128
:101BB00001600068012813D1FFE7FFE700201190C2
:101BC00043F64000C4F20200016841F00071016078
:101BD000006800F00070119011980B90FFE7FFE78C
:101BE000FFE70020109043F63000C4F202000168C5
:101BF00041F008010160006800F0080010901098A2
:101C00000A90FFE703201290022113910021149102
:101C100015900920169040F60040C4F2020012AA66
:101C20000991114600F066FD142008900999099A5F
:101C300001F0ACFD089801F09DFD15200790099971
:101C4000099A01F0A3FD079801F094FD72E017983E
:101C5000006846F60001C4F20001884269D1FFE73E
:101C6000FFE700200F9043F64000C4F20200016835
:101C700041F080610160006800F080600F900F9873
:101C80000690FFE740F25030C2F2000001680131D7
:101C900001600068012813D1FFE7FFE700200E90E4
:101CA00043F64000C4F20200016841F00071016097
:101CB000006800F000700E900E980590FFE7FFE7B7
:101CC000FFE700200D9043F63000C4F202000168E7
:101CD00041F002010160006800F002000D900D98D3
:101CE0000490FFE7602012900220139000201490CF
:101CF000032115910921169140F20041C4F202011D
:101D000012AA03900846114600F0F4FC402002900D
:101D10000399039A01F03AFD029801F02BFD41204E
:101D200001900399039A01F031FD019801F022FD21
:101D3000FFE7FFE718B080BD82B001460190009137
:101D400002B0704780B588B00146079007980068D8
:101D500046F20042C4F200029042069116D1FFE71B
:101D6000079840F27821C2F200010A1D01F1200318
:101D70004FF0000C059161460492FFF7E9FA0599CE
:101D80008A6A049B0390184690471FE007980068F2
:101D900046F60001C4F20001884216D1FFE7079819
:101DA00040F20431C2F200010A1D01F120034FF09C
:101DB000000C029161460192FFF7CAFA02998A6A01
:101DC000019B009018469047FFE7FFE708B080BDF1
:101DD00082B001460190009102B0704780B588B092
:101DE000014607900798006846F20042C4F20002DC
:101DF0009042069116D1FFE7079840F27821C2F28F
:101E000000010A1D01F120034FF0010C059161460C
:101E10000492FFF79DFA05998A6A049B039018467D
:101E200090471FE00798006846F60001C4F20001E1
:101E3000884216D1FFE7079840F20431C2F2000150
:101E40000A1D01F120034FF0010C0291614601923D
:101E5000FFF77EFA02998A6A019B00901846904724
:101E6000FFE7FFE708B080BD82B001460190009116
:101E700002B0704780B584B001460290029890F895
:101E800020000128009132D1FFE70298022180F85A
:101E9000201002980068016821F00101016000F043
:101EA0004BFE0190FFE702980068406810F0010FB8
:101EB00017D0FFE700F040FEDDF804E0A0EB0E00D5
:101EC0000B280DD3FFE70298416A41F400314162CB
:101ED0000298052180F8201001208DF80F000FE0F6
:101EE000E1E70298002141628DF80F1008E00298A6
:101EF000416A41F40021416201208DF80F00FFE7A3
:101F00009DF80F0004B080BD82B0014601900091A1
:101F100002B0704782B001460190009102B0704754
:101F200082B001460190009102B0704782B0014634
:101F30000190009102B0704782B00146019000917B
:101F400002B0704782B001460190009102B0704724
:101F500082B001460190009102B0704780B586B012
:101F6000014604900498806D0390019100F0E4FD17
:101F70000290049890F8350002280DD0FFE70498ED
:101F800080214165FFE70498002180F83410FFE7C5
:101F900001208DF817005BE004980068016821F0CB
:101FA0001601016004980068416921F080014161D7
:101FB0000498006C002805D1FFE70498806C002885
:101FC00007D0FFE704980068016821F0080101606C
:101FD000FFE704980068016821F001010160FFE754
:101FE00004980068006810F0010F1BD0FFE700F0B4
:101FF000A3FDDDF808E0A0EB0E00062811D3FFE7F3
:102000000498202141650498032180F83510FFE7EA
:102010000498002180F83410FFE703208DF81700A2
:1020200016E0DDE70498C06D3F2101FA00F0039946
:1020300088600498012180F83510FFE7049800219A
:1020400080F83410FFE7FFE700208DF81700FFE766
:102050009DF8170006B080BD83B00146019001983D
:1020600090F835000228009107D0FFE70198802101
:10207000416501208DF80B000EE00198052180F8E4
:10208000351001980068016821F001010160FFE747
:1020900000208DF80B00FFE79DF80B0003B07047A0
:1020A00080B588B0014607900020059040F2B80046
:1020B000C2F20000006848F2B512C1F64E32A0FB31
:1020C0000202920A0492079A926D0392039A12688E
:1020D0000692069A079BDB6D4FF0080C0CFA03F38F
:1020E0001A42029101901BD0FFE707980068006830
:1020F00010F0040F13D0FFE707980068016821F083
:10210000040101600798C06D082101FA00F00399ED
:1021100088600798416D41F001014165FFE7FFE7E5
:1021200006980799C96D012202FA01F1084215D0FB
:10213000FFE707980068406910F0800F0DD0FFE7B7
:102140000798C06D012101FA00F003998860079893
:10215000416D41F002014165FFE7FFE706980799ED
:10216000C96D042202FA01F1084215D0FFE7079871
:102170000068006810F0020F0DD0FFE70798C06DEF
:10218000042101FA00F0039988600798416D41F03D
:1021900004014165FFE7FFE706980799C96D102222
:1021A00002FA01F108424BD0FFE707980068006887
:1021B00010F0080F43D0FFE70798C06D102101FA17
:1021C00000F00399886007980068006810F4802F79
:1021D0001CD0FFE707980068006810F4002F0AD1B0
:1021E000FFE70798006C002804D0FFE70798016C10
:1021F0008847FFE709E00798806C002804D0FFE7D4
:102200000798816C8847FFE7FFE717E007980068A9
:10221000006810F4807F07D1FFE707980068016825
:1022200021F008010160FFE70798006C002804D046
:10223000FFE70798016C8847FFE7FFE7FFE7FFE745
:1022400006980799C96D202202FA01F1084200F0B0
:102250009580FFE707980068006810F0100F00F005
:102260008C80FFE70798C06D202101FA00F00399E8
:102270008860079890F83500052838D1FFE707985F
:102280000068016821F01601016007980068416943
:1022900021F0800141610798006C002805D1FFE71B
:1022A0000798806C002807D0FFE70798006801684E
:1022B00021F008010160FFE70798C06D3F2101FA96
:1022C00000F0039988600798012180F83510FFE736
:1022D0000798002180F83410FFE70798006D002868
:1022E00004D0FFE70798016D8847FFE781E0079872
:1022F0000068006810F4802F1CD0FFE70798006882
:10230000006810F4002F0AD1FFE70798406C0028FE
:1023100004D0FFE70798416C8847FFE709E007987A
:10232000C06B002804D0FFE70798C16B8847FFE720
:10233000FFE721E007980068006810F4807F11D162
:10234000FFE707980068016821F010010160079815
:10235000012180F83510FFE70798002180F834103C
:10236000FFE7FFE70798C06B002804D0FFE7079856
:10237000C16B8847FFE7FFE7FFE7FFE70798406D7E
:10238000002836D0FFE70798406D10F0010F26D0E7
:10239000FFE70798052180F8351007980068016865
:1023A00021F001010160FFE70598013005900499D3
:1023B000884201D9FFE707E0FFE707980068006857
:1023C00010F0010FF0D1FFE70798012180F83510D8
:1023D000FFE70798002180F83410FFE7FFE7079830
:1023E000C06C002804D0FFE70798C16C8847FFE75E
:1023F000FFE708B080BD000080B586B001460490BC
:1024000000200390009100F097FB029004980028B0
:1024100004D1FFE701208DF81700AAE00498406A74
:10242000002801D0FFE7FFE70498022180F835106B
:10243000FFE70498002180F83410FFE70498006853
:10244000016821F001010160FFE70498006800685D
:1024500010F0010F14D0FFE700F06EFBDDF808E08C
:10246000A0EB0E0006280AD3FFE70498202141655F
:102470000498032180F835108DF8171079E0E4E70F
:102480000498006800680390039848F23F01CFF277
:10249000100108400390049841688268C368D0F82E
:1024A00010C01143194341EA0C014269114382698A
:1024B0001143C2691143006A08430399084303901A
:1024C0000498406A042808D1FFE70498C16A006BA9
:1024D0000843039908430390FFE7039804990968A8
:1024E00008600498006840690390039820F0070092
:1024F00003900498406A0399084303900498406A43
:1025000004281CD1FFE70498806A039908430390CC
:102510000498C06A002811D0FFE70498FEF7FEFB7C
:1025200000280AD0FFE70498402141650498012162
:1025300080F835108DF817101BE0FFE7FFE70398D0
:102540000499096848610498FEF7BAFB0190049861
:10255000C06D3F2101FA00F00199886004980021C4
:10256000416504984FF0010E80F835E08DF81710A2
:10257000FFE79DF8170006B080BD0000B0B58CB035
:102580009C4696460C4605460A9009910892079388
:1025900000208DF81B000A98806D0590CDF810C0C2
:1025A000CDF80CE002940195FFE70A9890F834000A
:1025B000012804D1FFE702208DF82F0047E00A9898
:1025C000012180F83410FFE7FFE70A9890F8350002
:1025D00001282DD1FFE70A98022180F835100A98CA
:1025E000002141650A980999089A079BFEF712FC99
:1025F0000A98C06D3F2101FA00F0059988600A9899
:102600000068016841F0160101600A98006C00281A
:1026100007D0FFE70A980068016841F008010160EF
:10262000FFE70A980068016841F00101016009E0D4
:10263000FFE70A98002180F83410FFE702208DF8A8
:102640001B00FFE79DF81B008DF82F00FFE79DF8AA
:102650002F000CB0B0BD000080B584B001460390DF
:10266000009100F069FA02900398019001980130FE
:10267000002809D0FFE740F2B010C2F20000007855
:10268000019908440190FFE7FFE700F055FADDF8F3
:1026900008E0A0EB0E00DDF804E0704501D2FFE792
:1026A000F3E704B080BD000082B00146ADF806003B
:1026B000009102B07047000080B582B00146ADF8CD
:1026C000060043F61440C4F201000068BDF806207D
:1026D000104200910CD0FFE7BDF8060043F614410C
:1026E000C4F201010860BDF80600FFF7DDFFFFE757
:1026F00002B080BD91B00A46034610900F910020B1
:102700000D900C900B900E9009920893FFE70E9895
:102710000F2800F2D581FFE70E98012101FA00F0A1
:102720000D900F9800680D9908400C900C980D9929
:10273000884240F0C081FFE70F98406800F0030036
:10274000012807D0FFE70F98406800F00300022837
:102750002FD1FFE7109880680B900E98400003215E
:1027600001FA00F00B9921EA00000B900F98C06865
:102770000E99490088400B9908430B900B981099CB
:102780008860109840680B900E98012101FA00F0C3
:102790000B9921EA00000B900F984068C0F30010DD
:1027A0000E9988400B9908430B900B98109948603C
:1027B000FFE70F98406800F00300032818D0FFE7F8
:1027C0001098C0680B900E984000032101FA00F0A9
:1027D0000B9921EA00000B900F9880680E99490030
:1027E00088400B9908430B900B981099C860FFE73D
:1027F0000F98406800F00300022828D1FFE71098E6
:102800000E994FF6FC72C7F6FF7202EA51010844B6
:10281000006A0B900E9800F0070080000F2101FA6B
:1028200000F00B9921EA00000B900F9800690E99B7
:1028300001F00701890088400B9908430B900B9821
:1028400010990E9B02EA530211440862FFE71098A8
:1028500000680B900E984000032101FA00F00B99DC
:1028600021EA00000B900F98406800F003000E99D9
:10287000490088400B9908430B900B981099086009
:102880000F9880798007002800F01481FFE7FFE7A8
:1028900000200A9043F64400C4F20200016841F4AB
:1028A00080410160006800F480400A900A98079017
:1028B000FFE70E9820F0030043F60801C4F201017F
:1028C00040580B900E9800F0030080000F2101FA91
:1028D00000F00B9921EA00000B9010980021C4F23F
:1028E0000201884203D1FFE7002006905EE01098C5
:1028F00040F20041C4F20201884203D1FFE7012007
:10290000059050E0109840F60001C4F202018842A0
:1029100003D1FFE70220049042E0109840F6004106
:10292000C4F20201884203D1FFE70320039034E0A0
:10293000109841F20001C4F20201884203D1FFE77E
:102940000420029026E0109841F20041C4F20201F6
:10295000884203D1FFE70520019018E0109841F666
:102960000001C4F20201884203D1FFE70620009073
:102970000AE0109841F60041C4F2020108228842A0
:1029800008BF07220092FFE700980190FFE7019837
:102990000290FFE702980390FFE703980490FFE797
:1029A00004980590FFE705980690FFE70698C0B2E7
:1029B0000E9901F00301890088400B9908430B90A0
:1029C0000B980E9921F0030143F60802C4F20102AC
:1029D000885043F60840C4F2010000680B900C9840
:1029E0000B9921EA00000B900F988079C00600280F
:1029F00005D5FFE70C980B9908430B90FFE70B9860
:102A000043F60841C4F20101086043F60C40C4F2E9
:102A1000010000680B900C980B9921EA00000B90C4
:102A20000F9880798006002805D5FFE70C980B9950
:102A300008430B90FFE70B9843F60C41C4F20101E9
:102A4000086043F60440C4F2010000680B900C9843
:102A50000B9921EA00000B900F98807980070028DD
:102A600005D5FFE70C980B9908430B90FFE70B98EF
:102A700043F60441C4F20101086043F60040C4F289
:102A8000010000680B900C980B9921EA00000B9054
:102A90000F988079C007002805D0FFE70C980B99A4
:102AA00008430B90FFE70B9843F60041C4F2010185
:102AB0000860FFE7FFE7FFE70E9801300E9026E67B
:102AC00011B0704785B00A4603460490ADF80E1069
:102AD0000498406902900298BDF80E1000EA010CBB
:102AE00021EA000040EA0C400499886101920093B9
:102AF00005B0704780B585B013468C468646049075
:102B0000ADF80E108DF80D209DF80D0000280293F1
:102B1000CDF804C0CDF800E005D0FFE7BDF80E0009
:102B20000499886105E0BDF80E00000404998861ED
:102B3000FFE705B080BD000044F6E410C2F20000DB
:102B40000068704780B590B001460E900E9800283E
:102B50000B9104D1FFE701208DF83F004FE10E9863
:102B600090F83D00002808D1FFE70E98002180F87A
:102B70003C100E9800F0A0FCFFE70E98242180F88E
:102B80003D100E980068016821F0010101600E9867
:102B90000068016841F4004101600E980068016816
:102BA00021F40041016002F0BDF90C900E984068DC
:102BB00048F2A061C0F2010188420BD8FFE70C98EF
:102BC00048F28041C0F21E010022884238BF012233
:102BD0000A920AE00C9840F60011C0F23D01002272
:102BE000884238BF01220A92FFE70A98012804D1DF
:102BF000FFE701208DF83F0001E10C984DF683615D
:102C0000C4F21B31A0FB0101890C0D910E990968DA
:102C1000496821F03F010D9A11430E9A12685160E4
:102C20000E990968096A21F03F010E9A526848F22C
:102C3000A063C0F201039A420990089104D8FFE70B
:102C40000D98013007900FE00D984FF496714843AE
:102C500044F6D351C1F26201A0FB0101012202EB53
:102C6000911106900791FFE70798089908430E9A7B
:102C7000126810620E980068C0694CF6FF729043AB
:102C80000E9A526848F2A063C0F201039A4205907E
:102C90001FD8FFE70C9801380E9949684900B0FB2E
:102CA000F1F001306FF31F30032803D8FFE7042051
:102CB00004900BE00C9801380E9949684900B0FB6C
:102CC000F1F001306FF31F300490FFE70498039098
:102CD0004FE00E98806800280DD1FFE70C9801386E
:102CE0000E99496801EB4101B0FBF1F001306FF33F
:102CF0001F3002900DE00C9801380E994968192296
:102D00005143B0FBF1F00130042161F31F30029018
:102D1000FFE702980005002803D1FFE7012001909A
:102D200024E00E98806800280DD1FFE70C98013848
:102D30000E99496801EB4101B0FBF1F001306FF3EE
:102D40001F3000900DE00C9801380E994968192247
:102D50005143B0FBF1F00130042161F31F300090CA
:102D6000FFE7009840F400400190FFE701980390CE
:102D7000FFE70398059908430E9A1268D0610E98F0
:102D80000068006820F0C0000E9A1368D2F81CC0DA
:102D9000126A42EA0C02104318600E9800688068BC
:102DA00048F2FF3290430E9A1368D2F80CC01269B1
:102DB00042EA0C02104398600E980068C06820F048
:102DC000FF000E9A1368D2F814C0926942EA0C020E
:102DD0001043D8600E980068026842F00102026059
:102DE0000E98002202640E98202380F83D300E9841
:102DF00002630E9880F83E208DF83F20FFE79DF893
:102E00003F0010B080BD00002DE9F04196B0DDF824
:102E100078C0DDF874E01C9C1D4616460F468046BF
:102E20001490ADF84E10ADF84C20ADF84A30ADF826
:102E300048E00C950B960A97CDF82480CDF820C079
:102E40000794FFF779FE1190149890F83D00202820
:102E500040F00D82FFE7149811996A461160022133
:102E6000C0F210010122192305F098FA002804D0BD
:102E7000FFE702208DF85700FDE1FFE7149890F876
:102E80003C00012804D1FFE702208DF85700F2E151
:102E90001498012180F83C10FFE7FFE714980068C0
:102EA000006800F00100012807D0FFE714980068CF
:102EB000016841F001010160FFE7149800680168B2
:102EC00021F4006101601498222180F83D101498CB
:102ED000402180F83E101498002101641C98149938
:102EE0004862BDF84800149948851498408D14999B
:102EF000088514980021CFF6FF71C16214981E99BD
:102F0000119ABDF84A30BDF84CC0BDF84EE06C4691
:102F1000626021607146624605F024F8002804D002
:102F2000FFE701208DF85700A5E11498008D0028D7
:102F300015D1FFE7FFE70020109014980068406962
:102F40001090149800688069109010980690FFE720
:102F500014980068016841F40071016050E0149811
:102F6000008D01281BD1FFE714980068016821F447
:102F700080610160FFE700200F90149800684069AD
:102F80000F901498006880690F900F980590FFE7E4
:102F900014980068016841F4007101602FE01498F2
:102FA000008D02281BD1FFE714980068016821F406
:102FB0008061016014980068016841F4006101605B
:102FC000FFE700200E901498006840690E90149856
:102FD000006880690E900E980490FFE70EE0FFE70E
:102FE00000200D901498006840690D9014980068B6
:102FF00080690D900D980390FFE7FFE7FFE7FFE77B
:10300000FFE71498008D002800F01F81FFE7149857
:10301000008D032800F2D080FFE71498008D01286E
:103020001FD1FFE714981E99119A05F005FB00289F
:1030300004D0FFE701208DF857001CE114980068C8
:1030400000691499496A08701498416A0131416213
:103050001498018D013901851498418D01394185FC
:10306000A9E01498008D02283DD1FFE714981E9B1B
:1030700011996A4611600421C0F20101002205F095
:103080008DF9002804D0FFE701208DF85700F2E009
:1030900014980068016841F4007101601498006898
:1030A00000691499496A08701498416A01314162B3
:1030B0001498018D013901851498418D013941859C
:1030C0001498006800691499496A08701498416A54
:1030D000013141621498018D013901851498418DA7
:1030E0000139418566E014981E9B11996A4611606A
:1030F0000421C0F20101002205F050F9002804D09B
:10310000FFE701208DF85700B5E0149800680168CA
:1031100021F4806101601498006800691499496A7B
:1031200008701498416A013141621498018D013987
:1031300001851498418D0139418514981E9B119980
:103140006A4611600421C0F20101002205F026F94F
:10315000002804D0FFE701208DF857008BE0149879
:103160000068016841F4007101601498006800690A
:103170001499496A08701498416A0131416214989F
:10318000018D013901851498418D013941851498CB
:10319000006800691499496A08701498416A0131FD
:1031A00041621498018D013901851498418D0139CE
:1031B0004185FFE7FFE747E014981E99119A05F053
:1031C0003BFA002804D0FFE701208DF8570052E0B9
:1031D0001498006800691499496A08701498416A43
:1031E000013141621498018D013901851498418D96
:1031F0000139418514980068406900F004000121FC
:10320000B1EB900F1FD1FFE71498008D032807D171
:10321000FFE714980068016821F480610160FFE70E
:103220001498006800691499496A08701498416AF2
:10323000013141621498018D013901851498418D45
:1032400001394185FFE7FFE7DBE61498202180F88C
:103250003D101498002180F83E10FFE714980021DB
:1032600080F83C10FFE700208DF8570003E00220B3
:103270008DF85700FFE79DF8570016B0BDE8F081C4
:103280002DE9F0418EB0DDF858C0DDF854E0149C13
:103290001D4616460F4680460C90ADF82E10ADF830
:1032A0002C20ADF82A30ADF828E00895079606974F
:1032B000CDF81480CDF810C00394FFF73DFC0990C1
:1032C0000C9890F83D00202840F0EC80FFE70C9827
:1032D00009996A4611600221C0F2100101221923E6
:1032E00005F05CF8002804D0FFE702208DF83700D5
:1032F000DCE0FFE70C9890F83C00012804D1FFE7E0
:1033000002208DF83700D1E00C98012180F83C10A4
:10331000FFE7FFE70C980068006800F00100012853
:1033200007D0FFE70C980068016841F001010160D7
:10333000FFE70C980068016821F4006101600C98B7
:10334000212180F83D100C98402180F83E100C9807
:103350000021016414980C994862BDF828000C996A
:1033600048850C98408D0C9908850C980021CFF663
:10337000FF71C1620C981699099ABDF82A30BDF800
:103380002CC0BDF82EE06C4662602160714662463A
:1033900004F0F0FE002804D0FFE701208DF837008C
:1033A00084E0FFE70C98008D00284BD0FFE70C98D5
:1033B0001699099A05F0BAF9002810D0FFE70C9881
:1033C000006C042807D1FFE70C980068016841F4FD
:1033D00000710160FFE701208DF8370066E00C986E
:1033E0000168406A007808610C98416A01314162C5
:1033F0000C98018D013901850C98418D0139418569
:103400000C980068406900F004000121B1EB900FB6
:1034100017D1FFE70C98008D002812D0FFE70C9819
:103420000168406A007808610C98416A0131416284
:103430000C98018D013901850C98418D0139418528
:10344000FFE7AFE70C981699099A04F043FF0028AC
:1034500010D0FFE70C98006C042807D1FFE70C9808
:103460000068016841F400710160FFE701208DF8F8
:1034700037001BE00C980068016841F4007101609E
:103480000C98202180F83D100C98002180F83E1007
:10349000FFE70C98002180F83C10FFE700208DF832
:1034A000370003E002208DF83700FFE79DF8370072
:1034B0000EB0BDE8F081000080B592B001461190D9
:1034C000002010900F900E900D900C9011980068B5
:1034D00045F60042C4F200029042089140F0B780E5
:1034E000FFE7FFE700200B9043F63000C4F2020034
:1034F000016841F004010160006800F004000B90D5
:103500000B980790FFE7FFE700200A9043F6300092
:10351000C4F20200016841F001010160006800F09E
:1035200001000A900A980690FFE74FF400700C9093
:1035300012200D9001210E9103220F92042310936B
:1035400040F6000CC4F2020C0DF1300E05906046FE
:1035500004917146CDF80CE002930192FFF7CAF88E
:103560004FF480700C9005980D9004990E91019A7B
:103570000F92029B10930020C4F202000399FFF700
:10358000B9F8FFE70020099043F64000C4F20200BA
:10359000016841F400010160006800F40000099036
:1035A00009980090FFE743F65460C2F2000046F22B
:1035B0004001C4F2020101604FF0C061416000218E
:1035C0008160C1604FF48062026141618161C161CB
:1035D00001624162FEF710FF002803D0FFE7FDF70C
:1035E000B5FCFFE7FFE7119843F65461C2F2000112
:1035F000816311988863FFE743F6B460C2F200006C
:1036000046F27001C4F2020101604FF0C0614160F6
:10361000402181600021C1604FF4806202614161FC
:103620008161C16101624162FEF7E6FE002803D0BC
:10363000FFE7FDF78BFCFFE7FFE7119843F6B46166
:10364000C2F20001416311988863FFE7FFE712B0FF
:1036500080BD000040F2B010C2F20000007844F6D5
:10366000E411C2F200010A681044086070470000CB
:1036700080B582B043F60040C4F20200016841F414
:1036800000710160016841F480610160016841F4EA
:1036900080710160032000F09DF80F2000F006F813
:1036A000019000F03FF8002002B080BD80B584B0EA
:1036B0000146029040F2B800C2F20000006840F2F9
:1036C000B012C2F2000212784FF47A73B3FBF2F236
:1036D000B0FBF2F0019102F031FD002804D0FFE7C9
:1036E00001208DF80F0018E002980F280DD8FFE791
:1036F00002994FF0FF30002200F048F8029840F2A3
:10370000B411C2F20001086003E001208DF80F003F
:1037100003E000208DF80F00FFE79DF80F0004B0D4
:1037200080BD000084B0FFE70020039043F6440012
:10373000C4F20200016841F480410160006800F4B5
:103740008040039003980190FFE7FFE7002002907C
:1037500043F64000C4F20200016841F0805101606C
:10376000006800F08050029002980090FFE704B0DB
:103770007047000080B582B001468DF807009DF9C2
:103780000700009116F058FD02B080BD80B58AB0E8
:1037900013468C4686468DF8270008910792002034
:1037A00006900593CDF810C0CDF80CE016F060FD42
:1037B000069006980899079A9DF92730029305F01C
:1037C0002DFE029901900846019916F059FD0AB0A4
:1037D00080BD000080B582B0014601900198009143
:1037E00016F074FD02B080BD84B00A460346039013
:1037F0008DF80B100192009304B0704784B00A4614
:1038000003460390ADF80A10BDF80A000399096851
:10381000486200200192009304B0704780B587B0E1
:1038200013468C46864606908DF81710ADF8142086
:1038300006980068406A03909DF8170000280293DC
:10384000CDF804C0CDF800E009D1FFE7BDF81400C1
:10385000039941EA004006990968886233E00698B6
:103860000068806A039901EB1040039000208DF8F6
:103870001300FFE79DF813009DF8171001398842E7
:1038800013D2FFE7069800689DF8131000EB810043
:10389000D0F80401039901EB10400390FFE79DF875
:1038A000130001308DF81300E4E7BDF8140003990C
:1038B00041EA0040069909689DF8172001EB820152
:1038C000C1F80001FFE7002007B080BD80B584B0DB
:1038D000014603900398D0F8E004029109F0E2FB5E
:1038E000019004B080BD000080B586B00A46034652
:1038F00005908DF813100598D0F8E0149DF813C0CA
:103900000CEBCC0E00EB8E00006A0390084661467B
:10391000DDF80CC002926246019309F0EBF90090C9
:1039200006B080BD80B586B00A46034605908DF886
:1039300013100598D0F8E0149DF813C00CEBCC0ED2
:1039400000EB8E00D0F86002039008466146DDF877
:103950000CC002926246019309F0B2FA009006B0E0
:1039600080BD000080B584B0014603900398D0F874
:10397000E004029109F09EFB019004B080BD0000BC
:1039800080B586B00A46034605908DF813109DF861
:10399000130000060028029201930CD5FFE705985A
:1039A0009DF8131001F00F0101EBC10100EB810044
:1039B000143003900CE005989DF8131001F00F01EE
:1039C00001EBC10100EB810000F515700390FFE7EA
:1039D0000598006803990BF04DFA8DF812009DF8D8
:1039E000120006B080BD000080B588B00A460346CC
:1039F00006908DF817109DF8170000060028039216
:103A000002930FD5FFE706989DF8171001F00F01FC
:103A100001EBC10100EB81001430049004980121F6
:103A200041700FE006989DF8171001F00F0101EBAF
:103A3000C10100EB810000F515700490049800218D
:103A40004170FFE79DF8170000F00F00049908701F
:103A5000FFE7069890F89404012804D1FFE70220BC
:103A60008DF81F0015E00698012180F89414FFE7F7
:103A7000FFE70698006804990AF0A0FC0190FFE7B0
:103A80000698002180F89414FFE700208DF81F00AD
:103A9000FFE79DF81F0008B080BD000080B588B02A
:103AA0000A46034606908DF817109DF8170000F09F
:103AB0000F000699097988420392029304D9FFE71F
:103AC00001208DF81F004EE09DF817000006002829
:103AD0000FD5FFE706989DF8171001F00F0101EBD5
:103AE000C10100EB81001430049004980121417061
:103AF0000FE006989DF8171001F00F0101EBC101CE
:103B000000EB810000F515700490049800214170CD
:103B1000FFE70498002181709DF8170000F00F0066
:103B200004990870FFE7069890F89404012804D1DE
:103B3000FFE702208DF81F0015E00698012180F8AC
:103B40009414FFE7FFE70698006804990AF0DAFE8C
:103B50000190FFE70698002180F89414FFE7002009
:103B60008DF81F00FFE79DF81F0008B080BD000022
:103B700084B00A46034603908DF80B1003989DF815
:103B80000B1001F00F0101EBC10100EB8100D0F837
:103B900068020192009304B070470000B0B58AB08B
:103BA0009C4696460C46054608908DF81F10ADF8C9
:103BB0001C208DF81B3000208DF81A009DF81F0086
:103BC00000060028CDF810C0CDF80CE00294019555
:103BD0000FD5FFE708989DF81F1001F00F0101EBCA
:103BE000C10100EB8100143005900598012141705E
:103BF0000FE008989DF81F1001F00F0101EBC101C3
:103C000000EB810000F515700590059800214170CA
:103C1000FFE79DF81F0000F00F0005990870BDF840
:103C20001C00059988609DF81B000599087105988E
:103C30004078002804D0FFE7059801784183FFE72A
:103C40009DF81B00022804D1FFE70598002141716F
:103C5000FFE7FFE7089890F89404012804D1FFE7F4
:103C600002208DF8270016E00898012180F89414AE
:103C7000FFE7FFE70898006805990AF05FFA0090EF
:103C8000FFE70898002180F89414FFE79DF81A00D8
:103C90008DF82700FFE79DF827000AB0B0BD0000AF
:103CA000B0B58CB09C4696460C4605460B908DF8F8
:103CB0002B10099208930B989DF82B1001F00F011F
:103CC00001EBC10100EB810000F515700790099828
:103CD0000799C86008980799086107980021416111
:103CE000079841709DF82B0000F00F0007990870AD
:103CF0000B9880790128CDF818C0CDF814E0049411
:103D0000039504D1FFE709980799C861FFE70B986D
:103D10000168079A8079029008461146029A0AF0D3
:103D2000A1FE0021019008460CB0B0BD80B58AB05C
:103D30000A46034608908DF81F109DF81F0000F0FA
:103D40000F000899097988420592049304D9FFE786
:103D500001208DF827005EE09DF81F000006002876
:103D60000FD5FFE708989DF81F1001F00F0101EB38
:103D7000C10100EB810014300690069801214170CA
:103D80000DE008989DF81F1001EBC10100EB8100C8
:103D900000F515700690069800214170FFE706981F
:103DA000012181709DF81F0000F00F000699087036
:103DB000FFE7089890F89404012804D1FFE7022057
:103DC0008DF8270027E00898012180F89414FFE778
:103DD000FFE70898006806990AF0E8FD9DF81F10B3
:103DE0000907002903900CD1FFE70898016800F249
:103DF0009C4280790290084602990AF029FD0190C0
:103E0000FFE7FFE70898002180F89414FFE70020FF
:103E10008DF82700FFE79DF827000AB080BD00005D
:103E2000B0B58CB09C4696460C4605460B908DF876
:103E30002B10099208930B989DF82B1001F00F019D
:103E400001EBC10100EB810014300790099807993C
:103E5000C860089807990861079800214161079890
:103E6000012141709DF82B0000F00F0007990870A8
:103E70000B9880790128CDF818C0CDF814E004948F
:103E8000039504D1FFE709980799C861FFE70B98EC
:103E90000168079A8079029008461146029A0AF052
:103EA000E1FD0021019008460CB0B0BD80B59CB08A
:103EB00001461B901B9800681A901A9819901B983D
:103EC000006811910BF01EF9002840F02884FFE7EC
:103ED0001B9800680BF09CF9002802D1FFE700F066
:103EE0001EBC1998D0F80808C0F30D201B99C1F822
:103EF000D4041B9800680BF08BF910F0020F07D068
:103F0000FFE71B980068416901F002014161FFE78A
:103F10001B9800680BF07CF910F0100F65D0FFE7DC
:103F20001B980068816921F0100181611A98006A6C
:103F300012901B98129901F00F0101EBC10100EBE7
:103F4000810000F515701890129800F4F01002210D
:103F5000B1EB504F25D1FFE7BDF8480047F6F071AF
:103F600008421DD0FFE71A981899C968129AC2F33F
:103F70000A120BF05DF9129947F6F0721140DDF864
:103F800060E0DEF80C3003EB1111CEF80C10129942
:103F90001140189A536903EB111151611090FFE71A
:103FA0001CE0129800F4F0100621B1EB504F13D131
:103FB000FFE71A981B9901F29C4108220BF038F98F
:103FC000129947F6F0721140189AD2F814E00EEBED
:103FD000111151610F9000E0FFE7FFE71B980068A7
:103FE000816941F010018161FFE71B9800680BF0C7
:103FF0000FF910F4002F00F0A380FFE700201490C9
:104000001B9800680BF0A8F81690FFE71698002898
:1040100000F09580FFE79DF85800C007002800F0E9
:104020008780FFE71B9800689DF850100BF0D4F8CC
:1040300015901598C00700280DD0FFE7199814991E
:1040400000EB41100121C0F8081B1B98149905F0E2
:1040500079FA0E90FFE71598000700280DD5FFE7C5
:104060001998149900EB41100821C0F8081B1B98FF
:10407000149905F01BFA0D90FFE71598C00600286B
:1040800008D5FFE71998149900EB41101021C0F8EA
:10409000081BFFE71598800700282DD5FFE71A9821
:1040A000406910F0800F08D0FFE71998D0F8041885
:1040B00041F48061C0F80418FFE71B98149901EBE4
:1040C000C10100EB810000F5157018901898C078B8
:1040D000012809D1FFE718980021C1701B989DF8AD
:1040E000501000F033FBFFE71998149900EB4110D2
:1040F0000221C0F8081BFFE715988006002808D5A4
:10410000FFE71998149900EB41102021C0F8081B13
:10411000FFE715988004002809D5FFE7199814993E
:1041200000EB41104FF40051C0F8081BFFE7FFE718
:1041300014980130149016984008169066E7FFE72F
:104140001B9800680BF064F810F4802F00F0CA8010
:10415000FFE71B9800680AF0EBFF16900020149010
:10416000FFE71698002800F0BC80FFE79DF8580094
:10417000C007002800F0AE80FFE71B9800689DF89C
:1041800050100AF0FDFF15901598C007002845D083
:10419000FFE7149800F00F00012101FA00F01390DE
:1041A0001398199AD2F8343823EA0000C2F8340878
:1041B0001998149A00EB4210C0F808191B988079DE
:1041C000012825D1FFE71B98149901EBC10100EBF1
:1041D0008100C169026A114401621498002816D155
:1041E000FFE71B98149901EBC10100EB8100406AC5
:1041F00000280CD1FFE71B98016800F29C420120C7
:104200000C9008460C990AF023FB0B90FFE7FFE7A0
:104210001B989DF85010FFF767FBFFE71598000704
:10422000002808D5FFE71998149900EB41100821E0
:10423000C0F80819FFE71598C006002808D5FFE761
:104240001998149900EB41101021C0F80819FFE7E4
:1042500015984006002808D5FFE71998149900EB37
:1042600041104021C0F80819FFE715988007002881
:1042700024D5FFE71A9814990AF0D8FE1B99DDF8A7
:1042800050E00EEBCE0E01EB8E011431189118990F
:10429000C97801290A9009D1FFE718980021C17057
:1042A0001B989DF8501000F03DFAFFE719981499FB
:1042B00000EB41100221C0F80819FFE7159800062D
:1042C000002806D5FFE71B98149905F029FA0990F4
:1042D000FFE7FFE7149801301490169840081690F5
:1042E0003FE7FFE71B9800680AF092FF10F0004FCD
:1042F00020D0FFE71998D0F8041821F00101C0F888
:1043000004181B9890F8CC04012808D1FFE71B98EB
:10431000002180F8CC141B98FFF766FA03E01B9885
:1043200000F0F0FBFFE71B980068416901F00041D5
:104330004161FFE71B9800680AF06AFF10F4006F04
:1043400012D0FFE71998D0F8080810F0010F04D038
:10435000FFE71B9800F080FCFFE71B9800684169AD
:1043600001F400614161FFE71B9800680AF050FF0B
:1043700010F4805F00F08C80FFE71998D0F80418E3
:1043800021F00101C0F804181B98006810210AF000
:104390004DFE002117910890FFE717981B990979A6
:1043A000884231D2FFE71998179900EB41104FF678
:1043B0007F31C0F808191998179A00EB4210D0F80D
:1043C000002922F40012C0F800291998179A00EB6E
:1043D0004210C0F8081B1998179900EB4110D0F84B
:1043E000001B21F40011C0F8001B1998179900EB6D
:1043F0004110D0F8001B41F00061C0F8001BFFE73E
:10440000179801301790C8E71998D0F81C1841F098
:104410000111C0F81C181B98C07B00280FD0FFE7C3
:104420001998D0F8841841F00B01C0F88418199835
:10443000D0F8441841F00B01C0F844180FE0199867
:10444000D0F8141842F22B021143C0F8141819982E
:10445000D0F8101841F00B01C0F81018FFE71998B8
:10446000D0F8001821F4FE61C0F800181B9801680C
:1044700000F29C4280790790084607990AF0E8F913
:104480001B9909684A6902F480524A610690FFE765
:104490001B9800680AF0BCFE10F4005F2CD0FFE708
:1044A0001B98006809F0BEFEDDF86CE0DEF800E065
:1044B000059070460AF0FCFDDDF86CE08EF8070010
:1044C0001B980068049000F027FDDDF86CE09EF872
:1044D0000720DDF810E00390704603990AF0BCFF56
:1044E0001B990290084600F0DDFA1B9800684169AC
:1044F00001F400514161FFE71B9800680AF088FE53
:1045000010F0080F0CD0FFE71B9800F009FB1B9878
:104510000068D0F814E00EF0080EC0F814E0FFE7D1
:104520001B9800680AF074FE10F0800F26D0FFE799
:104530001A98816921F08001816101201490FFE7C0
:1045400014981B990979884217D2FFE71B98149990
:1045500001EBC10100EB810090F85702012807D15F
:10456000FFE71B989DF85010FFF70AFA0190FFE74C
:10457000FFE7149801301490E2E7FFE71B9800680A
:104580000AF046FE10F4801F3CD0FFE70120149093
:10459000FFE714981B99097988422CD2FFE71998F4
:1045A000149900EB4110D0F8000912901B9814994F
:1045B00001EBC10100EB8100007E012816D1FFE76D
:1045C0001298C00F002811D0FFE71B98149901EB37
:1045D000C10100EB81000121C1751B98149941F0C4
:1045E0008001C9B2FFF7CCF90090FFE7FFE714980C
:1045F00001301490CDE71B980068416901F48011E7
:104600004161FFE71B9800680AF002FE10F4001FEA
:1046100054D0FFE701201490FFE714981B99097903
:10462000884244D2FFE71998149900EB4110D0F862
:10463000000B12901B98149901EBC10100EB810053
:1046400090F8580201282DD1FFE71298C00F0028DA
:1046500028D0FFE7129800F480301B99D1F8D414C9
:1046600001F0010188421DD1FFE71B98149901EB6D
:10467000C10100EB8100012180F857121A9881696D
:1046800041F0800181611A98406910F0800F08D1D3
:10469000FFE71998D0F8041841F40071C0F8041825
:1046A00005E0FFE7FFE7149801301490B5E71B9889
:1046B0000068416901F400114161FFE71B9800683F
:1046C0000AF0A6FD10F0804F0CD0FFE71B98FFF713
:1046D000FDF81B980068D0F814E00EF0804EC0F88A
:1046E00014E0FFE71B9800680AF092FD10F0040F39
:1046F00014D0FFE71B98006840681290129840079A
:10470000002804D5FFE71B98FFF72CF9FFE7129864
:104710001B9909684A6810434860FFE7FFE71CB02F
:1047200080BD000080B586B00A46034605908DF82E
:1047300013100598D0F8E0049DF81310039202932B
:1047400008F06EFD019006B080BD000080B586B017
:104750000A46034605908DF813100598D0F8E0043A
:104760009DF813100392029308F09CFD019006B08F
:1047700080BD000010B592B001461090109800283E
:10478000059104D1FFE701208DF8470027E110983B
:1047900000680F90109890F89504002808D1FFE762
:1047A0001098002180F89414109800F01DF9FFE78C
:1047B0001098032180F895140F98B0F1A04F04D100
:1047C000FFE7109800218171FFE7109800680AF058
:1047D00033F8DDF840E0DEF800109EF810208DF888
:1047E0003420DEF80420DEF80830DEF80CE0CDF8E6
:1047F00030E00B930A920A9A0B9BDDF830E0DDF86B
:1048000034C06C46C4F800C00490084611461A46ED
:10481000734609F01FFD002808D0FFE71098022119
:1048200080F8951401208DF84700D8E010980068B2
:1048300000210AF061FD002808D0FFE7109802214E
:1048400080F8951401208DF84700C8E000208DF80D
:104850003B00FFE79DF83B0010990979884241DA57
:10486000FFE710989DF83B1001EBC10100EB8100C0
:10487000012141759DF83B00109900EBC00201EB4E
:10488000820108759DF83B00109900EBC00201EB16
:104890008201C88510989DF83B1001EBC10100EB27
:1048A00081000021017610989DF83B2002EBC202A6
:1048B00000EB8200C16110989DF83B2002EBC20220
:1048C00000EB8200016210989DF83B2002EBC202CF
:1048D00000EB82004162FFE79DF83B0001308DF85C
:1048E0003B00B7E700208DF83B00FFE79DF83B0059
:1048F0001099097988423EDAFFE710989DF83B103D
:1049000001EBC10100EB8100002180F855129DF8F8
:104910003B00109A00EBC00302EB830282F85402C2
:1049200010989DF83B2002EBC20200EB820080F859
:10493000581210989DF83B2002EBC20200EB820057
:10494000C0F85C1210989DF83B2002EBC20200EB0D
:104950008200C0F8601210989DF83B2002EBC20262
:1049600000EB8200C0F86412FFE79DF83B000130C5
:104970008DF83B00BAE710980168027C8DF824207E
:1049800042688368C0680890079306920698079A61
:10499000089BDDF824C0EE46CEF800C00390084620
:1049A000039909F0E5FD002808D0FFE710980221DF
:1049B00080F8951401208DF8470010E01098002130
:1049C00041741098012280F8952410980068029193
:1049D00009F0B6FD02998DF847100190FFE79DF8A8
:1049E000470012B010BD000080B58EB001460D909A
:1049F00000200C900B900A90099008900D98006888
:104A0000B0F1A04F05914AD1FFE7FFE700200790E2
:104A100043F63000C4F20200016841F00101016078
:104A2000006800F00100079007980490FFE74FF43A
:104A3000C05008900220099000200A9003200B909B
:104A40000A200C900020C4F2020008A9FDF752FED3
:104A5000FFE743F63400C4F20200016841F0800130
:104A60000160FFE70020069043F64400C4F2020014
:104A7000016841F480410160006800F480400690C4
:104A800006980390FFE7FFE7432000210290019181
:104A9000019AFEF77BFE0298FEF76CFEFFE70EB070
:104AA00080BD000080B586B00146059001208DF8DC
:104AB00013000598C0790028039104D1FFE7002076
:104AC0008DF813000CE00598C079022804D1FFE7A7
:104AD00001208DF8130002E0FCF738FAFFE7FFE74A
:104AE0000598D0F8E0049DF8131008F011FD059921
:104AF000D1F8E0140290084608F072FC019006B06C
:104B000080BD000080B584B0014603900398D0F8C2
:104B1000E004029108F0C4FC019004B080BD0000E4
:104B200080B584B0014603900398D0F8E004029168
:104B300008F0CAFC019004B080BD000080B586B0CA
:104B40000A46034604908DF80F1002920193FFE786
:104B5000049890F89404012804D1FFE702208DF80E
:104B600017001AE00498012180F89414FFE7FFE78A
:104B70009DF80F0004994874049800689DF80F1080
:104B80000AF032FC0090FFE70498002180F89414AA
:104B9000FFE700208DF81700FFE79DF8170006B02B
:104BA00080BD000080B584B0014603900398D0F822
:104BB000E02400F29C4002901046029A01911146B6
:104BC00008F0D8FC009004B080BD000080B586B02D
:104BD000014604900498006803900291FFE704984E
:104BE00090F89404012804D1FFE702208DF8170003
:104BF0002DE00498012180F89414FFE7FFE7039863
:104C0000C06810F0400F0BD0FFE70498407B0128EC
:104C100006D1FFE70398816B41F480318163FFE7A0
:104C2000049800680AF0BAF9DDF810E0DEF800E058
:104C30000190704609F06CFC0090FFE70498002199
:104C400080F89414FFE700208DF81700FFE79DF827
:104C5000170006B080BD000080B584B00146039007
:104C60000398D0F8E004029108F012FD0399096856
:104C7000D1F800EE4EF0010EC1F800EE0399C97AAA
:104C80000029019009D0FFE74EF61050CEF2000047
:104C9000016841F006010160FFE704B080BD00003B
:104CA00080B588B00A46034606900591069800280C
:104CB0000392029304D1FFE701208DF81F0026E143
:104CC000059843F60041C4F20201096801F00701AA
:104CD000884212D9FFE7059843F60041C4F2020169
:104CE0000870086800F007000599884204D0FFE7C3
:104CF00001208DF81F000AE1FFE706980068800791
:104D000000282AD5FFE7069800684007002809D543
:104D1000FFE743F60800C4F20200016841F4E051E5
:104D20000160FFE7069800680007002809D5FFE743
:104D300043F60800C4F20200016841F460410160DA
:104D4000FFE743F60800C4F20200016821F0F00119
:104D5000069A926811430160FFE706980068C00751
:104D6000002870D0FFE706984068012811D1FFE7BE
:104D700043F60000C4F20200006800F40030002195
:104D8000B1EB504F04D1FFE701208DF81F00BEE0CA
:104D90002CE006984068022805D0FFE70698406896
:104DA000032811D1FFE743F60000C4F202000068B7
:104DB00000F000700021B1EB506F04D1FFE701203B
:104DC0008DF81F00A3E010E043F60000C4F20200DB
:104DD000006800F002000021B1EB500F04D1FFE7A2
:104DE00001208DF81F0092E0FFE7FFE743F608007F
:104DF000C4F20200016821F00301069A52681143CF
:104E00000160FDF799FE0490FFE743F60800C4F245
:104E10000200006800F00C0006994968B0EB810FB1
:104E200010D0FFE7FDF788FEDDF810E0A0EB0E00E4
:104E300041F2893E704504D3FFE703208DF81F003F
:104E400065E0E2E7FFE7059843F60041C4F202019E
:104E5000096801F00701884212D2FFE7059843F67E
:104E60000041C4F202010870086800F007000599CB
:104E7000884204D0FFE701208DF81F0047E0FFE7DC
:104E800006980068400700280CD5FFE743F60800A5
:104E9000C4F20200016821F4E051069AD26811437D
:104EA0000160FFE706980068000700280DD5FFE7BE
:104EB00043F60800C4F20200016821F46041069A3A
:104EC000126941EAC2010160FFE700F053F843F6BE
:104ED000080EC4F2020EDEF800E0CEF3031E4BF61D
:104EE0007451C0F6010111F80E10C84040F2B8012B
:104EF000C2F20001086040F2B410C2F20000006883
:104F0000FEF7D4FB00218DF81F100190FFE79DF8FC
:104F10001F0008B080BD000040F2B800C2F20000DF
:104F20000068704780B5FFF7F7FF43F6080EC4F23C
:104F3000020EDEF800E0CEF3822E4BF68451C0F66E
:104F4000010111F80E10C84080BD000080B5FFF7C8
:104F5000E3FF43F6080EC4F2020EDEF800E0CEF3E3
:104F6000423E4BF68451C0F6010111F80E10C840C4
:104F700080BD000080B586B00020059004900390AD
:104F8000029043F60800C4F20200006800F00C0032
:104F900001460028019108D0FFE7019804280AD0B3
:104FA000FFE7019808280CD04FE042F20040C0F221
:104FB000F40002904FE041F60030C0F2B7000290DA
:104FC00049E043F60400C4F20200016801F03F0129
:104FD0000591006810F4800F13D0FFE743F604003A
:104FE000C4F202000068C0F3881041F60031C0F23C
:104FF000B701A0FB0101059A0023FBF790F904908B
:1050000012E043F60400C4F202000068C0F3881006
:1050100042F20041C0F2F401A0FB0101059A002315
:10502000FBF77DF90490FFE743F60400C4F20200A9
:10503000006800F44030022101EBD0300390049866
:105040000399B0FBF1F0029005E042F20040C0F29B
:10505000F4000290FFE7029806B080BD80B588B0EA
:105060000146069006980028019104D1FFE701202F
:105070008DF81F006EE306980068C007002800F056
:10508000AB80FFE743F60800C4F20200006800F0BE
:105090000C00042813D0FFE743F60800C4F2020016
:1050A000006800F00C0008281FD1FFE743F6040059
:1050B000C4F20200006810F4800F16D0FFE743F638
:1050C0000000C4F20200006800F400300021B1EBDF
:1050D000504F09D0FFE706984068002804D1FFE749
:1050E00001208DF81F0035E375E0FFE70698406862
:1050F000B0F5803F09D1FFE743F60000C4F202009B
:10510000016841F48031016020E006984068B0F504
:10511000A02F0DD1FFE743F60000C4F202000168A2
:1051200041F480210160016841F4803101600CE0AC
:1051300043F60000C4F20200016821F480310160EE
:10514000016821F480210160FFE7FFE7FFE706988F
:10515000406800281FD0FFE7FDF7EEFC0590FFE751
:1051600043F60000C4F20200006800F400300021A1
:10517000B1EB504F0ED1FFE7FDF7DEFCDDF814E098
:10518000A0EB0E00652804D3FFE703208DF81F0075
:10519000E0E2E5E71EE0FDF7CFFC0590FFE743F610
:1051A0000000C4F20200006800F400300021B1EBFE
:1051B000504F0ED0FFE7FDF7BFFCDDF814E0A0EB89
:1051C0000E00652804D3FFE703208DF81F00C1E21D
:1051D000E5E7FFE7FFE7FFE706980068800700289C
:1051E00040F19B80FFE743F60800C4F2020000682C
:1051F00010F00C0F13D0FFE743F60800C4F20200D2
:10520000006800F00C0008282CD1FFE743F60400EA
:10521000C4F20200006810F4800F23D1FFE743F6C8
:105220000000C4F20200006800F002000021B1EBAF
:10523000500F09D0FFE70698C068012804D0FFE7A7
:1052400001208DF81F0085E243F60000C4F2020041
:10525000016821F0F801069A126941EAC201016071
:10526000FFE759E00698C068002830D0FFE700202B
:10527000C4F2472001210160FDF75EFC0590FFE7C5
:1052800043F60000C4F20200006800F002000021B2
:10529000B1EB500F0ED1FFE7FDF74EFCDDF814E047
:1052A000A0EB0E00032804D3FFE703208DF81F00B6
:1052B00050E2E5E743F60000C4F20200016821F085
:1052C000F801069A126941EAC201016023E0002058
:1052D000C4F2472000210160FDF72EFC0590FFE796
:1052E00043F60000C4F20200006800F00200002152
:1052F000B1EB500F0ED0FFE7FDF71EFCDDF814E018
:10530000A0EB0E00032804D3FFE703208DF81F0055
:1053100020E2E5E7FFE7FFE7FFE706980068000700
:10532000002850D5FFE706984069002825D0FFE700
:1053300040F68060C4F2472001210160FDF7FCFBCC
:105340000590FFE743F67400C4F20200006800F025
:1053500002000021B1EB500F0ED1FFE7FDF7ECFB8F
:10536000DDF814E0A0EB0E00032804D3FFE70320D0
:105370008DF81F00EEE1E5E724E040F68060C4F21E
:10538000472000210160FDF7D7FB0590FFE743F6BA
:105390007400C4F20200006800F002000021B1EBCA
:1053A000500F0ED0FFE7FDF7C7FBDDF814E0A0EBD0
:1053B0000E00032804D3FFE703208DF81F00C9E186
:1053C000E5E7FFE7FFE7069800684007002840F19F
:1053D000D680FFE700208DF80F0043F64000C4F2AE
:1053E0000200006810F0805F16D1FFE7FFE70020A1
:1053F000029043F64000C4F20200016841F080517F
:105400000160006800F08050029002980090FFE771
:1054100001208DF80F00FFE747F20000C4F2000002
:10542000006810F4807F24D1FFE747F20000C4F247
:105430000000016841F480710160FDF77DFB05907B
:10544000FFE747F20000C4F20000006810F4807F1C
:105450000ED1FFE7FDF770FBDDF814E0A0EB0E00C6
:10546000032804D3FFE703208DF81F0072E1E8E76B
:10547000FFE7FFE706988068012809D1FFE743F6B8
:105480007000C4F20200016841F0010101601FE0F8
:105490000698806805280DD1FFE743F67000C4F236
:1054A0000200016841F004010160016841F001015E
:1054B00001600CE043F67000C4F20200016821F0C4
:1054C00001010160016821F004010160FFE7FFE7CD
:1054D000FFE706988068002821D0FFE7FDF72CFB46
:1054E0000590FFE743F67000C4F20200006800F088
:1054F00002000021B1EB500F10D1FFE7FDF71CFBBC
:10550000DDF814E0A0EB0E0041F2893E704504D3B3
:10551000FFE703208DF81F001CE1E3E720E0FDF723
:105520000BFB0590FFE743F67000C4F20200006831
:1055300000F002000021B1EB500F10D0FFE7FDF7A3
:10554000FBFADDF814E0A0EB0E0041F2893E704555
:1055500004D3FFE703208DF81F00FBE0E3E7FFE73C
:105560009DF80F00012809D1FFE743F64000C4F27F
:105570000200016821F080510160FFE7FFE7069813
:105580008069002800F0E280FFE743F60800C4F2DB
:105590000200006800F00C00082800F08B80FFE794
:1055A00006988069022860D1FFE76020C4F2472096
:1055B00000210160FDF7C0FA0590FFE743F6000007
:1055C000C4F20200006800F000700021B1EB506FDF
:1055D0000ED0FFE7FDF7B0FADDF814E0A0EB0E0007
:1055E000032804D3FFE703208DF81F00B2E0E5E7AE
:1055F0000698C169026A436AD0F828C0114341EA9B
:1056000083114FEACC324FF6FF739A43A2F58032F2
:105610001143C06A41EA006043F60401C4F202018A
:1056200008606020C4F2472001210160FDF784FA80
:105630000590FFE743F60000C4F20200006800F0A6
:1056400000700021B1EB506F0ED1FFE7FDF774FA47
:10565000DDF814E0A0EB0E00032804D3FFE70320DD
:105660008DF81F0076E0E5E723E06020C4F24720D4
:1056700000210160FDF760FA0590FFE743F60000A6
:10568000C4F20200006800F000700021B1EB506F1E
:105690000ED0FFE7FDF750FADDF814E0A0EB0E00A6
:1056A000032804D3FFE703208DF81F0052E0E5E74D
:1056B000FFE74AE006988069012804D1FFE701204E
:1056C0008DF81F0046E043F60400C4F202000068B3
:1056D000049006988069012831D0FFE7049800F40F
:1056E00080000699C969884229D1FFE7049800F033
:1056F0003F000699096A884221D1FFE7049847F6DE
:10570000C07108400699496AB0EB811F17D1FFE7C5
:10571000049800F440300699896AC9034FF6FF7275
:105720009143A1F58031884209D1FFE7049800F048
:1057300070600699C96AB0EB016F04D0FFE70120E1
:105740008DF81F0006E0FFE7FFE7FFE700208DF878
:105750001F00FFE79DF81F0008B080BD82B0014622
:105760000190009102B0704780B584B0014602906C
:1057700002980028019104D1FFE701208DF80F0065
:1057800072E00298406A00280CD1FFE70298406856
:10579000B0F5827F01D1FFE703E002980021C161EB
:1057A000FFE705E002980021016102984161FFE7EF
:1057B000029800218162029890F85100002808D1D7
:1057C000FFE70298002180F85010029800F050F88E
:1057D000FFE70298022180F85110029800680168E2
:1057E00021F0400101600298016842688368D0F8A6
:1057F0000CC002F4827203F404431A430CF40063F5
:105800001A43036903F002031A43436903F00103D7
:105810001A43836903F400731A43C36903F038031E
:105820001A43036A03F080031A43806A00F40050AD
:10583000104308600298418B01F004010268406A3D
:1058400000F010000843506002980068C16921F41C
:105850000061C1610298002141650298012280F82F
:1058600051208DF80F10FFE79DF80F0004B080BDA8
:1058700080B592B001461190002010900F900E90CC
:105880000D900C901198006843F20002C4F20102DE
:105890009042089140F0C380FFE7FFE700200B90A3
:1058A00043F64400C4F20200016841F480510160F3
:1058B000006800F480500B900B980790FFE7FFE71B
:1058C00000200A9043F63000C4F20200016841F063
:1058D00002010160006800F002000A900A98069038
:1058E000FFE7FFE70020099043F63000C4F2020012
:1058F000016841F001010160006800F001000990B9
:1059000009980590FFE718200C9002200D900121C6
:105910000E9103220F920523109340F2004CC4F223
:10592000020C0DF1300E0490604603917146CDF8E3
:1059300008E001930092FCF7DDFE80200C900498B3
:105940000D9003990E91009A0F92019B10930020E5
:10595000C4F202000299FCF7CDFE43F61470C2F2C5
:10596000000046F24041C4F2020101604FF0C06104
:10597000416000218160C1604FF480620261416139
:105980008161C1614FF44032026204224262009A96
:105990008262C1620163FCF72FFD002803D0FFE79C
:1059A000FBF7D4FAFFE7FFE7119843F61471C2F250
:1059B0000001C16411988863FFE743F67470C2F276
:1059C000000046F25841C4F2020101604FF0C0618C
:1059D0004160402181600021C1604FF4806202611A
:1059E00041618161C1614FF400320262042242626E
:1059F00003228262C1620163FCF7FEFC002803D02F
:105A0000FFE7FBF7A3FAFFE7FFE7119843F674718E
:105A1000C2F20001816411988863FFE7FFE712B0CA
:105A200080BD000082B001460190009102B0704735
:105A300082B001460190009102B0704770B594B0F9
:105A4000DDF860C09E4614460D4606461290119140
:105A50001092ADF83E3001200B9000208DF82B0005
:105A6000CDF820E0079406950596CDF810C0FFE725
:105A7000129890F85000012804D1FFE702208DF819
:105A80004F00C2E11298012180F85010FFE7FFE7B4
:105A9000FDF752F80C90129890F851008DF83700ED
:105AA000129840680E90BDF83E00ADF83C009DF89D
:105AB0003700012813D0FFE70E98B0F5827F0AD196
:105AC000FFE712988068002805D1FFE79DF83700AE
:105AD000042804D0FFE702208DF82B008AE11198FA
