:020000040800F2
:10000000E8EE002075020008FD590008594E00086E
:10001000F95900080D0800085D850008000000007F
:100020000000000000000000000000002968000837
:10003000010A000800000000D96500082D680008CA
:100040008F0200088F0200088F0200088F0200084C
:100050008F0200088F020008050A00088F020008BE
:100060008F020008110A00081D0A00088F0200080C
:1000700019090008290900088F0200083909000839
:100080008F0200088F0200088F0200088F0200080C
:1000900011080008210800088F020008290A00083A
:1000A0008F0200088F0200088F0200088F020008EC
:1000B0008F0200088F020008016900088F02000803
:1000C0008F0200088F0200088F0200088F020008CC
:1000D0008F020008217100088F02000831710008AA
:1000E0008F0200088F0200088F0200088F020008AC
:1000F0008F0200088F0200088F0200088F0200089C
:100100008F0200088F020008116900088F020008A2
:100110008F0200088F0200088F0200088F0200087B
:100120008F020008490900085909000869090008F8
:100130008F0200088F0200088F0200088F0200085B
:1001400031080008410800088F020008015A000821
:100150007909000889090008990900084171000817
:100160008F0200088F0200088F0200088F0200082B
:100170008F0200088F0200088F02000800000000B4
:100180008F0200088F02000800F002F800F062F809
:100190000AA090E8000C82448344AAF10107DA45E2
:1001A00001D100F057F8AFF2090EBAE80F0013F0D2
:1001B000010F18BFFB1A43F001031847E4210100A7
:1001C000042201000A444FF0000C10F8013B13F028
:1001D000070408BF10F8014B1D1108BF10F8015BA0
:1001E000641E05D010F8016B641E01F8016BF9D193
:1001F00013F0080F1EBF10F8014BAD1C0C1B09D1EA
:100200006D1E58BF01F801CBFAD505E014F8016B5B
:1002100001F8016B6D1EF9D59142D6D370470000ED
:100220000023002400250026103A28BF78C1FBD8FF
:10023000520728BF30C148BF0B6070471FB511F08F
:100240001CFF9DE8030000F0CDF900F09DF91FBDF3
:1002500010B510BD00F05EFA1146FFF7EFFF0CF08D
:10026000A7FC00F07CFA03B4FFF7F2FF03BC00F038
:1002700021FA00000948804709480047FEE7FEE7E9
:10028000FEE7FEE7FEE7FEE7FEE7FEE7FEE7FEE746
:1002900004480549054A064B70470000F16800080C
:1002A00089010008E84E0020E8EE0020E89E0020CA
:1002B000E89E002070B5064600F078F9056806F162
:1002C0000B0020F00704B4429CBF002070BD2B46F9
:1002D0006A68BAB11068A04210D304F108018842DC
:1002E0003CBF5068586007D35168101941601168CD
:1002F000091B016058601460101D70BD13465268E0
:10030000002AE7D12146284600F058F90028DED11E
:1003100070BD53EA020C00F069802DE9F04B4FF0FC
:100320000006002B1FBFB3FA83F503FA05F424FA85
:1003300005F65E4012BF1643B2FA82F502FA05F4E2
:10034000C5F120051EBF22FA05FC44EA0C04203545
:1003500056EA044C4FEA144418BF641C4FF00008DE
:100360004FF00009904271EB030C39D3002919BFFB
:10037000B1FA81F701FA07F6B0FA80F700FA07F64A
:10038000C7F120071EBF20FA07FC46EA0C062037FB
:10039000B6FBF4FCA7EB0507103F07F01F0BCBF1F2
:1003A00020062CFA06F60CFA0BFB44BFB3460026D7
:1003B000202FA4BF5E464FF0000B5BEA060C08BF7F
:1003C0004FF0010B19EB0B0948EB0608ABFB027C65
:1003D00006FB02CC0BFB03CCC01B71EB0C01C1E78D
:1003E0000B46024641464846BDE8F08B13B508432C
:1003F00018BF4FF0FF300146AFF30080BDE81C404E
:100400007047032A40F2308010F0030C00F0158092
:1004100011F8013BBCF1020F624498BF11F801CB07
:1004200000F8013B38BF11F8013BA2F1040298BF6C
:1004300000F801CB38BF00F8013B11F0030300F0D6
:100440002580083AC0F0088051F8043B083A51F87A
:1004500004CBA0E80810F5E7121D5CBF51F8043B7F
:1004600040F8043BAFF30080D20724BF11F8013BF2
:1004700011F801CB48BF11F8012B24BF00F8013B54
:1004800000F801CB48BF00F8012B704710B5203AA7
:10049000C0F00B80B1E81850A0E81850B1E818502F
:1004A000A0E81850203ABFF4F5AF5FEA027C24BF01
:1004B000B1E81850A0E8185044BF18C918C0BDE8EA
:1004C00010405FEA827C24BF51F8043B40F8043BB3
:1004D00008BF7047D20728BF31F8023B48BF11F868
:1004E000012B28BF20F8023B48BF00F8012B7047C2
:1004F0004FF000020429C0F0128010F0030C00F04D
:100500001B80CCF1040CBCF1020F18BF00F8012BCA
:10051000A8BF20F8022BA1EB0C0100F00DB85FEA98
:10052000C17C24BF00F8012B00F8012B48BF00F864
:10053000012B70474FF0000200B5134694469646D3
:10054000203922BFA0E80C50A0E80C50B1F12001E6
:10055000BFF4F7AF090728BFA0E80C5048BF0CC094
:100560005DF804EB890028BF40F8042B08BF7047F2
:1005700048BF20F8022B11F0804F18BF00F8012B64
:10058000704770477047704770B5064C7C44064D05
:100590007D4404E02046016808448047241DAC42A5
:1005A000F8D170BD301E0100381E010000487047B0
:1005B00074300020704770477047704738B5044664
:1005C0000A4600206946AFF30080002808BF38BD06
:1005D00002460099204600F07BF8012038BD01203A
:1005E00000F090B8F8B5AFF30080054600200C4647
:1005F000102000BF0646A819A0420DD93246694610
:100600000020AFF30080070008BF00F07BF80098DF
:10061000A04218BF0546C419FFF7C8FF056007468A
:10062000F01D20F007004619284600F00AF8B442F1
:1006300008BFF8BDA21B31463868BDE8F84000F09D
:1006400047B800210160C0E90110704710207047D1
:1006500070B50446051FFFF7A9FF0068002C14BF02
:10066000446870BD002C18BFAC423CBF2046646893
:10067000F8D301680A18AA4218BF456003D12A6856
:1006800005461144016028684119A1421CBF6C60F5
:1006900070BD6168696021680844286070BD10B54C
:1006A00000F012F8006810BD10B5044600F00CF818
:1006B000046010BD01491820ABBEFEE72600020011
:1006C000004870476C300020004870476C300020B4
:1006D000034640688C46002818BF88423CBF03464A
:1006E0004068F8D318681844884207D00CF103001A
:1006F00020F00700001D411A521A0146081D0A6029
:10070000FFF7A6BF10B500F039F8BDE8104000F0C3
:100710002FB870477546FFF7D3FFAE460500694610
:10072000534620F00700854618B020B5FFF7B0FD0E
:10073000BDE820404FF000064FF000074FF00008E2
:100740004FF0000BAC46ACE8C009ACE8C009ACE81F
:10075000C009ACE8C00921F007018D46704710B50B
:100760000446AFF300802046BDE81040FFF77BBD94
:10077000002801D0FFF79EBF7047000010B5012888
:1007800005D0002103A000F021F8012010BD09A12F
:10079000F8E7000053494752544D454D3A204F75F4
:1007A00074206F662068656170206D656D6F727969
:1007B000000000003A2048656170206D656D6F7221
:1007C0007920636F727275707465640070B5054648
:1007D0000C460A2000E06D1C00F011F835B12878B5
:1007E0000028F8D102E0641C00F009F814B1207868
:1007F0000028F8D1BDE870400A20AFF3008008B5AA
:1008000069468DF800000320ABBE08BDFFE7FEE798
:1008100080B544F64800C2F2000000F033FA80BD13
:1008200080B544F64800C2F2000000F02BFA80BD0B
:1008300080B544F67000C2F2000000F023FA80BDDB
:1008400080B544F67000C2F2000000F01BFA80BDD3
:1008500080B584B0039002910398006846F200418D
:10086000C4F20001884216D1FFE7039843F2B011A9
:10087000C2F2000108600298886203980023019385
:1008800019461A4608F00AF8019B03980C211A46EB
:1008900008F004F818E00398006846F60001C4F276
:1008A000000188420FD1FFE7039843F23C21C2F2D6
:1008B00000010860029888620398702100231A469C
:1008C00007F0ECFFFFE7FFE7039800F094FC0398C4
:1008D000022100F0B2F80398102100F0AEF804B045
:1008E00080BD000080B58CB00B90ADF82A10099245
:1008F000ADF82230BDF82A00029000200390049049
:100900000590BDF8220006900B98099A02A901AB48
:1009100000F0A6F80CB080BD80B544F6D820C2F235
:10092000000000F0E7FC80BD80B544F69800C2F2FC
:10093000000000F0DFFC80BD80B544F6F800C2F294
:10094000000000F0D7FC80BD80B544F63830C2F21C
:10095000000000F0CFFC80BD80B544F65810C2F214
:10096000000000F0C7FC80BD80B544F6B810C2F2AC
:10097000000000F0BFFC80BD80B544F61820C2F234
:10098000000000F0B7FC80BD80B544F69830C2F29C
:10099000000000F0AFFC80BD80B544F67820C2F2C4
:1009A000000000F0A7FC80BD10B501686FF00F02D9
:1009B000182308A452FA81F2B2FBF3F3E35C40F28D
:1009C000FF34A1435F2A88BF0431C0E916130846EB
:1009D00010BD00BF0006101600061016B0B5046862
:1009E000806825684028084625F4802525606360D6
:1009F00008BF1046A06008BF0A46E260B0BD000014
:100A00007047000080B5012000F0ECFD80BD0000C3
:100A100080B5082000F0E6FD80BD000080B5102004
:100A200000F0E0FD80BD000080B5202000F0DAFD80
:100A300080BD000072B6FFE7FEE790F82020013A83
:100A4000012A04D8006800F11402002004E000F13B
:100A5000240201204FF4802113681943116070476C
:100A600070B590F820600468013EA568012E0DD88D
:100A700015F0E05F0DD0C5F30160012585401D60D4
:100A80008B6863B14D6843EAC5030AE005F051FA8B
:100A900023E000F1240101204FF400121DE00B6857
:100AA0005B0504EB0010D1E903452343C0F8803116
:100AB000C0F88451097D012905D100F5C2710B6888
:100AC00043F480730B605168C0F88C1111680122E7
:100AD000C0F8881100F5C07100200B681A430A6045
:100AE00070BD0000F0B590F82020013A012A27D807
:100AF0002F48026842F001020260026822F47C5230
:100B000002604C69CD694A6A036843EA0222012304
:100B1000026004F01F0203FA02F2C3699343C36147
:100B2000D343012D12D025BBC5681D40C56000EB25
:100B3000C405CE688F8847EA06462E640D4611E04C
:100B4000416A41F4802141620120F0BDC56815432E
:100B5000C56000EBC4050E688F8847EA06462E6420
:100B600001F10C058E682D8800EBC40445EA0645AA
:100B7000656444688F690E69096A44EA0205002FBA
:100B800008BF04EA03054560002E446944EA0205F3
:100B900008BF04EA03050129456102D1C169114377
:100BA000C161016821F0010101600020F0BD00BFBA
:100BB00000660040704770B590F82040013C012C61
:100BC00003D8046821B1256903E005F0B2F955E0C6
:100BD000E568AD0748D004EB0114D4F8B05115F026
:100BE0000405956004F5D875D4F8B06119BFF6080E
:100BF0005660760D16602D6805F00205D56004F587
:100C0000DA75D4F8B46136075ABF2E6806F00F06BD
:100C1000082616612E68C6F3072696612D682D0CEE
:100C20005561D4F8B8211A7004F06BFF120A5A709B
:100C300004F067FF120C9A7004F063FF120EDA7072
:100C400004F0EDFE1A7104F0EAFE120A5A7104F083
:100C5000E6FE120C9A7104F0E2FE120EDA710068E0
:100C600041B100F1100107E000F1240101204FF42F
:100C7000001203E000F10C01002020220B681A434F
:100C80000A6070BD2DE9F84F044600684669D0F847
:100C900004908768D0F80CB0D0F810A0D0F8188075
:100CA000F10701D1002545E0F9070FD0012181604E
:100CB000B80708D4780720D4380700F1B980204657
:100CC00000F0BFFA02E0204600F0BCFA0025F8056B
:100CD00018D520684FF480718160B80509D4780573
:100CE0000ED438054EBF05F58045204600F0ABFA1E
:100CF00008E0204600F0A8FA04E04FF40065E6E7BB
:100D000005F50055F80315D520684FF48031816052
:100D1000B80309D478030BD438034EBF05F58035EA
:100D2000204600F092FA05E0204600F08FFA01E03C
:100D300005F50045300748BF5FEACB6050D4700727
:100D400048BF5FEA0B7051D4B00706D52068C06871
:100D5000800702D0204600F0D3F9700648BF5FEA52
:100D6000CA604AD4B00648BF5FEA0A704BD4F006A6
:100D700006D520680069800702D0204600F0FEF901
:100D8000B00348BF5FEAC96044D4F00348BF5FEADC
:100D9000097046D4300464D55FEA49705ED5C6F365
:100DA0000021F005023101EA0801B20558BF08EA46
:100DB000D071720508F0040048BF01440D433005AE
:100DC0004CD518F0700049D010380009052840D8DB
:100DD000DFE800F0033134373A3D45F0080538E0EC
:100DE0002068102145F40075C160A8E7206808213B
:100DF000C160204600F082F9A6E72068102145F482
:100E000080650161AEE7206808210161204600F09D
:100E1000B3F9ACE7206810214160204600F0EAF900
:100E2000B3E7206808214160204600F010FAB1E7DE
:100E30004FF480554BE745F010050AE045F02005DA
:100E400007E045F0400504E045F0800501E045F489
:100E500080752068816921F070018161206804211A
:100E600041603DB1606A284360622046BDE8F84FAA
:100E7000FFF7A0BEBDE8F88F70B598B1044690F8B2
:100E8000200010B9204600F065F804F05CFF05462C
:100E900020684168C90707D100F0C8FD401B0B2836
:100EA000F6D311E0012070BD016821F0020101605C
:100EB00000F0BCFD05462068416889070BD500F0AD
:100EC000B5FD401B0B28F6D3606A052140F40030C5
:100ED000606201203AE0217E026822F0800201294E
:100EE00008BF80320260617E026822F04002012960
:100EF00008BF40320260A17E026822F02002012970
:100F000008BF20320260E17E026822F0100201294F
:100F100018BF10320260217F026822F00802012906
:100F200008BF08320260617F026822F004020129D2
:100F300008BF04320260261D6ECE1A432A430139CF
:100F400032431143C16100200121606284F8201006
:100F500070BD000080B592B01190002010900F90ED
:100F60000E900D900C901198006846F20041C4F26A
:100F70000001884252D1FFE743F26820C2F200002C
:100F80000168013101600068012812D1FFE7FFE725
:100F900000200B9043F64000C4F20200016841F0CB
:100FA00000710160006800F000700B900B98FFE783
:100FB000FFE7FFE700200A9043F63000C4F202008A
:100FC000016841F008010160006800F008000A9023
:100FD0000A98FFE703200C9002210D910021059152
:100FE0000E910F900920109040F60040C4F20200CC
:100FF0000CA900F013FB059A14200490114600F090
:10100000F9FF049800F0E8FF059A152006901146B4
:1010100000F0F0FF069800F0DFFF6DE01198006827
:1010200046F60001C4F20001884264D1FFE7FFE701
:101030000020099043F64000C4F20200016841F02C
:1010400080610160006800F0806009900998FFE706
:1010500043F26820C2F200000168013101600068BB
:10106000012812D1FFE7FFE70020089043F6400077
:10107000C4F20200016841F000710160006800F0F4
:10108000007008900898FFE7FFE7FFE7002007904F
:1010900043F63000C4F20200016841F00201016031
:1010A000006800F0020007900798FFE760200C90AE
:1010B00002200D90002002900E9003200F90092036
:1010C000109040F20040C4F202000CA900F0A6FA11
:1010D000029A40200190114600F08CFF019800F028
:1010E0007BFF029A41200390114600F083FF039892
:1010F00000F072FFFFE7FFE712B080BD704700000D
:1011000080B586B005900598006846F20041C4F2AB
:101110000001884212D1FFE7059843F2B011C2F2F4
:10112000000103910A1D049201F120030021FFF741
:1011300042FD03990498896A88471BE00598006876
:1011400046F60001C4F20001884212D1FFE705987B
:1011500043F23C21C2F2000101910A1D029201F109
:1011600020030021FFF727FD01990298896A88472B
:10117000FFE7FFE706B080BD7047000080B586B08E
:1011800005900598006846F20041C4F200018842CB
:1011900012D1FFE7059843F2B011C2F200010391AA
:1011A0000A1D049201F120030121FFF704FD0399B8
:1011B0000498896A88471BE00598006846F6000194
:1011C000C4F20001884212D1FFE7059843F23C21A6
:1011D000C2F2000101910A1D029201F120030121D6
:1011E000FFF7E9FC01990298896A8847FFE7FFE762
:1011F00006B080BD7047B0B5044690F820000128C5
:1012000016D1022084F820002068016821F0010135
:10121000016000F00BFC054620684068C0070DD057
:1012200000F004FC401B0B28F6D304F026FE03E07C
:10123000606A40F4002060620120B0BD002060625E
:10124000B0BD704770477047704770477047704730
:1012500070B5866D044600F0E9FB054694F835004C
:1012600002281ED12068216C026822F0160202605A
:10127000426922F08002426109B9A16C19B101688A
:1012800021F008010160016821F00101016000689E
:10129000C0070AD000F0CAFB401B05280FD8206801
:1012A000F5E78020606501200EE0E06D3F2101FA46
:1012B00000F0B060012084F83500002004E0202018
:1012C0006065032084F83500002184F8341070BD77
:1012D00090F83510022909D1052180F835100068F1
:1012E000016821F001010160002070478021416503
:1012F00001207047F8B504460020534A08210090A9
:10130000D4E9166015683768814039420CD02268EC
:1013100013685B0708D5136823F004031360B160FA
:10132000616D41F00101616501218140394208D0C0
:1013300022685269120604D5B160616D41F0020164
:10134000616504218140394208D022681268920701
:1013500004D5B160616D41F00401616510218140E7
:10136000394217D020680268120713D5B1600268AD
:101370000168520306D4C90506D4016821F00801AA
:10138000016001E0080301D4216C00E0A16C09B107
:1013900020468847E16D202000FA01F23A4233D01E
:1013A00020680368DB062FD5B26094F835300268F8
:1013B000052B15D122F016020260426922F080024C
:1013C0004261226C0AB9A26C1AB1026822F00802CA
:1013D00002603F208840B06004F01AFB216D2FE0CE
:1013E0000168520308D4C9050AD4016821F010012C
:1013F000016004F00DFB03E0080301D4616C00E020
:10140000E16B09B120468847606DE0B1606DC007AF
:1014100015D005214FF4165084F83510B5FBF0F0C7
:1014200021680A6822F001020A60009A01328242B1
:10143000009202D80A68D207F7D104F0E9FAE16C09
:1014400009B120468847F8BD7C0200202DE9F04113
:10145000044600F0EBFAACB10546022084F83500F2
:101460000020216884F83400086820F0010008603A
:101470000868C00709D000F0D9FA401B052839D800
:101480002168F5E70120BDE8F0810868271D304A92
:10149000E8CF00EA020ED4E9050CD4E9072843EAB4
:1014A0000E032B4333433B431843636A40EA0C006B
:1014B000104340EA0802042B04D1D4E90B05104381
:1014C00040EA05020A60042B486920F0070040EA60
:1014D00003022CD1D4E90A63324343B3BCF5005F65
:1014E0000CD0BCF1000F18D1022E19D0012E0ED055
:1014F000002E14E003252027032024E0032E16D815
:10150000012540270120DFE806F01E0B1E02A3F193
:10151000C070B0FA80F0400904E0032E03D306D176
:10152000C3F3006018B10125402701200BE02046DD
:101530004A61FFF739FAE16D3F220027012502FADF
:1015400001F181600020676584F83550BDE8F081C5
:101550003F8010F0B0B504F0CFFA28D00120A56D7F
:1015600084F8340094F8350001281DD1022084F855
:101570003500002060652046FFF730FAE26D3F231A
:101580002068216C03FA02F2AA60026842F0160297
:10159000026019B1016841F008010160016841F081
:1015A000010101600020B0BD002084F83400022059
:1015B000B0BD0000B0B5044600F038FA0546054855
:1015C000611C007818BF044400F030FA401BA042B0
:1015D000FAD3B0BD6C02002081B0ADF8020001B0BA
:1015E0007047000080B582B0ADF8060043F61440A5
:1015F000C4F201000068BDF8061008420CD0FFE7F5
:10160000BDF8060043F61441C4F201010860BDF8BC
:101610000600FFF7E1FFFFE702B080BD8EB00D903E
:101620000C9100200A90099008900B90FFE70B980E
:101630000F2800F2CC81FFE70B99012088400A9027
:101640000C9800680A990840099009980A998842FC
:1016500040F0B881FFE70C98406800F003000128D3
:1016600007D0FFE70C98406800F0030002282FD154
:10167000FFE70D98806808900B984100032000FA5E
:1016800001F10898884308900C98C0680B994900AC
:1016900000FA01F108980843089008980D998860AD
:1016A0000D98406808900B99012000FA01F1089804
:1016B000884308900C984068C0F300100B9900FA1A
:1016C00001F108980843089008980D994860FFE7D1
:1016D0000C98406800F00300032818D0FFE70D982D
:1016E000C06808900B984100032000FA01F10898A7
:1016F000884308900C9880680B99490000FA01F122
:1017000008980843089008980D99C860FFE70C985E
:10171000406800F00300022826D1FFE70D980B99DE
:101720006FF0030202EA51010844006A08900B9826
:1017300000F0070081000F2000FA01F108988843AB
:1017400008900C9800690B9901F00701890000FAD4
:1017500001F108980843089008980D990B9B02EA3C
:10176000530211440862FFE70D98006808900B9837
:101770004100032000FA01F10898884308900C9872
:10178000406800F003000B99490000FA01F1089845
:101790000843089008980D9908600C988079800794
:1017A000002800F00E81FFE7FFE70020079043F6D6
:1017B0004400C4F20200016841F480410160006805
:1017C00000F4804007900798FFE70B9820F0030093
:1017D00043F60801C4F20101405808900B9800F04C
:1017E000030081000F2000FA01F108988843089057
:1017F0000D980021C4F20201884203D1FFE70020C6
:1018000006905EE00D9840F20041C4F20201884269
:1018100003D1FFE70120059050E00D9840F600014C
:10182000C4F20201884203D1FFE70220049042E0A3
:101830000D9840F60041C4F20201884203D1FFE74F
:101840000320039034E00D9841F20001C4F202013C
:10185000884203D1FFE70420029026E00D9841F270
:101860000041C4F20201884203D1FFE70520019044
:1018700018E00D9841F60001C4F20201884203D13C
:10188000FFE7062000900AE00D9941F60042C4F2FD
:1018900002020820914208BF07200090FFE700984D
:1018A0000190FFE701980290FFE702980390FFE79D
:1018B00003980490FFE704980590FFE705980690C9
:1018C000FFE70698C0B20B9901F00301890000FA06
:1018D00001F108980843089008980B9921F003013A
:1018E00043F60802C4F20102885043F60840C4F2ED
:1018F00001000068089009990898884308900C989E
:101900008079C006002805D5FFE7099908980843A3
:101910000890FFE7089843F60841C4F20101086007
:1019200043F60C40C4F20100006808900999089839
:10193000884308900C9880798006002805D5FFE739
:101940000999089808430890FFE7089843F60C4166
:10195000C4F20101086043F60440C4F201000068CB
:10196000089009990898884308900C988079800716
:10197000002805D5FFE70999089808430890FFE774
:10198000089843F60441C4F20101086043F60040A0
:10199000C4F20100006808900999089888430890EB
:1019A0000C988079C00728B1FFE709990898084387
:1019B0000890FFE7089843F60041C4F2010108606F
:1019C000FFE7FFE7FFE70B9801300B902FE60EB023
:1019D0007047000083B00290ADF80610029840698D
:1019E0000090009ABDF8060002EA0001904340EA28
:1019F00001400299886103B07047000082B00190F5
:101A0000ADF802108DF801209DF8010028B1FFE724
:101A1000BDF802000199886105E0BDF802000004EC
:101A200001998861FFE702B0704700000148006833
:101A3000704700BFE44E0020F8B528B3044690F884
:101A40003D0020B904F0D4FB204600F093F904F0E7
:101A500064FB016841F400410160016821F4004128
:101A6000016001F081FC3B4900253B4A88424FF070
:101A7000000138BF0121904238BF01256368374A11
:101A8000934238BF0D460DB10120F8BD34494FF4E3
:101A90007A77B0FBF1F521684E6826F03F062E43B9
:101AA0004E604FF496766E43934228BFB6FBF7F52F
:101AB0006A1C0D6A25F03F052A434CF6FF750A6241
:101AC000CA69AA43274DAB420AD85B000138B0FB74
:101AD000F3F001306FF31F30042898BF042013E0A7
:101AE000A56801383DB119256B4304F044FB0AD0C9
:101AF00000F5804004E003EB430304F03CFB02D01C
:101B000000F5004000E00120104304F10C06C8611C
:101B1000E0690A6822F0C0021043226A104348F2CA
:101B2000FF320860886890436CCE18431043886089
:101B3000C86820F0FF0028433043C86004F089FAE9
:101B400000202021206484F83D10206384F83E00AA
:101B5000F8BD00BF80841E0000093D00A186010081
:101B600040420F00A08601002DE9FE431F461646A5
:101B70000D4604F024FA814604F0CFF809D17B49E0
:101B800020460122192304F099F810B904F04BF80B
:101B900002D10220BDE8FE8304F0B7F903D1136837
:101BA00043F001031360136823F4006313602222DF
:101BB0003B4604F007FA6E493246608DE1622946E1
:101BC00020852046CDE9008903F060F908B104F0D2
:101BD0000CBB208D022806D001280AD0002198B91C
:101BE0000291216808E004F050FA0A600022029293
:101BF0000CE004F0F3FA02924A6902928A690292B6
:101C0000029A04F08DF906E0029121684A69029275
:101C10008969029102991D4F010431D080B20328D5
:101C20000CD8022823D001281BD104F04EF900283B
:101C3000CDD12068616A006908701EE004F045F9A2
:101C40000028C4D12068616A0069087004F030FA85
:101C5000E2D580B2032801D104F0F6F908691070CA
:101C60000BE004F08FFA0028B1D103F0EFFF04F08D
:101C700089FA0028ABD104F0BFFA04F00CF8CBE7E6
:101C8000202084F83D00002004F024B90400010065
:101C90002DE9FE43994616460F4604F090F9054695
:101CA00004F03BF80AD1314920460122192300955E
:101CB00003F0C4F910B903F0B6FF02D10220BDE869
:101CC000FE8304F022F903D1136843F0010313608B
:101CD000136823F40063136021224B4604F072F969
:101CE00023493246608DE162394620852046CDE9A0
:101CF000008503F02DF908B104F077BA218D0804AE
:101D000022D0204641462A4603F02BFA10BB606AD7
:101D10002268014611F8013B1361638D013B638525
:101D20006162238D591E218556697607E7D509041E
:101D30004FF00001E3D0417802301161991E6062DA
:101D4000218504F04EF9DAE7204641462A4603F0A1
:101D500055F930B1206C0428CED1206804F088F801
:101D6000CAE704F03FF8BDE8FE8300BF02001000A0
:101D70000000FFFF80B590B00F9000200E900D90F6
:101D80000C900B900A900F98006845F60041C4F241
:101D90000001884240F0B380FFE7FFE70020099090
:101DA00043F63000C4F20200016841F00401016012
:101DB000006800F0040009900998FFE7FFE70020A1
:101DC000089043F63000C4F20200016841F00101BE
:101DD0000160006800F0010008900898FFE74FF4E8
:101DE00000700A90122002900B90012003900C903A
:101DF000032004900D90042005900E9040F6000002
:101E0000C4F202000AA90691FFF708FCDDF808C039
:101E1000039B049A059806994FF4807ECDF828E03C
:101E2000CDF82CC00C930D920E900020C4F202004D
:101E3000FFF7F4FBFFE70020079043F64000C4F2F1
:101E40000200016841F400010160006800F4000034
:101E500007900798FFE744F69800C2F2000001904F
:101E600046F24001C4F2020101604FF0C0614160DE
:101E700000218160C1604FF4806202614161816133
:101E8000C16101624162FFF7E1FA18B1FFE7FEF7B5
:101E9000D1FDFFE7FFE70F9844F69801C2F2000179
:101EA00081630F988863FFE744F6F800C2F20000F0
:101EB000009046F27001C4F2020101604FF0C0616F
:101EC0004160402181600021C1604FF48062026165
:101ED00041618161C16101624162FFF7B7FA18B1E6
:101EE000FFE7FEF7A7FDFFE7FFE70F9844F6F801CD
:101EF000C2F2000141630F988863FFE7FFE710B06B
:101F000080BD00001F48034900780A68104408603B
:101F1000704700BFE44E002080B50B48016841F4D3
:101F200000710160016841F480610160016841F461
:101F300080710160032000F079F80F2000F006F8AE
:101F400000F024F8002080BD003C024070B50D4E2A
:101F500004464FF47A713078B1FBF0F00A49096811
:101F6000B1FBF0F002F068F801250F2C08D838B961
:101F70004FF0FF3021460022002500F03BF874604E
:101F8000284670BD6C0200207C02002082B0FFE772
:101F90000020019043F64400C4F20200016841F4BD
:101FA00080410160006800F4804001900198FFE7E3
:101FB000FFE70020009043F64000C4F202000168F1
:101FC00041F080510160006800F08050009000985E
:101FD000FFE702B070470000002808D400F01F019E
:101FE0000122400902FA01F1014A42F8201070472B
:101FF00000E100E070B5134B4FF0FF351B68C3F3F1
:102000000223DC1E83F0070338BF002405FA04F620
:10201000B243042B28BF042305FA03F39943A140DC
:102020001143BDE870400AF06BBA00BF05494FF696
:10203000FF030A681A4060F30A220348104308604D
:10204000704700BF0CED00E00000FA0582B001907F
:102050008DF8031002B0704782B00190ADF8021005
:10206000BDF80200019909684862002002B070477B
:1020700084B003908DF80B10ADF808200398006829
:10208000406A00909DF80B0048B9FFE7BDF80810C2
:10209000009840EA014003990968886233E0039898
:1020A0000068816A009800EB1140009000208DF8D4
:1020B0000700FFE79DF807009DF80B1001398842E3
:1020C00013D2FFE7039800689DF8071000EB81002A
:1020D000D0F80411009800EB11400090FFE79DF844
:1020E000070001308DF80700E4E7BDF808100098FC
:1020F00040EA0140039909689DF80B2001EB820139
:10210000C1F80001FFE7002004B0704780B584B03B
:1021100003908DF80B109DF80B00000600280CD5DD
:10212000FFE703989DF80B1001F00F0101EBC101CF
:1021300000EB8100143001900CE003989DF80B1027
:1021400001F00F0101EBC10100EB810000F51570FA
:102150000190FFE703980068019905F037FE8DF8BC
:102160000A009DF80A0004B080BD000080B584B06C
:1021700002908DF807109DF80700000600280FD583
:10218000FFE702989DF8071001F00F0101EBC10174
:1021900000EB8100143000900099012048700FE09E
:1021A00002989DF8071001F00F0101EBC10100EB4F
:1021B000810000F515700090009900204870FFE73D
:1021C0009DF8070000F00F0000990870FFE70298E3
:1021D00090F89404012804D1FFE702208DF80F0045
:1021E00014E00299012081F89404FFE7FFE70298C8
:1021F0000068009905F0DAF8FFE70299002081F8FD
:102200009404FFE700208DF80F00FFE79DF80F0012
:1022100004B080BD80B584B002908DF807109DF8A1
:10222000070000F00F0002990979884204D9FFE7FE
:1022300001208DF80F004DE09DF8070000060028F2
:102240000FD5FFE702989DF8071001F00F0101EB91
:10225000C10100EB8100143000900099012048700A
:102260000FE002989DF8071001F00F0101EBC1018A
:1022700000EB810000F51570009000990020487077
:10228000FFE70099002088709DF8070000F00F001C
:1022900000990870FFE7029890F89404012804D18F
:1022A000FFE702208DF80F0014E00299012081F869
:1022B0009404FFE7FFE702980068009905F0EEFA42
:1022C000FFE70299002081F89404FFE700208DF8D1
:1022D0000F00FFE79DF80F0004B080BD82B00190B1
:1022E0008DF8031001989DF8031001F00F0101EB28
:1022F000C10100EB8100D0F8680202B07047000015
:1023000080B586B004908DF80F10ADF80C208DF8D4
:102310000B3000208DF80A009DF80F000006002801
:102320000FD5FFE704989DF80F1001F00F0101EBA6
:10233000C10100EB81001430019001990120487027
:102340000FE004989DF80F1001F00F0101EBC1019F
:1023500000EB810000F51570019001990020487094
:10236000FFE79DF80F0000F00F0001990870BDF81D
:102370000C00019988609DF80B0001990871019883
:10238000407820B1FFE7019908784883FFE79DF87E
:102390000B00022804D1FFE7019900204871FFE7F4
:1023A000FFE7049890F89404012804D1FFE7022085
:1023B0008DF8170015E00499012081F89404FFE7D7
:1023C000FFE704980068019904F0C2FEFFE7049952
:1023D000002081F89404FFE79DF80A008DF81700AB
:1023E000FFE79DF8170006B080BD000080B586B0FD
:1023F00005908DF813100392029305989DF8131021
:1024000001F00F0101EBC10100EB810000F5157037
:10241000019003980199C860029801990861019997
:1024200000204861019948709DF8130000F00F00EA
:102430000199087005988079012804D1FFE7039875
:102440000199C861FFE7059A10680199927905F032
:10245000C9FA002006B080BD80B584B002908DF826
:1024600007109DF8070000F00F00029909798842D3
:1024700004D9FFE701208DF80F0058E09DF8070010
:10248000000600280FD5FFE702989DF8071001F01D
:102490000F0101EBC10100EB8100143000900099A5
:1024A000012048700DE002989DF8071001EBC10172
:1024B00000EB810000F51570009000990020487035
:1024C000FFE70099012088709DF8070000F00F00D9
:1024D00000990870FFE7029890F89404012804D14D
:1024E000FFE702208DF80F0021E00299012081F81A
:1024F0009404FFE7FFE702980068009905F01EFAD0
:102500009DF80700000740B9FFE7029A106891792B
:1025100002F29C4205F072F9FFE7FFE70299002002
:1025200081F89404FFE700208DF80F00FFE79DF885
:102530000F0004B080BD000080B586B005908DF816
:1025400013100392029305989DF8131001F00F01E8
:1025500001EBC10100EB8100143001900398019957
:10256000C8600298019908610199002048610199A9
:10257000012048709DF8130000F00F0001990870C9
:1025800005988079012804D1FFE703980199C86173
:10259000FFE7059A10680199927905F023FA002067
:1025A00006B080BD80B58CB00B900B9800680A9087
:1025B0000A9809900B98006805F03EFD002840F04D
:1025C0000B84FFE70B98006805F0A2FD10B9FFE748
:1025D00000F002BC0998D0F80808C0F30D200B9950
:1025E000C1F8D4040B98006805F092FD800700281C
:1025F00007D5FFE70B980168486900F002004861C1
:10260000FFE70B98006805F083FDC006002862D53F
:10261000FFE70B980168886920F0100088610A982C
:10262000006A02900B98029901F00F0101EBC101C1
:1026300000EB810000F515700890029800F4F0118D
:102640000220B0EB514F23D1FFE7BDF8080047F659
:10265000F07108421BD0FFE70A980899C968029AEE
:10266000C2F30A1205F062FD029847F6F07100EA23
:102670000103089AD06800EB1310D060029800EABA
:1026800001020899486900EB12104861FFE71BE05E
:10269000029800F4F0110620B0EB514F12D1FFE781
:1026A0000A980B9901F29C41082205F03FFD02981F
:1026B00047F6F07100EA01020899486900EB121030
:1026C000486100E0FFE7FFE70B980168886940F088
:1026D00010008861FFE70B98006805F019FD000302
:1026E000002840F1A680FFE7002004900B980068C6
:1026F00005F0BCFC0690FFE70698002800F09880E3
:10270000FFE79DF81800C007002800F08A80FFE767
:102710000B9800689DF8101005F0E2FC05909DF8FC
:102720001400C00760B1FFE70998049900EB41115C
:102730000120C1F8080B0B98049903F0CFFDFFE7C7
:102740009DF81400000700280CD5FFE709980499AC
:1027500000EB41110820C1F8080B0B98049903F015
:1027600077FDFFE79DF81400C006002808D5FFE7B5
:102770000998049900EB41111020C1F8080BFFE7FC
:102780009DF81400800700282DD5FFE70A984069BE
:102790000006002808D5FFE70999D1F8040840F49D
:1027A0008060C1F80408FFE70B98049901EBC101B0
:1027B00000EB810000F5157008900898C07801289A
:1027C00009D1FFE708990020C8700B989DF81010F8
:1027D0000AF017FBFFE70998049900EB411102206A
:1027E000C1F8080BFFE79DF814008006002808D503
:1027F000FFE70998049900EB41112020C1F8080B6C
:10280000FFE79DF815008006002809D5FFE7099825
:10281000049900EB41114FF40050C1F8080BFFE799
:10282000FFE704980130049006984008069063E79B
:10283000FFE70B98006805F06BFC4003002840F1AF
:10284000C680FFE70B98006805F0FEFB06900020AD
:102850000490FFE70698002800F0B880FFE79DF895
:102860001800C007002800F0AA80FFE70B98006856
:102870009DF8101005F00CFC05909DF81400C007A1
:1028800000283ED0FFE7049800F00F01012000FA75
:1028900001F10391039B099AD2F834189943C2F8C5
:1028A00034180999049A01EB4211C1F808090B98F0
:1028B000807901281FD1FFE70B98049901EBC10132
:1028C00000EB8101CA69086A10440862049888B95B
:1028D000FFE70B98049901EBC10100EB8100406A0E
:1028E00040B9FFE70B99086801F29C42012104F00E
:1028F00085FFFFE7FFE70B989DF810100AF051FAEB
:10290000FFE79DF814000007002808D5FFE70998A5
:10291000049900EB41110820C1F80809FFE79DF870
:102920001400C006002808D5FFE70998049900EBB9
:1029300041111020C1F80809FFE79DF81400400676
:10294000002808D5FFE70998049900EB41114020C1
:10295000C1F80809FFE79DF814008007002822D578
:10296000FFE70A98049905F003FB0B98049901EB23
:10297000C10100EB8100143008900898C07801284C
:1029800009D1FFE708990020C8700B989DF8101036
:102990000AF02EFAFFE70998049900EB4111022092
:1029A000C1F80809FFE79DF814000006002805D5C6
:1029B000FFE70B98049903F075FDFFE7FFE7049824
:1029C0000130049006984008069043E7FFE70B9813
:1029D000006805F09DFBC00F00B3FFE70999D1F82F
:1029E000040820F00100C1F804080B9890F8CC040A
:1029F000012808D1FFE70B98002180F8CC140B9830
:102A0000FFF724FB03E00B980AF070FAFFE70B983E
:102A10000168486900F000404861FFE70B980068D2
:102A200005F076FB0005002811D5FFE70998D0F8DE
:102A30000808C00720B1FFE70B980AF06FFAFFE71C
:102A40000B980168486900F400604861FFE70B9843
:102A5000006805F05DFBC004002840F18680FFE7B8
:102A60000999D1F8040820F00100C1F804080B9876
:102A70000068102105F07CFA00200790FFE7079816
:102A80000B990979884231D2FFE70998079900EB41
:102A900041114FF67F30C1F808090999079A01EBF7
:102AA0004212D2F8001921F40011C2F80019099954
:102AB000079A01EB4211C1F8080B0998079900EB3E
:102AC0004111D1F8000B20F40010C1F8000B099857
:102AD000079900EB4111D1F8000B40F00060C1F8FC
:102AE000000BFFE7079801300790C8E70999D1F874
:102AF0001C0840F00110C1F81C080B98C07B78B18D
:102B0000FFE70999D1F8840840F00B00C1F8840868
:102B10000999D1F8440840F00B00C1F844080FE0CF
:102B20000999D1F8140842F22B021043C1F8140895
:102B30000999D1F8100840F00B00C1F81008FFE720
:102B40000999D1F8000820F4FE60C1F800080B9A3A
:102B50001068917902F29C4204F050FE0B980168D3
:102B6000486900F480504861FFE70B98006805F061
:102B7000CFFA800400281FD5FFE70B98006804F007
:102B800057FB0B98006805F031FA0B99C8710B9848
:102B90000068019000F0E2FB014601980B9AD2799F
:102BA00005F0BCFB0B980AF089F90B98016848699D
:102BB00000F400504861FFE70B98006805F0A8FAA0
:102BC000000700280AD5FFE70B980AF096F90B9842
:102BD0000168486900F008004861FFE70B98006849
:102BE00005F096FA0006002825D5FFE70A998869BE
:102BF00020F08000886101200490FFE704980B9981
:102C00000979884216D2FFE70B98049901EBC101BC
:102C100000EB810090F85702012806D1FFE70B98DE
:102C20009DF81010FFF772FAFFE7FFE704980130F4
:102C30000490E3E7FFE70B98006805F069FAC0022B
:102C400000283CD5FFE701200490FFE704980B998A
:102C5000097988422CD2FFE70998049900EB4110CA
:102C6000D0F8000902900B98049901EBC10100EB28
:102C70008100007E012816D1FFE79DF80B000006B9
:102C8000002810D5FFE70B98049901EBC10100EB78
:102C900081010120C8750B989DF8101041F080014A
:102CA000FFF734FAFFE7FFE7049801300490CDE71F
:102CB0000B980168486900F480104861FFE70B98A1
:102CC000006805F025FA8002002855D5FFE70120AD
:102CD0000490FFE704980B990979884245D2FFE7F1
:102CE0000998049900EB4110D0F8000B02900B9862
:102CF000049901EBC10100EB810090F85802012812
:102D00002ED1FFE79DF80B000006002828D5FFE72D
:102D1000029800F480300B99D1F8D41401F001012D
:102D200088421DD1FFE70B98049901EBC10100EB2C
:102D30008101012081F857020A99886940F08000DA
:102D400088610A9840690006002808D4FFE70999BD
:102D5000D1F8040840F40070C1F8040805E0FFE76A
:102D6000FFE7049801300490B4E70B9801684869C4
:102D700000F400104861FFE70B98006805F0C8F9FF
:102D8000400000280AD5FFE70B980AF003F80B98DB
:102D90000168486900F080404861FFE70B980068CF
:102DA00005F0B6F94007002815D5FFE70B98006835
:102DB000406802909DF808004007002804D5FFE70E
:102DC0000B980AF00EF8FFE7029A0B980168486822
:102DD00010434860FFE7FFE70CB080BD80B58EB0C0
:102DE0000C900C9820B9FFE701208DF8370012E114
:102DF0000C9800680B900C9890F8950440B9FFE788
:102E00000C99002081F894040C980AF003F8FFE76D
:102E10000C99032081F895040B98B0F1A04F04D1D0
:102E2000FFE70C9900208871FFE70C98006804F018
:102E3000DBFC0C9B1868197C8DF8241059689A6883
:102E4000DB680893079206910699079A089BDDF8BC
:102E500024C0EE46CEF800C004F000FA40B1FFE70F
:102E60000C99022081F8950401208DF83700D2E0FA
:102E70000C980068002105F0B3F940B1FFE70C9908
:102E8000022081F8950401208DF83700C3E000206E
:102E90008DF82B00FFE79DF82B000C9909798842EB
:102EA00041DAFFE70C989DF82B1001EBC10100EB14
:102EB0008101012048759DF82B000C9900EBC002A0
:102EC00001EB820108759DF82B000C9900EBC00204
:102ED00001EB8201C8850C989DF82B1001EBC10114
:102EE00000EB8101002008760C999DF82B2002EB65
:102EF000C20201EB8201C8610C999DF82B2002EB04
:102F0000C20201EB820108620C999DF82B2002EBB2
:102F1000C20201EB82014862FFE79DF82B000130FD
:102F20008DF82B00B7E700208DF82B00FFE79DF808
:102F30002B000C99097988423EDAFFE70C989DF83E
:102F40002B1001EBC10100EB8101002081F855023B
:102F50009DF82B100C9A01EBC10302EB830282F85F
:102F600054120C999DF82B2002EBC20201EB820156
:102F700081F858020C999DF82B2002EBC20201EB5C
:102F80008201C1F85C020C999DF82B2002EBC20271
:102F900001EB8201C1F860020C999DF82B2002EB35
:102FA000C20201EB8201C1F86402FFE79DF82B0029
:102FB00001308DF82B00BAE70C9B1868197C8DF84E
:102FC000141059689A68DB6804930392029102997D
:102FD000039A049BDDF814C0EE46CEF800C004F05E
:102FE000B5FA40B1FFE70C99022081F89504012061
:102FF0008DF837000FE00C990020019048740C996F
:10300000012081F895040C98006804F089FA019871
:103010008DF83700FFE79DF837000EB080BD000047
:1030200080B584B002908DF80710FFE7029890F801
:103030009404012804D1FFE702208DF80F0019E065
:103040000299012081F89404FFE7FFE79DF807004B
:1030500002994874029800689DF8071005F030F94D
:10306000FFE70299002081F89404FFE700208DF823
:103070000F00FFE79DF80F0004B080BD80B584B05D
:103080000290029800680190FFE7029890F894047B
:10309000012804D1FFE702208DF80F0028E00299F3
:1030A000012081F89404FFE7FFE70198C06840061B
:1030B00000280BD5FFE70298407B012806D1FFE7E7
:1030C0000199886B40F480308863FFE702980068BC
:1030D00004F00AFF0298006804F00CFAFFE7029976
:1030E000002081F89404FFE700208DF80F00FFE72F
:1030F0009DF80F0004B080BD80B584B002900191AE
:10310000029820B9FFE701208DF80F0021E1019816
:1031100043F60041C4F20201096801F00701884248
:1031200012D9FFE7019943F60040C4F20200017092
:10313000006800F007000199884204D0FFE70120F1
:103140008DF80F0005E1FFE702980078800700285E
:103150002AD5FFE7029800784007002809D5FFE745
:1031600043F60801C4F20201086840F4E050086028
:10317000FFE7029800780007002809D5FFE743F62B
:103180000801C4F20201086840F460400860FFE7EB
:1031900043F60801C4F20201086820F0F000029A28
:1031A000926810430860FFE702980078C007002883
:1031B0006ED0FFE702984068012811D1FFE743F67F
:1031C0000000C4F20200006800F400310020B0EBFF
:1031D000514F04D1FFE701208DF80F00B9E02CE03A
:1031E00002984068022805D0FFE70298406803284B
:1031F00011D1FFE743F60000C4F20200006800F0BE
:1032000000710020B0EB516F04D1FFE701208DF871
:103210000F009EE010E043F60000C4F202000068D8
:1032200000F002010020B0EB510F04D1FFE70120B4
:103230008DF80F008DE0FFE7FFE743F60801C4F2C9
:103240000201086820F00300029A526810430860E7
:10325000FEF7ECFB0090FFE743F60800C4F2020023
:10326000006800F00C0002994968B0EB810F0ED0A5
:10327000FFE7FEF7DBFB0099401A41F289318842F3
:1032800004D3FFE703208DF80F0062E0E4E7FFE7D7
:10329000019843F60041C4F20201096801F00701F8
:1032A000884212D2FFE7019943F60040C4F20200BF
:1032B0000170006800F007000199884204D0FFE720
:1032C00001208DF80F0044E0FFE7029800784007E6
:1032D00000280CD5FFE743F60801C4F20201086894
:1032E00020F4E050029AD26810430860FFE7029889
:1032F0000078000700280DD5FFE743F60801C4F267
:103300000201086820F46040029A126940EAC20093
:103310000860FFE700F04CF843F60801C4F2020130
:103320000968C9B20A0942F25011C0F60101895C6C
:10333000C84040F27C21C2F20001086040F27020D7
:10334000C2F200000068FEF701FE00208DF80F00B9
:10335000FFE79DF80F0004B080BD000040F27C2024
:10336000C2F200000068704780B5FFF7F7FF43F630
:103370000801C4F202010968C1F3822242F260111D
:10338000C0F60101895CC84080BD000080B5FFF730
:10339000E5FF43F60801C4F20201096889B24A0B4D
:1033A00042F26011C0F60101895CC84080BD000096
:1033B00080B586B00020059004900390029043F6FB
:1033C0000800C4F20200006800F00C000146019100
:1033D00040B1FFE7019804280AD0FFE701980828C8
:1033E0000CD04FE042F20040C0F2F40002904FE0F7
:1033F00041F60030C0F2B700029049E043F6040005
:10340000C4F20200016801F03F010591006840022A
:10341000002813D5FFE743F60400C4F20200006859
:10342000C0F3881041F60031C0F2B701A0FB0101E2
:10343000059A0023FCF76DFF049012E043F60400A8
:10344000C4F202000068C0F3881042F20041C0F2EA
:10345000F401A0FB0101059A0023FCF75AFF049038
:10346000FFE743F60400C4F20200006800F44031B4
:10347000022000EBD130039004980399B0FBF1F0E7
:10348000029005E042F20040C0F2F4000290FFE733
:10349000029806B080BD000080B586B00490049804
:1034A00020B9FFE701208DF8170050E30498007859
:1034B000C007002800F0A580FFE743F60800C4F22B
:1034C0000200006800F00C00042813D0FFE743F668
:1034D0000800C4F20200006800F00C0008281ED1A9
:1034E000FFE743F60400C4F202000068400200282F
:1034F00015D5FFE743F60000C4F20200006800F4AF
:1035000000310020B0EB514F08D0FFE7049840682D
:1035100020B9FFE701208DF8170018E370E0FFE7FE
:1035200004984068B0F5803F09D1FFE743F60001F9
:10353000C4F20201086840F48030086020E004987A
:103540004068B0F5A02F0DD1FFE743F60001C4F2AB
:103550000201086840F480200860086840F4803068
:1035600008600CE043F60001C4F20201086820F490
:1035700080300860086820F480200860FFE7FFE7DB
:10358000FFE704984068E8B1FFE7FEF74FFA0390C1
:10359000FFE743F60000C4F20200006800F40031C7
:1035A0000020B0EB514F0CD1FFE7FEF73FFA039933
:1035B000401A652804D3FFE703208DF81700C6E200
:1035C000E7E71CE0FEF732FA0390FFE743F600005E
:1035D000C4F20200006800F400310020B0EB514F4B
:1035E0000CD0FFE7FEF722FA0399401A652804D3AE
:1035F000FFE703208DF81700A9E2E7E7FFE7FFE701
:10360000FFE7049800788007002840F19680FFE7E4
:1036100043F60800C4F20200006810F00C0F13D04B
:10362000FFE743F60800C4F20200006800F00C0057
:1036300008282CD1FFE743F60400C4F2020000681A
:103640004002002823D4FFE743F60000C4F2020042
:10365000006800F002010020B0EB510F09D0FFE735
:103660000498C068012804D0FFE701208DF81700F6
:103670006DE243F60001C4F20201086820F0F80090
:10368000049A126940EAC2000860FFE754E0049817
:10369000C06870B3FFE70021C4F247210120086031
:1036A000FEF7C4F90390FFE743F60000C4F20200FE
:1036B000006800F002010020B0EB510F0CD1FFE7D1
:1036C000FEF7B4F90399401A032804D3FFE7032057
:1036D0008DF817003BE2E7E743F60001C4F2020170
:1036E000086820F0F800049A126940EAC2000860F5
:1036F00021E00021C4F2472100200860FEF796F97E
:103700000390FFE743F60000C4F20200006800F0F7
:1037100002010020B0EB510F0CD0FFE7FEF786F955
:103720000399401A032804D3FFE703208DF81700FC
:103730000DE2E7E7FFE7FFE7FFE7049800780007FF
:1037400000284BD5FFE70498406918B3FFE740F61F
:103750008061C4F2472101200860FEF767F90390F9
:10376000FFE743F67400C4F20200006800F00201B3
:103770000020B0EB510F0CD1FFE7FEF757F903998A
:10378000401A032804D3FFE703208DF81700DEE179
:10379000E7E722E040F68061C4F24721002008609C
:1037A000FEF744F90390FFE743F67400C4F2020009
:1037B000006800F002010020B0EB510F0CD0FFE7D1
:1037C000FEF734F90399401A032804D3FFE70320D6
:1037D0008DF81700BBE1E7E7FFE7FFE70498007803
:1037E0004007002840F1CE80FFE700208DF8070059
:1037F00043F64000C4F202000068C000002815D45F
:10380000FFE7FFE70020009043F64000C4F202000B
:10381000016841F080510160006800F08050009024
:103820000098FFE701208DF80700FFE747F200004E
:10383000C4F200000068C005002822D4FFE747F268
:103840000001C4F20001086840F480700860FEF7CF
:10385000EDF80390FFE747F20000C4F200000068B3
:10386000C00500280CD4FFE7FEF7E0F80399401AE2
:10387000032804D3FFE703208DF8170067E1EAE788
:10388000FFE7FFE704988068012809D1FFE743F6C6
:103890007001C4F20201086840F0010008601FE0F6
:1038A0000498806805280DD1FFE743F67001C4F243
:1038B0000201086840F004000860086840F0010058
:1038C00008600CE043F67001C4F20201086820F0C1
:1038D00001000860086820F004000860FFE7FFE7C7
:1038E000FFE704988068F8B1FFE7FEF79FF80390C0
:1038F000FFE743F67000C4F20200006800F0020126
:103900000020B0EB510F0ED1FFE7FEF78FF80399BF
:10391000401A41F28931884204D3FFE703208DF831
:10392000170014E1E5E71EE0FEF780F80390FFE7DB
:1039300043F67000C4F20200006800F002010020AB
:10394000B0EB510F0ED0FFE7FEF770F80399401A65
:1039500041F28931884204D3FFE703208DF8170034
:10396000F5E0E5E7FFE79DF80700012809D1FFE74B
:1039700043F64001C4F20201086820F0805008605C
:10398000FFE7FFE704988069002800F0DC80FFE78C
:1039900043F60800C4F20200006800F00C0008289A
:1039A00000F08580FFE70498806902285CD1FFE77A
:1039B0006021C4F2472100200860FEF737F8039029
:1039C000FFE743F60000C4F20200006800F0007157
:1039D0000020B0EB516F0CD0FFE7FEF727F80399FA
:1039E000401A032804D3FFE703208DF81700AEE048
:1039F000E7E70499C869D1F820C04B6A8A6A40EAAF
:103A00000C0040EA8310D2034FF6FF739A43A2F5ED
:103A100080321043C96A40EA016043F60401C4F2EF
:103A2000020108606021C4F2472101200860FDF70F
:103A3000FDFF0390FFE743F60000C4F202000068B8
:103A400000F000710020B0EB516F0CD1FFE7FDF7E3
:103A5000EDFF0399401A032804D3FFE703208DF8F4
:103A6000170074E0E7E721E06021C4F2472100205D
:103A70000860FDF7DBFF0390FFE743F60000C4F2A8
:103A80000200006800F000710020B0EB516F0CD014
:103A9000FFE7FDF7CBFF0399401A032804D3FFE7A4
:103AA00003208DF8170052E0E7E7FFE74AE00498AB
:103AB0008069012804D1FFE701208DF8170046E056
:103AC00043F60400C4F20200006802900498806982
:103AD000012831D0FFE7029800F480000499C969F9
:103AE000884229D1FFE7029800F03F000499096A53
:103AF000884221D1FFE7029847F6C0710840049937
:103B0000496AB0EB811F17D1FFE7029800F44030FB
:103B10000499896AC9034FF6FF729143A1F5803178
:103B2000884209D1FFE7029800F070600499C96AE1
:103B3000B0EB016F04D0FFE701208DF8170006E01D
:103B4000FFE7FFE7FFE700208DF81700FFE79DF88C
:103B5000170006B080BD7047F8B550B1D0F824C04A
:103B60000446BCF1000F06D00021216104F11401CC
:103B700007E001254EE06168B1F5827F03D004F1D2
:103B80001C0100220A600025A56294F8511000294A
:103B90004FF0000108D1204684F8505000F03CF866
:103BA000D4E909C101F40051022284F8512094E8BB
:103BB000CC00106820F04000106003F4827006F41E
:103BC0000443184407F400631844236903F0020314
:103BD0001844636903F001031844A36903F40076F1
:103BE0003044E66906F038063044266A06F080065E
:103BF000304308430CF010011060042000EA134029
:103C000008445060D06920F40060D06101206565EF
:103C100084F851002846F8BD80B590B00F90002080
:103C20000E900D900C900B900A900F98006843F244
:103C30000001C4F20101884240F0C080FFE7FFE7C5
:103C40000020099043F64400C4F20200016841F4E8
:103C500080510160006800F4805009900998FFE7E6
:103C6000FFE70020089043F63000C4F2020001682C
:103C700041F002010160006800F00200089008981D
:103C8000FFE7FFE70020079043F63000C4F2020090
:103C9000016841F001010160006800F00100079037
:103CA0000798FFE718200A90022001900B9001204E
:103CB00002900C90032005900D90052003900E902B
:103CC00040F20040C4F202000AA90491FDF7A6FCEC
:103CD000DDF804C0029B03980499059A4FF0800E0A
:103CE000CDF828E0CDF82CC00C930D920E9000205A
:103CF000C4F20200FDF792FC059A44F65810C2F295
:103D00000000069046F24041C4F2020101604FF00B
:103D1000C061416000218160C1604FF48063036134
:103D200041618161C1614FF4403303620423436206
:103D30008262C1620163FDF789FB18B1FFE7FCF7FE
:103D400079FEFFE7FFE70F9844F65811C2F2000131
:103D5000C1640F988863FFE744F6B810C2F2000010
:103D6000009046F25841C4F2020101604FF0C06178
:103D70004160402181600021C1604FF48062026196
:103D800041618161C1614FF40032026204224262EA
:103D900003228262C1620163FDF758FB18B1FFE79D
:103DA000FCF748FEFFE7FFE70F9844F6B811C2F2B0
:103DB000000181640F988863FFE7FFE710B080BDC2
:103DC000704770472DE9F84301F07CFF04BF0220E3
:103DD000BDE8F88301201E46154602F022F894F84B
:103DE0005110814601290BD06068B0F5827F5ED109
:103DF0000220042940F09C80A168002940F09880AE
:103E0000002F00F09480002D00F09180002E00F033
:103E10008E8094F8510004281CBF052084F85100BE
:103E200000206065E687E686C4E91000A563A687E2
:103E30002763A68620680168490601D402F045F987
:103E4000E268DDF820806168B2F5006F31D109B118
:103E5000012E01D101F04DFF012608F10105E08E90
:103E600010B9E08F00285AD001F0B3FF0CD5E18ED5
:103E7000012E09D141B1216B002631F8022BC2601D
:103E80002163E18E0139E1868168C90706D0E18F9F
:103E900021B1A16BC068012601F043FFFDF7C6FD0B
:103EA000002DDCD0A0EB09004045D8D332E0022041
:103EB0003EE009B1012E02D1397802F03DF9012628
:103EC00008F10105E08E08B9E08F40B301F081FFF1
:103ED0000ED5E18E012E0BD151B1216B0026097850
:103EE0000173216B206801312163E18E0139E18684
:103EF0008168C90706D0E18F21B1A16BC068012696
:103F000001F0EAFEFDF792FD002DDBD0A0EB0900E9
:103F10004045D7D3012084F85100032008E0204613
:103F200041464A4602F0E8FB38B120206065012096
:103F3000002184F85010BDE8F883A06808B901F0AA
:103F400009FF616D01200029F2D184F851000020A1
:103F5000EEE70000F8B501F0B5FE04BF0220F8BDA1
:103F6000012084F8500094F85150012D3ED1D9B36E
:103F7000D2B3CBB394F851002A4E2B4F04281CBF68
:103F8000052084F8510000256565E386E387A38654
:103F9000A387234B2163A263C4E91055E06C216819
:103FA000C0E9133594F85130042B08BF3746204E32
:103FB0001E4B08BF1E46C0E90F670C31E38FFDF7AB
:103FC000C9FA78B92268216BA06C536843F00103E9
:103FD0005360C0E91355C0E90F550C32E38EFDF76D
:103FE000B9FA98B101F013FF01200BE06068B0F559
:103FF000827F06D10220042D04D1A568002DB6D001
:1040000000E00220002184F85010F8BD206801680B
:10401000490601D402F059F801F0F5FDF2E700BFBE
:10402000DB650008F9650008FF6500080566000803
:104030006366000870470000411E0020B0EB116F5E
:104040001CBF01207047044AF023516003490B70E4
:10405000072190601160704710E000E023ED00E060
:1040600070477047F0B5024690F83C00012804BF45
:104070000220F0BD01F10807D1E900C44B6900201E
:10408000C969E0CF82F83C00126826F47C5624F41B
:10409000F04425F4705535432C432CF4E0452C4373
:1040A00027F4C0452C43234323F480431943516430
:1040B000F0BD000010B590F83C300222012B2CD04E
:1040C00080F83D2002680B68546824F070041C439B
:1040D0009368B2F1804F546014D0834CA24211D047
:1040E000824CA2420ED0824CA2420BD0814CA24202
:1040F00008D0814CA24205D0804CA24202D0804C14
:10410000A24204D1496823F0800319439160002240
:10411000012180F83C2080F83D10104610BD00BF02
:1041200058B110B501F058FF03D101F091FE00F035
:1041300007F802F034F801F0EABC012070470000F3
:1041400080B588B00790079800680021C4F201018B
:10415000884212D1FFE7FFE70020069043F64400B3
:10416000C4F20200016841F001010160006800F042
:10417000010006900698FFE781E00798006840F28A
:104180000041C4F20001884212D1FFE7FFE700209E
:10419000059043F64000C4F20200016841F00201BC
:1041A0000160006800F0020005900598FFE765E0F7
:1041B0000798006840F60001C4F2000188421BD154
:1041C000FFE7FFE70020049043F64000C4F202003E
:1041D000016841F004010160006800F004000490EF
:1041E0000498FFE71E20019001210022FDF702FF45
:1041F0000198FDF7F1FE40E00798006840F60041A5
:10420000C4F2000188421BD1FFE7FFE700200390C2
:1042100043F64000C4F20200016841F00801016069
:10422000006800F0080003900398FFE73220009038
:1042300001210022FDF7DEFE0098FDF7CDFE1BE018
:104240000798006844F20041C4F20101884212D18B
:10425000FFE7FFE70020029043F64400C4F20200AB
:10426000016841F400310160006800F40030029000
:104270000298FFE7FFE7FFE7FFE7FFE7FFE708B088
:1042800080BD000090F83D1001291CBF012070473F
:10429000022180F83D100068C168B0F1804F41F004
:1042A0000101C16014D01049884211D00F498842E1
:1042B0000ED00F4988420BD00E49884208D00E49D3
:1042C000884205D00D49884202D00D49884204D168
:1042D000724601F0ACFC964603D0724601F080FCB9
:1042E00096460020704700BF0004004000080040D0
:1042F000000C004000180040000001400040014058
:104300000004014010B501F04DFE52D084F83D008C
:1043100001204FF6777384F83C00206882689A4346
:1043200082600A68C2B1102A16D0202A14D0302A1E
:1043300012D0402A17D0502A1ED0602A25D0B2F5BC
:10434000005F2ED0B2F5805F30D0702A32D101F0FC
:1043500072FD41F0770128E0816821F0700111437E
:1043600041F0070121E001F099FE2068816841F0E9
:10437000470121F0300118E001F090FE20688168CB
:1043800041F0570121F020010FE04B68CA6819463F
:1043900002F045FC2068816841F0670121F01001BE
:1043A00003E001F048FD41F480418160002001F00C
:1043B00065FE10BD0120FAE7704770B5044600683D
:1043C000C5680669B10710D5A9070ED56FF00201BF
:1043D0000161012121778069800702D001F00DFE83
:1043E00001E001F088FD00202077700712D56807F2
:1043F00010D520686FF004010161022121778069E6
:1044000010F4407F02D001F0F8FD01E001F073FDEF
:1044100000202077300711D528070FD520686FF0CE
:104420000801016104212177C069800702D001F0F1
:10443000E4FD01E001F05FFD00202077F00612D5D9
:10444000E80610D520686FF010010161082121777E
:10445000C06910F4407F02D001F0CFFD01E001F00F
:104460004AFD00202077F00708D0E80706D0206832
:104470006FF001010161204608F0B2FD300608D559
:10448000280606D520686FF0800101612046FFF7FD
:10449000E7FD700608D5680606D520686FF0400174
:1044A0000161204600F024F9B00601D5A80600D429
:1044B00070BD20686FF0200101612046BDE87040AA
:1044C000FFF7CFBD80B588B007900020069005901B
:1044D000049003900290079800680021C4F2010143
:1044E000884223D1FFE7FFE70020019043F6300028
:1044F000C4F20200016841F010010160006800F0A0
:10450000100001900198FFE74FF400500290022044
:1045100003900020049005900120069041F20000D5
:10452000C4F2020002A9FDF779F82BE007980068B1
:1045300044F20041C4F20101884222D1FFE7FFE7C3
:104540000020009043F63000C4F20200016841F000
:1045500020010160006800F0200000900098FFE753
:104560004020029002200390002104910590032036
:10457000069041F20040C4F2020002A9FDF74EF895
:10458000FFE7FFE708B080BD70470000B0B501F05D
:104590008AFD04BF0220B0BD01F027FD37D8DFE857
:1045A00001F0020A12222068294602F06DFA206802
:1045B00050F8181F0EE02068294602F095FA20688E
:1045C00050F8181F16E02068294602F0BFFA20684C
:1045D00050F81C1F41F008010160016821F004013E
:1045E000016029690FE02068294602F0E1FA20689D
:1045F00050F81C1F41F400610160016821F48061E2
:10460000016029690902026811430160002000214C
:1046100084F83C10B0BD58B110B501F0DDFC03D1F9
:1046200001F016FC00F006F801F0B9FD01F06FBAD8
:10463000012070477047704710B5044641B1082902
:104640000ED0042914BF04F1410004F13F0009E039
:1046500094F83E00012812D1022084F83E0012E0B6
:1046600004F140000078012809D10220082908D06F
:10467000042914BF84F8410084F83F0003E00120BE
:1046800010BD84F84000206801F052FB01F04DFCA1
:1046900019D01049884216D00F49884213D00F49CB
:1046A000884210D00E4988420DD00E49884205D06C
:1046B0000D49884207D00D49884207D1416C0B4A09
:1046C00001F0AFFD02D101F0B2FA01D001F088FA99
:1046D000002010BD0004004000080040000C004015
:1046E000001800400000014000400140000401406B
:1046F00070477CB501F0D9FA19D10125C1B1BAB121
:10470000204600262563666302F0C4FC206B012866
:104710000ED10196206801F08FFA50E8030F21684E
:1047200040F0100001F07AFC04D02068F5E7022583
:1047300028467CBD0025FBE710B5044600684169AA
:1047400094F84120212A0FD111F080010CD001F002
:10475000FCFB01D02068FAE7A06B08B1FCF778FDFC
:10476000204602F0D0FB2068416994F84220222ABA
:104770000DD111F040010AD001F057F901D02068A5
:10478000FAE7E06B08B1FCF763FD01F0D4FA002012
:1047900010BD70477CB5044600680268C168456971
:1047A000130743D001F4907605F00105761941D046
:1047B000D60705D0CE0503D5666C46F001066664C3
:1047C000560704D51DB1666C46F00206666496076E
:1047D00004D51DB1666C46F004066664002B07D54F
:1047E00001F020035B1903D0636C43F0080363649A
:1047F000636C002B62D0920605D5890603D520464E
:1048000002F08FFB20684069616C00F0400001F00D
:10481000080140184DD001F08EFA20684169490620
:104820005AD501F002F94AD02068FAE7930601D57B
:104830008B0639D4236B012B03D1D30601D5CB06CC
:104840004FD4130601D50B060FD4520636D54906B0
:1048500034D5C16821F04001C160202084F84100B6
:104860002046BDE87C4000F0F5BA94F841102129BB
:1048700024D1A168B1F5805F03D12169002900F03E
:104880009B80216A4A1C226209784160E18C0139CF
:10489000E184090412D1C16821F08001C160C168BE
:1048A00041F04001C1607CBD2046BDE87C4002F083
:1048B00038BB2046FFF76DFF002060647CBDE06BD5
:1048C00050B141490165FCF703FD0028F6D0E06BCB
:1048D000016DBDE87C4008472046BDE87C40FFF7FD
:1048E00058BF0021019101F0A7F9416949062ED472
:1048F000E18DA28DE38D002BE0D0511A0A04DDD0AA
:1049000050E8030F226820F4907042E803030BB1D3
:104910002068F5E7206850E8050F226820F00100C4
:1049200042E80503002BF5D1202084F84200002046
:104930002063206850E8030F226820F0100042E84E
:104940000303002BF5D1022089B260632FE0E26BF4
:1049500011684B689DB2002DB0D0A18D8D42ADD2B3
:10496000E385D269B2F5807F1CD050E8030F21683F
:1049700020F4807001F052FB01D02068F5E701F0CF
:10498000DDF8FCD1206801F050F8FBD1202084F83C
:1049900042000020206301F0E6F9FCD1E06BFCF757
:1049A00057FCA18D02206063E08D081A81B2204679
:1049B000BDE87C4008F0BCBB216A31F8022B6FF3E4
:1049C0005F222162426061E7956D000890B110B5E9
:1049D000044690F8410008B901F0B6FB01F055FA21
:1049E0002068016921F490410161416921F02A01A7
:1049F00001F070BB0120704780B59EB01D90002073
:104A00001C901B901A90199018901D98006841F204
:104A10000001C4F20101884240F0C480FFE7FFE7D3
:104A20000020179043F64400C4F20200016841F0F0
:104A300010010160006800F0100017901798FFE760
:104A4000FFE70020169043F63000C4F20200016830
:104A500041F002010160006800F002001690169813
:104A6000FFE7FFE70020159043F63000C4F2020094
:104A7000016841F001010160006800F0010015903B
:104A80001598FFE78020189002200B9019900020C5
:104A90000F901A9003200E901B9007200C901C90F2
:104AA00040F20040C4F2020018A90D91FCF7B6FDD7
:104AB000DDF82CC00C980D990E9A0F9B4FF4007ED8
:104AC000CDF860E0CDF864C01A931B921C900020D2
:104AD000C4F20200FCF7A2FD0E9A0F9944F61820CA
:104AE000C2F20000109046F28843C4F20203036051
:104AF0004FF0006343608160C1604FF480630361E5
:104B000041618161C1614FF4403303620423436218
:104B10008262C1620163FCF799FC18B1FFE7FBF701
:104B200089FFFFE7FFE71D9844F61821C2F2000154
:104B3000C1631D988863FFE744F67820C2F2000045
:104B40000A9046F2B841C4F2020101604FF00061E0
:104B50004160402181600021C1604FF480620261A8
:104B600041618161C1614FF4803202624162FCF7B0
:104B70006DFC18B1FFE7FBF75DFFFFE7FFE71D984E
:104B800044F67821C2F2000181631D988863FFE733
:104B90002520099005210022FDF72CFA0998FDF740
:104BA0001BFA1AE11D98006844F60001C4F20001E6
:104BB00088426AD1FFE7FFE70020149043F64000E7
:104BC000C4F20200016841F480210160006800F431
:104BD000802014901498FFE7FFE70020139043F61D
:104BE0003000C4F20200016841F004010160006875
:104BF00000F0040013901398FFE74FF44060189002
:104C000002201990002007901A9003201B90072083
:104C10001C9040F60000C4F2020018A9FCF7FEFC4C
:104C2000079944F6D820C2F20000089046F2280204
:104C3000C4F2020202604FF0006242608160C16013
:104C40004FF48062026141618161C1614FF4403281
:104C500002624162FCF7FAFB18B1FFE7FBF7EAFEDC
:104C6000FFE7FFE71D9844F6D821C2F20001C163B7
:104C70001D988863FFE72720069005210022FDF795
:104C8000B9F90698FDF7A8F9A6E01D98006841F269
:104C90000041C4F20101884240F09D80FFE7FFE738
:104CA0000020129043F64400C4F20200016841F073
:104CB00020010160006800F0200012901298FFE7C8
:104CC000FFE70020119043F63000C4F202000168B3
:104CD00041F040010160006800F04000119011981F
:104CE000FFE74FF4844018900220199000200490B0
:104CF0001A90032003901B9008201C9041F600009E
:104D0000C4F2020018A9FCF789FC039A049944F63E
:104D10003830C2F20000059046F22843C4F2020384
:104D200003604FF0206343608160C1604FF4806393
:104D3000036141618161C1614FF400330362042367
:104D400043628262C1620163FCF780FB18B1FFE736
:104D5000FBF770FEFFE7FFE71D9844F63831C2F21B
:104D60000001C1631D988863FFE744F69830C2F2E2
:104D70000000029046F2A041C4F2020101604FF02F
:104D800020614160402181600021C1604FF4806258
:104D9000026141618161C1614FF48032026241620E
:104DA000FCF754FB18B1FFE7FBF744FEFFE7FFE712
:104DB0001D9844F69831C2F2000181631D98886302
:104DC000FFE74720019005210022FDF713F9019824
:104DD000FDF702F9FFE7FFE7FFE71EB080BD704770
:104DE0007047000070B5044690F8410020281CBFB1
:104DF000022070BD19B313460AB30022E384124E99
:104E00006264A3842162A06B2568C0E913620F4A23
:104E10000F4EC0E90F62212284F841202A1DFCF7C1
:104E200099FB20686FF04001016050E8050F216890
:104E300040F0800041E805021AB12068F5E7012042
:104E400070BD002070BD00BFA16D0008B96E0008E4
:104E50007D6E000870477047FFE7FEE70268516902
:104E600049054FF000010FD56FF480635361202294
:104E7000016380F83D2080F83E1080F83C10016C02
:104E800041F0040101640121084670472DE9FC4B03
:104E9000044600680E46DDF82890DDF82C801D469B
:104EA0001746002201684B4641F48061016000F022
:104EB000D4FF48B120680068C00544BF4FF40070BB
:104EC00020640320BDE8FC8B06F0FE0B20684A4EF0
:104ED0004A464346C0F810B02046314600F0DEF89E
:104EE000E8B90020424601F074F949468069019012
:104EF0000198204600F035F958B9012D04D02068FA
:104F0000390A01F013F920B92068F9B201F00EF95D
:104F100040B1206C042802D1206800F0A9FF0120D4
:104F2000BDE8FC8B206800224B4600F096FF00286D
:104F3000C0D120684BF001014A464346016120463A
:104F4000314600F0ABF8002818BF0120BDE8FC8B0B
:104F50002DE9FE43044600680F460A9D0B9E9946C4
:104F60009046002201682B4601F022F8009600F0DE
:104F700065F848B120680068C00544BF4FF4007070
:104F800020640320BDE8FE83206807F0FE012A4666
:104F9000334601611849204600F080F808B101F05D
:104FA00024B90020324602902068416902912946C6
:104FB000806902900298204600F0D3F830B1206C4E
:104FC0000428ECD1206800F053FFE8E7B9F1010FA5
:104FD0000AD020684FEA182132460161204629464E
:104FE00000F0BFF80028EAD120685FFA88F101617B
:104FF0000020BDE8FE8300BF02000100F8B51546A1
:105000000E4604464F1C20684069400744BF0020FC
:10501000F8BD2046FFF722FF70B9002FF3D0FCF750
:1050200005FD401BB04201D8002EECD1206840693C
:105030004007E8D400F0E4FF0120F8BD2DE9F04777
:10504000DDF820909846164604468FB201F47F059D
:1050500003F1010A1820B5F5803F08BF142001F0C4
:1050600004F818D1BAF1000FF4D0FCF7DFFCA0EB84
:105070000900404502D8B8F1000FEBD11820B5F572
:10508000803F08BF142000F0F0FFE3D100F0B8FF2C
:105090000120BDE8F0870020BDE8F0872DE9F04150
:1050A0009846164604468FB2551C2068416939401F
:1050B000B94213D04169490513D4002DF5D0FCF74E
:1050C000B5FCA0EB0800B04201D8002EEDD120685D
:1050D00040693840B842E8D0202008E00020BDE810
:1050E000F08100F0C5FE6FF480614161042000F0A2
:1050F000F7FE084320640120BDE8F08170B5154635
:105100000E46044620684169490644BF002070BD30
:105110004169C90615D4FCF789FC401BB04201D88F
:10512000002EEFD1206840694006EBD400202021FA
:10513000206384F83D1084F83E00206C40F020008D
:105140000AE06FF01001416100202021206384F803
:105150003D1084F83E00206C206401F049F80120E5
:1051600070BDF8B515460E4604464F1C20684069D0
:10517000000644BF0020F8BD2046FFF76FFE70B95F
:10518000002FF3D0FCF752FC401BB04201D8002E98
:10519000ECD1206840690006E8D400F031FF01201E
:1051A000F8BD000080B582B044F64800C2F20000AD
:1051B000019046F20041C4F2000101600321416008
:1051C00000218160C1604FF4C02202614FF4A0024F
:1051D00042610176012242768276C176017741777B
:1051E000FBF74AFE18B1FFE7FBF724FCFFE702B02C
:1051F00080BD000080B582B044F67000C2F20000AD
:10520000019046F60001C4F20001016003214160F3
:1052100000218160C1604FF4802202614FF4E002FE
:1052200042610176012242768276C176017741772A
:10523000FBF722FE18B1FFE7FBF7FCFBFFE702B02C
:1052400080BD000080B58EB0FFE700200D9043F6D2
:105250003000C4F20200016841F4001101600068EE
:1052600000F400100D900D98FFE7FFE700200C9070
:1052700043F63000C4F20200016841F4800101608D
:10528000006800F480000C900C98FFE70C2001905F
:105290000521059100220A92FCF7ACFE0198FCF76B
:1052A0009BFE0A9A0D2002901146FCF7A3FE02987D
:1052B000FCF792FE0A9A0F2003901146FCF79AFE23
:1052C0000398FCF789FE05990A9A39200490FCF7A7
:1052D00091FE0498FCF780FE05990A9A3A20069000
:1052E000FCF788FE0698FCF777FE0A9A3B200790A9
:1052F0001146FCF77FFE0798FCF76EFE0A9A4420E1
:1053000008901146FCF776FE0898FCF765FE0A9AAD
:10531000452009901146FCF76DFE0998FCF75CFEEC
:105320000A9A46200B901146FCF764FE0B98FCF796
:1053300053FE0EB080BD000080B59CB000201B90D5
:105340001A90199018901790FFE70020169043F6D6
:105350003000C4F20200016841F0020101600068FF
:1053600000F0020016901698FFE7FFE70020159066
:1053700043F63000C4F20200016841F040010160D0
:10538000006800F0400015901598FFE7FFE7002047
:10539000149043F63000C4F20200016841F00101AC
:1053A0000160006800F0010014901498FFE7FFE727
:1053B0000020139043F63000C4F20200016841F06F
:1053C00008010160006800F0080013901398FFE7DF
:1053D000FFE70020129043F63000C4F2020001689B
:1053E00041F004010160006800F00400129012987E
:1053F000FFE7FFE70020119043F63000C4F20200FF
:10540000016841F080010160006800F080001190A7
:105410001198FFE7FFE70020109043F63000C4F238
:105420000200016841F020010160006800F02000E6
:1054300010901098FFE7FFE700200F9043F6300030
:10544000C4F20200016841F010010160006800F040
:1054500010000F900F98FFE741F60000C4F2020021
:1054600002904021019101220C92FCF7C7FA0C9A9C
:105470000020C4F20200049010210391FCF7BEFA50
:105480000C9A40F20040C4F2020006901146FCF76C
:10549000B5FA019A02980C991792189119911A91DC
:1054A00017A90791FCF7BAF8029807990C9A0923F3
:1054B0000A9317934FF40413059318931992FCF76A
:1054C000ADF8039B049807990C9A179318921992B8
:1054D000022208921A92FCF7A1F8059A07990C98F3
:1054E000302317931892199040F60000C4F202007E
:1054F000FCF794F806980799089A0C9B1793189351
:1055000019931A92FCF78AF808990620099000224C
:105510000D92FCF76FFD0998FCF75EFD0A980C9957
:105520000D9AFCF767FD0A98FCF756FD0C990D9A49
:105530000A200B90FCF75EFD0B98FCF74DFD0C99D3
:105540000D9A17200E90FCF755FD0E98FCF744FDC0
:105550001CB080BD80B582B044F6F830C2F20000C5
:10556000019045F60041C4F20001016041F680213E
:10557000C0F20601416000218160C1604FF48042A9
:10558000026141618161C1610162FCF755FA18B1A4
:10559000FFE7FBF74FFAFFE702B080BD80B582B0AE
:1055A00044F64C40C2F20000019043F20001C4F204
:1055B000010101604FF48271416000218160C1608E
:1055C00002220261012242614FF40072826138229C
:1055D000C2610162416281620A21C162FEF7BCFAC6
:1055E00018B1FFE7FBF726FAFFE702B080BD000025
:1055F00080B588B000210091079106910591049132
:1056000003910291019144F6EC40C2F2000044F291
:105610000042C4F2010202604160816041F28732BF
:10562000C26001618161FEF77BFD18B1FFE7FBF706
:1056300001FAFFE744F6EC40C2F20000FEF7EBFF90
:1056400018B1FFE7FBF7F6F9FFE7602001900022B1
:1056500002920392059244F6EC40C2F2000001A9C6
:10566000FEF794FF18B1FFE7FBF7E4F9FFE744F614
:10567000EC40C2F20000FEF725FF08B080BD00003C
:1056800080B598B000210191179116911591149150
:1056900013911291119110910F910E910D910C9106
:1056A0000B910A9109910891079106910591049136
:1056B000039144F6A440C2F2000002900022C4F21A
:1056C00001020260A7224260816041F28732C2601B
:1056D000016141618161FEF723FD18B1FFE7FBF72E
:1056E000A9F9FFE74FF48050149044F6A440C2F2A9
:1056F000000014A9FEF706FE18B1FFE7FBF79AF9C0
:10570000FFE744F6A440C2F20000FEF784FF18B1A0
:10571000FFE7FBF78FF9FFE700201290139044F6A4
:10572000A440C2F2000012A9FEF7C4FC18B1FFE7C2
:10573000FBF780F9FFE760200B9000200C900D90A4
:105740000E900F901090119044F6A440C2F2000009
:105750000BA90822FEF71AFF18B1FFE7FBF76AF959
:10576000FFE70020039004900590069007904FF407
:10577000005108910A9044F6A440C2F2000003A927
:10578000FEF770FC18B1FFE7FBF754F9FFE744F6AA
:10579000A440C2F20000FEF795FE18B080BD0000E4
:1057A00080B588B00021019107910691059104917F
:1057B0000391029144F63450C2F2000040F20042DC
:1057C000C4F20002026053224260816040F2E7327C
:1057D000C26001618161FEF7A3FC18B1FFE7FBF72E
:1057E00029F9FFE74FF48050049044F63450C2F298
:1057F000000004A9FEF786FD18B1FFE7FBF71AF9D0
:10580000FFE700200290039044F63450C2F20000FB
:1058100002A9FEF74FFC18B1FFE7FBF70BF9FFE712
:1058200008B080BD80B588B0002101910791069134
:10583000059104910391029144F67C50C2F200005C
:1058400040F60002C4F2000202605322426081600E
:1058500040F2E732C26001618161FEF761FC18B17C
:10586000FFE7FBF7E7F8FFE74FF48050049044F6BA
:105870007C50C2F2000004A9FEF744FD18B1FFE716
:10588000FBF7D8F8FFE700200290039044F67C5025
:10589000C2F2000002A9FEF70DFC18B1FFE7FBF70A
:1058A000C9F8FFE708B080BD80B588B0002101913C
:1058B00007910691059104910391029144F6C45019
:1058C000C2F2000040F60042C4F20002026053221D
:1058D0004260816040F2E732C26001618161FEF79F
:1058E0001FFC18B1FFE7FBF7A5F8FFE74FF4805066
:1058F000049044F6C450C2F2000004A9FEF702FD71
:1059000018B1FFE7FBF796F8FFE70020029003903D
:1059100044F6C450C2F2000002A9FEF7CBFB18B156
:10592000FFE7FBF787F8FFE708B080BD80B582B0DE
:1059300044F60C60C2F20000019041F20001C4F292
:10594000010101604FF4E131416000218160C160DB
:1059500001610C2242618161C161FFF737F818B122
:10596000FFE7FBF767F8FFE702B080BD80B582B0C4
:1059700044F65460C2F20000019044F60001C4F203
:105980000001016048F2A061C0F2010141604FF4E2
:10599000805181600021C1604FF4806202610C225D
:1059A00042618161C161FFF711F818B1FFE7FBF7B0
:1059B00041F8FFE702B080BD80B582B044F69C603C
:1059C000C2F20000019041F20041C4F20101016005
:1059D0004FF4E131416000218160C16001610C221E
:1059E00042618161C161FEF7F1FF18B1FFE7FBF78A
:1059F00021F8FFE702B080BDFFE7FEE7FFE7FEE723
:105A000080B542F66810C2F20000FCF7CBFD80BD05
:105A1000002084F83400012084F8350070470268C3
:105A200002EB0112D2F8BC21704750E8050F216843
:105A300020F0400041E80502002A7047B0EEC00A9D
:105A4000B8EE411AB4EE410AF1EE10FA7047B0EE2A
:105A5000491AF0EE491AB0EE493AF0EE493AB0EE82
:105A6000494AF0EE484AB0EE495A0021704724EE08
:105A7000064A01EE054A00EE074A34EE040A82EDBA
:105A8000020A70474046962105F02ABA94ED2B2A67
:105A9000002803FB0123C4E93823BDF9022000EEEE
:105AA000102ABDF90020B8EEC00A84ED360A00EED7
:105AB000102ABDF90420B8EEC00A30EE010AB1EE9A
:105AC000081A84ED370A00EE102AB8EEC00A20EE5C
:105AD000011A81EE021A84ED351A704702EE100A9F
